:020000040800F2
:1000000000120020E5B40208ED0E0508ED0E05080B
:100010006FEC0408ED0E0508ED0E0508ED0E050861
:10002000ED0E0508ED0E0508ED0E0508510200085D
:10003000ED0E0508ED0E0508E101000815E20408C3
:10004000ED0E0508ED0E0508ED0E0508ED0E050890
:10005000ED0E0508ED0E0508ED0E0508ED0E050880
:10006000ED0E0508ED0E0508ED0E0508ED0E050870
:10007000ED0E0508ED0E0508ED0E0508ED0E050860
:10008000ED0E050841BA0208ED0E0508ED0E050853
:10009000ED0E050831B40208ED0E0508ED0E050859
:1000A000ED0E050875B0020851B00208ED0E050806
:1000B000ED0E050801540308315E0308DD2805082C
:1000C000D9280508FD550308E9280508E128050891
:1000D000095E0308E5280508715E0308D55E03087C
:1000E000ED0E0508ED0E0508ED0E0508ED0E0508F0
:1000F0007DEC0408ED0E0508ED0E0508ED0E050873
:10010000ED0E050821BA0208ED0E0508ED0E0508F2
:10011000ED0E0508ED0E0508ED0E0508ED0E0508BF
:10012000ED0E0508ED0E0508ED0E0508ED0E0508AF
:10013000ED0E0508ED0E0508ED0E0508ED0E05089F
:10014000ED0E0508216E0208ED0E0508E9EB040826
:10015000F13A0308ED0E0508A1250508A7250508B5
:10016000ED0E0508ED0E0508ED0E0508ED0E05086F
:100170000B4A1168086806C881F30B88022181F3D5
:100180001488203080F30988BFF36F8F4FF0000090
:1001900080F31188104700BFAFF30080AFF30080F9
:1001A000DC6A0020000000000000000000000000E9
:1001B00007480068006880F3088862B661B6BFF33C
:1001C0004F8FBFF36F8F02DF00BF00BFAFF3008020
:1001D00008ED00E00000000000000000000000004A
:1001E000EFF309801EF0100F08BF20ED108AEFF327
:1001F0000B82734620E9FC0F114A116808604FF02A
:10020000300080F31188BFF34F8FBFF36F8F1FF063
:100210007FF84FF0000080F31188094A11680868E0
:10022000B0E8FC0F13F0100F08BFB0EC108A82F397
:100230000B8880F309881847AFF30080AFF3008084
:10024000DC6A002000000000000000000000000048
:100250001EF0040F0CBFEFF30880EFF30980044990
:10026000084700BFAFF30080AFF30080AFF300801A
:100270003BD8040800000000794BF7B51C6814F067
:10028000010440F0E78041F60B22764E764B7F2149
:10029000C6E90034754B76489A8010221C60B46021
:1002A00052F0CCFB7F22734B1A70734B1B6ADB0737
:1002B00006D440F21B41714B714A724836F056F831
:1002C000214630462EF09EFB054620B940F21F41E4
:1002D0006D4B6B4AF1E72FF0CFFA20B140F223418A
:1002E0006A4B674AE9E74FF00111284651F038FEA2
:1002F00020B140F22741654B614ADEE702212846E2
:1003000051F010FD20B140F22A41604B5C4AD4E725
:1003100028465F492FF00CF920B140F22D415B4B8C
:10032000574ACAE70121284651F012FF20B140F296
:100330003241564B524AC0E70121284651F018FF7E
:1003400020B140F23541514B4D4AB6E738222146A3
:10035000504852F073FB80232246284606F11001D4
:1003600051F007FE802804D040F23C414A4B444AF9
:10037000A3E74A4E01202EF099FB37A3D3E90023CF
:1003800035602846CDE900234FF0FF324FF0FF33B0
:1003900051F003FD014620B140F27E313B4B404A13
:1003A0008BE7324820F082FC0121084620F0F2FC65
:1003B0000121306851F058FC054620B140F2CC4193
:1003C000324B384A79E701464FF40862364852F01A
:1003D00035FB364B36490A198834B4F5086F9D80D1
:1003E0004FF0000743F8282BF5D1324B324A9D805D
:1003F0001A60324B324A6FF063001A60314A9D80B6
:100400001770314A5A6112F05DFB0B2020F00AFC94
:100410002E4B186020B940F2E4412D4B214A4CE7A5
:1004200027F082FF002020F0A7FD08223068114647
:1004300051F0B5FC20B140F2E941264B194A3CE7A6
:1004400021F080FE244B25481F7003B0BDE8F0402A
:1004500046F05DB803B0F0BD0BE020FF22020000C3
:10046000C4760020D076002015110208C87600203E
:10047000135D0120045D01200080E00F7278050803
:100480000C7A05086D7305088B780508CD72050890
:10049000287B05086C7700209A780508C076002034
:1004A000FF790508A57A0508A47700205060002090
:1004B000AC77002028600020245D0120D06200205D
:1004C000A65D0120A35D0120F8620020687700206E
:1004D000D2780508ED780508075D012071790508D7
:1004E0002DE9F04F456A044610EE10AA2DED048B5D
:1004F00093B057EC106BDDF88080BB4606910992F3
:100500000C9375B9102035F0A9FF0246606220B93E
:10051000A74BEA21A74835F029FFC0E9015505603E
:10052000C560636A196851B15A6801232046934037
:100530004A608B6037F010F8636A00221A603B1E35
:10054000ADBF0023012223F0004BC8F800309A4BC6
:10055000B8BFC8F8002033EA0B031BD142F20F7377
:100560000C9A1360CBF31303334300F08F85219B68
:1005700063B9924B22E0924B01930833219A1360A6
:10058000019813B0BDEC048BBDE8F08F8B4B019349
:100590000333F3E7002200235046594638F088F829
:1005A00080464BEC19AB58B101230C9A1360219B88
:1005B000002B00F0688583481860431E0193DFE735
:1005C000CBF30A5510AA11A920464BEC10AB37F01B
:1005D00045FA08EE100A002D00F0828019EE903ADC
:1005E0005646A5F2FF35CDF83880C3F3130343F028
:1005F0007F5747F440170022734B3046394637F097
:1006000037FC65A3D3E9002337F0EAFD64A3D3E9FF
:10061000002337F02FFC06460F46284637F076FDBC
:1006200061A3D3E9002337F0DBFD02460B463046D9
:10063000394637F01FFC06460F4638F081F8002295
:10064000009000233046394638F03CF850B100980D
:1006500037F05CFD32463B4638F02AF810B9009B73
:10066000013B0093009B162B59D8009A574B03EB84
:10067000C20351EC190BD3E9002338F023F800280A
:100680004FD0009B013B009300230B93109B5D1BFD
:100690006B1E059349BFC5F101030023049300239A
:1006A00054BF04930593009B002B3CDB059B009AF1
:1006B00013440A92059300230793069B092B00F22B
:1006C0008980052BC5BF043B002501250693069BA9
:1006D000023B032B00F28980DFE803F02E3B395AFE
:1006E000DDE910531D4405F23243202BC6BFC3F190
:1006F000400305F21240C3F1200305F1FF35C5BFE9
:100700000BFA03F326FA00F006FA03F0184337F069
:10071000EDFC01230646A1F1F8770E936BE7012368
:10072000B3E70B90B2E7049B009A9B1A04935342E1
:10073000079300230A93C0E700230893099B002B2B
:1007400056DC01231A46CDE9023309920CE001235D
:10075000F3E70023099A0893009B134402930133A3
:10076000012B0393B8BF01230022606A4260042278
:1007700002F1140641689E423ED9204636F0ACFE96
:10078000019000283CD1124B02464FF4D571C1E6CE
:100790000123DFE7AFF3008061436F63A787D23F98
:1007A000B3C8608B288AC63FFB799F501344D33F60
:1007B000879907089E9907080000F07F839907082A
:1007C0007A990708569807080000F83F389B0708F1
:1007D0001B9A070801250023089506934FF0FF3365
:1007E0000022CDE902331223AFE701230893F5E796
:1007F000099BCDE90233B7E7013152004160B7E709
:10080000636A019A1A60039B0E2B00F29D80002DF3
:1008100000F09A80009B002B32DD03F00F03B64AF4
:1008200002EBC303D3E90089009BD8054FEA2317E5
:1008300016D5B24B07F00F070325D3E9082351EC77
:10084000190B37F0F7FD82468B46AC4E57B942463E
:100850004B465046594637F0EDFD82468B4628E020
:100860000225F2E7F90708D5404649460135D6E9A1
:10087000002337F0B5FC804689467F100836E5E74F
:1008800000F09B80009B02259C4F5E429A4B06F035
:100890000F02361103EBC20351EC190BD3E900230D
:1008A00037F09EFC002382468B46002E7AD1002B27
:1008B000D3D10B9B002B00F082800022904B50463E
:1008C000594637F0FFFE002879D0039B002B76D0E5
:1008D000029B002B36DD009B5046594600225F1ECE
:1008E000884B37F07DFC013582468B46029E2846B8
:1008F000D04637F00BFC52465B46D94637F070FCC9
:100900000022814B37F0B6FA8246A1F1507B002ECF
:1009100058D100227D4B4046494637F0A9FA52464D
:100920005B468046894637F0EBFE002840F0938214
:1009300052460BF100434046494637F0C3FE0028BB
:1009400040F087825BEC19AB119B002BC0F2488111
:10095000009A0E2A00F34481674B03EBC203D3E9EC
:100960000089099B002B80F2D580039B002B00F3AC
:10097000D18040F06D820022644B4046494637F0FA
:100980002FFC52465B4637F0B1FE039E37460028E7
:1009900040F043823123019D05F8013B009B013368
:1009A00000933EE2F20705D50135D7E9002337F081
:1009B00017FC01237610083777E7022579E7009FB7
:1009C000039E94E701994C4B314403EBC6030D9110
:1009D000089953E90223002943D000204C4937F0FD
:1009E00029FD52465B4637F043FA019D82468B460D
:1009F0004946404637F0A4FE064637F087FB0246DC
:100A000030360B464046494637F032FA52465B468E
:100A100005F8016B8046894637F054FE002863D103
:100A200042464B460020364937F022FA52465B4692
:100A300037F048FE002840F0B5800D9B9D4281D0E4
:100A40000022304B5046594637F0CAFB00228246FE
:100A50008B46404649462B4B37F0C2FB80468946C1
:100A6000C6E75046594637F0BBFB0D9B82468B4686
:100A7000019D0F934946404637F062FE064637F027
:100A800045FB02460B4640464946303637F0F0F902
:100A90000D9B05F8016B80469D4289464FF0000290
:100AA00024D11B4B5046594637F0E4F902460B4619
:100AB0004046494637F024FE002873D152465B4633
:100AC0000020134937F0D4F902460B464046494608
:100AD00037F0F8FD00283FF435AF0F9D6B1E0F93E4
:100AE00015F8013C302BF8D0009749E0054B37F062
:100AF00077FB80468946BDE7389B0708109B0708AF
:100B00000000F03F0000244000001C4000001440A2
:100B10000000E03F56465F46019D42464B46304648
:100B2000394637F087FC37F00BFE824637F0EEFA95
:100B300042464B4637F054FB024630460AF1300637
:100B40000B46394637F094F905F8016B019E0246D1
:100B5000039F0B46AE1BB74235D137F08BF94246A7
:100B60004B4606460F4637F0CBFDD0B942464B46C2
:100B70003046394637F09CFD10B11AF0010F10D104
:100B8000204618EE101A36F0E7FC002300982B7070
:100B900001300C9B1860219B002B3FF4F1AC1D60D1
:100BA000EEE4009F2B461D4613F8012D392A06D18D
:100BB000019A9A42F7D13022019901370A701A78C6
:100BC00001321A7090E70022A44B37F009FB002293
:100BD000002306460F4637F06BFD00289DD0CFE777
:100BE000089A002A00F0D580069A012A00F3B980FD
:100BF0000E9A002A00F0B18003F23343079E049D51
:100C0000049A012120461A440492059A1A44059236
:100C100036F00CFD0746002D0CDD059B002B09DD91
:100C2000AB42049AA8BF2B46D21AED1A0492059A39
:100C3000D31A0593079B1BB3089B002B00F0AD80D4
:100C4000002E13DD39463246204636F0ADFD18EE53
:100C5000102A01460746204636F0FEFC804618EE74
:100C6000101A204608EE108A36F076FC079B9A1B75
:100C700006D018EE101A204636F096FD08EE100A3F
:100C80000121204636F0D2FC0A9B0646002B40F399
:100C900086801A460146204636F086FD069B0646AB
:100CA000012B7FDD4FF00008336906EB83031869E1
:100CB00052F0B3F9C0F12000059B184410F01F005A
:100CC00000F09180C0F12003042B40F38980C0F133
:100CD0001C00049B054403440493059B03440593B3
:100CE000049B002B07DD18EE101A1A46204636F03A
:100CF000B5FD08EE100A059B002B05DD31461A46AE
:100D0000204636F0ABFD06460B9B002B6DD03146DE
:100D100018EE100A52F0D0F9002866DA009B18EE9F
:100D2000101A0A222046013B0093002336F036FCBD
:100D3000089B08EE100A002B00F0AF810023394613
:100D40000A22204636F02AFC029B0746002B00F3BD
:100D50008D80069B022B50DC88E0109BC3F136038C
:100D60004CE7039B5E1E079BB342B7BF079B9E1BCE
:100D70000796F21ABFBF0A9B00269B180A93039B93
:100D8000002BB7BFDDE90323DDE903359D1A0023FE
:100D900036E7079E049D089F3DE7079A69E7069B93
:100DA000012B18DCBAF1000F15D1CBF3130393B963
:100DB0002BF000431B0D1B0583B1049B4FF0010872
:100DC00001330493059B013305930A9B002B7FF4A9
:100DD0006BAF012070E74FF00008F6E79846F4E7A4
:100DE0003FF47EAF18461C3073E7039B002B37DCC3
:100DF000069B022B34DD039B0293029B6BB93146A9
:100E00000522204636F0CAFB0146064618EE100AB7
:100E100052F052F900283FF7BDAD099B019DDB431D
:100E200000934FF000083146204636F095FB002F26
:100E30003FF4A6AEB8F1000F05D0B84503D0414647
:100E4000204636F089FB3946204636F085FB97E68A
:100E500000263746E1E7009737469BE5000024402F
:100E6000089B002B00F0CA80039B0293002D05DD38
:100E700039462A46204636F0F1FC0746B8F1000F05
:100E80005BD07968204636F027FB054628B9874BAA
:100E9000024640F2EA21FFF73DBB3A6907F10C0137
:100EA0000C300232920051F0A2FD01222946204668
:100EB00036F0D4FC019BB846074603F10109DDE991
:100EC0000123134405930AF001030493314618EEFD
:100ED000100A51F0A8FF4146029000F1300A18EEC6
:100EE000100A09F1FF3B52F0E7F83A460390314609
:100EF000204636F023FDC268054602BB014618EEC7
:100F0000100A52F0D9F8024629462046079236F0D8
:100F100023FB4D46DDE9063243EA0201049B0B4305
:100F20000FD1BAF1390F2AD0039B002B02DD029BAF
:100F300003F1310A8BF800A075E73846BAE70122C1
:100F4000E2E7039B002B04DB06990B4304990B4358
:100F500022D1002AEEDD18EE101A0122204636F0CA
:100F60007DFC314608EE100A52F0A6F8002803DC9A
:100F7000E0D11AF0010FDDD0BAF1390FD7D1392302
:100F80008BF800302B461D46013B15F8012C392A01
:100F900070D001321A7046E7002A07DDBAF1390F26
:100FA000EDD00AF101038BF800303CE7059B09F80E
:100FB00001AC994546D018EE101A00230A222046AB
:100FC00036F0ECFAB84508EE100A4FF000034FF087
:100FD0000A024146204606D136F0E0FA804607462E
:100FE00009F1010972E736F0D9FA39468046002343
:100FF0000A22204636F0D2FA0746F1E7039B029315
:10100000019D314618EE100A51F00DFF019B00F1D1
:10101000300A05F801ABEA1A029B934209DD18EE8B
:10102000101A00230A22204636F0B8FA08EE100AF9
:10103000E7E7029B4FF00008002BCCBF1D460125BF
:10104000019B1D4418EE101A0122204636F006FCC2
:10105000314608EE100A52F02FF8002892DC02D137
:101060001AF0010F8ED12B461D4613F8012D302AA0
:10107000FAD0D8E6019A9A4285D1009B01330093B9
:1010800031231370CFE60A4BFFF798BA219B002B50
:101090007FF471AA074BFFF791BA029B002BAFDCDC
:1010A000069B022B3FF7A9AEAAE700BF1B9A0708D1
:1010B000559807087A99070810B5054C237833B975
:1010C000044B13B1044800E000BF0123237010BD9E
:1010D0008065002000000000149C070808B5034B41
:1010E0001BB10349034800E000BF08BD0000000039
:1010F00084650020149C0708A3F5803A704700BF60
:10110000174B002B08BF134B9D46FFF7F5FF00213F
:101110008B460F461348144A121A51F08FFC0E4B9F
:10112000002B00D098470D4B002B00D09847002093
:10113000002104000D000D48002802D00C4800E0FA
:1011400000BF35F05FF9200029002AF0E3FE35F0FA
:1011500033F900BF0000080000000000000000009C
:1011600000120020A81B0020706C0120000000006D
:101170000000000008B5134BA8220021184651F0CA
:101180005DFC032210490261426100F1A802816105
:10119000C2614FF4407202620022034682624262E0
:1011A000C262016600F56A7141660849826602679B
:1011B000C266426711F8010998540132102AF9D128
:1011C00008BD00BF001800200033050818330508CB
:1011D00070B5182400FB0445144B16461D4404FB4F
:1011E0000033DC6A012C0ED0022C18D0E4B928465A
:1011F00037F000FB864204D83246284637F003FB1E
:101200003446204670BD284637F0F4FA864234460C
:1012100028BF04462846224637F0F5FAF1E728466B
:10122000BDE8704037F00BBB0024EAE7001800204F
:1012300070B50D4C054623780E460BB9FFF79AFFA3
:10124000022D0DD8EFF311834FF0200181F31188A7
:10125000182000FB0544E66283F31188002070BD6E
:101260004FF0FF30FBE700BF0018002000220146CE
:1012700030B50C4CC0E90022002541F8084F00248D
:101280000262426AC0E9064502F4400242F07C5222
:1012900042F47C124262028D016102F0FE0202857C
:1012A00030BD00BF7D13000890F8273070B55B0695
:1012B00004462CD5164B256993F8996008304EB931
:1012C000854224D00BF0EEFE31462046BDE870404A
:1012D00037F0DEBA85421AD11FF076F900220023DA
:1012E000C4E90623626A0B4B2062134043F00043BB
:1012F00043F48073636294F8283028466FF3000348
:1013000084F828300221BDE8704043F0F6B870BD83
:10131000A83B00200000FF7F90F8273070B55B06E7
:10132000044628D5144820F021FD7F2805460ED01C
:1013300094F92960B042B4BF00210121204637F062
:10134000EBFAB54203DA4FF48073A38405E0A38C73
:10135000032B4FEA53020CD9A28404210020A58C50
:1013600042F06AFF291804F10800BDE8704043F01C
:10137000C4B80223E9E770BDA81B00200148FFF7AD
:10138000CBBF00BF704500202DE9F84F0F46164631
:1013900083460025DFF8949002F1FF3AD8461BF807
:1013A000014BA4B35C2C24D19BF80020A2F10903CB
:1013B000DBB2172B0DD95C2A0FD1404651F0D7FC78
:1013C00059460246404651F01FFB1BF8013C23B929
:1013D000E4E729FA03F3DB07EFD41DB11BF8023C65
:1013E000002BDBD1554511D06B1C47F82580DDB2B1
:1013F000D4E7093CE4B2172CEFD829FA04F4E4430B
:1014000014F00104E9D10BF8014CC7E70724721B63
:10141000D2B29200B54288BF0022002107EB8500BE
:1014200051F00CFB2046BDE8F88F00BF1300800090
:101430002DE9F3470E46044608B30378302B18D144
:10144000437803F0DF03582B13D101270234002225
:101450004FF0993915464FF00A08DFF870A0207850
:101460004FB10DF1070137F08DFAA8B102B0BDE818
:10147000F0870027EBE73038C0B2092801D90720F0
:10148000F4E791457AEB05038DF80700F7D3A2FB4B
:10149000082308FB053306E0B5F1805FEFD22B018E
:1014A00043EA127312019DF807100020891853F1C6
:1014B000000328BF01200A461D460028DFD114F88A
:1014C000010F0028CBD1C6E90013CFE799999919EC
:1014D0004FF6FF7210B500230264024604460A4923
:1014E000C0E90E3380F84430836442F84C1F4265F3
:1014F000064A0366C0E9162000F1580104483DF091
:1015000001F9204610BD00BFF1150008B18D030898
:1015100018320020F0B58DB004461FF055F80023B6
:101520000646CDE909330B93234601AD04F11007BC
:101530002A4618685968083303C2BB421546F7D1DA
:1015400005AD03F110072A4618685968083303C22D
:10155000BB421546F7D194F8363094F837208DF811
:101560002C309DF82D30204862F3C3038DF82D30C8
:1015700006F046FF054640B3304637F02AFB04220A
:1015800000906946284642F05DFB88B9A18DEB8B3F
:101590008B4211D315482946B0F8743601AAA4F835
:1015A0004A3000F5CE60B4F8483006F02FFF48B15D
:1015B000284642F00EFA08E0284642F00EFA0028CB
:1015C000E8D0F5E7238F01332387E38D04F14C0046
:1015D000013B9BB2E38523B1216B42F08EFF0DB03E
:1015E000F0BDA18EF9E700BF18320020A82B002023
:1015F000014837F04FBB00BF784D002043680BB166
:101600000148184718467047A81B002010B50A4625
:101610000C468AB0202307210B480BF08FFC80B1C9
:10162000202120464DF003F818B1202120464CF02F
:10163000FEFF2023224600930721034802AB0BF054
:101640008DFC0AB010BD00BFE41B00202DE9F04165
:10165000CEB01F46549C2E4B05460E469046039333
:10166000002C47D0237814A88DF80B3041F00CFEE5
:10167000284604A9FFF7CAFF4FF48075BFB214A82B
:1016800041F017FE327C31460732D20814A841F0EF
:1016900016FEB8F1000F04D03A46414614A841F0B6
:1016A0000EFE042203A914A841F009FE01220DF147
:1016B0000B0114A841F003FE202204A914A841F054
:1016C000FEFD0CA914A841F01DFE06F108000CA9AE
:1016D00001903DF0BCFB01983DF01EFC60B19DF80F
:1016E0000B30013D0133ADB28DF80B30002DC6D16A
:1016F000012406E02346B6E71CB19DF80B302370A9
:10170000044614A841F0CDFD20464EB0BDE8F0815E
:101710007770616E2DE9F047044688070E468AB05F
:1017200036D54FF00009474F04F1080504F1680869
:1017300007F53F6A45452BD0AB7C99071DD523782B
:10174000EBB1CDF80C90504604AA03A93AF0AAFADE
:10175000A8B99DF822305A07F5D49DF821301B070F
:10176000F1D5204604A9FFF749FF0028EBD129460F
:1017700004A837F02BFB0028E5D01835DAE7294616
:1017800038463DF00AFFAB7C6FF34103AB74F4E7DE
:10179000F50753D52378002B50D000232A4E2B4F2A
:1017A0000393A6F53F68304604AA03A93AF07AFAF3
:1017B000002843D19DF822305807F4D49DF82130F9
:1017C0001907F0D59DF82030402BECD1204604A914
:1017D000FFF714FF0028E6D1D7F814571DB32946A8
:1017E00004A837F0F3FA0028DDD16D69F6E79DF81B
:1017F00021202846D3090CBF80219DF82010C2F378
:1018000080023DF09EFF284604A93DF012FC002313
:1018100029461A4620460093FFF718FF29464046FE
:101820003DF0ADFEBFE704F1080504F168039D42F9
:10183000B9D0AA7C9207DAD51835F8E70AB0BDE826
:10184000F08700BFBC320020AC3E0020A82B002057
:1018500030B501F1310323F001035D780C46022D10
:1018600087B032D11B7813F0300F05D11378FF2BDE
:1018700002D0194843F087FE10230021204602AA17
:1018800042F0C2FF08BB08236A460321204642F00B
:10189000BBFFD0B9114B124DD3F81447ACB1102295
:1018A000204602A951F093F828B908226946284633
:1018B00051F08DF808B96469F0E72146094844F011
:1018C000E7FA20B1084837F02CFC07B030BD2146BC
:1018D00006483DF062FEF8E79C330020A82B00206C
:1018E000D03D0020A0450020C8450020BC3200208B
:1018F000014800F01BB800BF2446002010B5044684
:10190000024A37F0BEFA204610BD00BFF1180008A9
:10191000054A0160D2F8B02E1140016009B937F0D4
:10192000BBBA37F0C1BA00BFA82B002070B505467E
:101930000446002215F80B1F114839F021FDFF263F
:10194000294620463FF0DBFE08B1E672F8E7E27A6E
:10195000237B9A420AD02189606842F07CFC0146D0
:1019600004F11000BDE8704042F0C7BDA37A002B1F
:10197000F1D0013BDBB2A372002BECD170BD00BFF4
:10198000203C00200148FFF7D1BF00BFDC4D002004
:10199000002310B5C0E900338360FF2303730346BF
:1019A000064A044643F8102F8361054A1C300BF0A9
:1019B000C1FB4FF4FA732046238110BD851900083E
:1019C000C5190008014837F0ADBA00BFDC4D002052
:1019D0000A4B13B593F89930022B04D802B0BDE836
:1019E000104037F095BA08230093054B00211A46A2
:1019F0001C3042F098FF02B010BD00BFA83B002091
:101A0000807F0A00024B93F8AE3E037337F04CBA66
:101A1000A82B0020002313B5044601A90C4801930C
:101A200008F03CFE88B9019979B123688B420CD04B
:101A30002046FFF76DFF01A83FF074FE054BB3FB96
:101A4000F0F060602046FFF7DDFF02B010BD00BF80
:101A500034390020C13F050043888B4208D04180C3
:101A6000044890F89930022B02D1783039F0D8BE72
:101A7000704700BFA83B002038B5044634F8083B47
:101A8000054683B10A4890F8993063B10C3001F0F3
:101A9000A9F940B94FF47A712B8820465943BDE823
:101AA000384042F02ABD2046BDE838400BF0FABA73
:101AB000A83B00204FF4010310B503600346044621
:101AC000044ABE2143F8082F036137F047FA204645
:101AD00010BD00BF491B000838B500F108030446DB
:101AE0000069984212D08AB1094D95F89930022BBD
:101AF0000CD105F1D40001223AF0BBF89C358542A7
:101B000004D12046BDE83840FFF7B6BF38BD00BF5E
:101B1000A83B002038B50B4D044695F89930022BB0
:101B20000BD105F10C0001F05DF930B9A38805F186
:101B300078000133A38039F073FE2046BDE83840B9
:101B4000FFF79ABFA83B00200148FFF7E3BF00BFA3
:101B50001046002000220B4910B5C0E902120146D0
:101B6000094CC0E9002241F8104FC0E90612026298
:101B700080F82420828590F86E2022F0030280F8FD
:101B80006E2010BD651E0008A11E00082DE9F04161
:101B9000DFF8D4810E4698F8F01798B017461C4627
:101BA00005469DF878201F9B002900F0CE8090F814
:101BB0002410002940F0CB8090F86E1062F30001F1
:101BC00080F86E107AB1002B48D106A9A8F5805094
:101BD0001FF0F8FD06A908463FF0CBFB05F11C01FC
:101BE00006A83FF094FB209B2B60219B6B6095F82F
:101BF0006E306FF3410385F86E30D8F8B02E2A624C
:101C000033680BB11A402A621021544839F0ADFAFA
:101C10000646002800F09D8080238DF804300223C2
:101C20008DF80530002387848DF80730CCB9402328
:101C300095F82D208DF80630F2B1F1238DF818308B
:101C4000AB6A402A4FEA13418DF81A104FEA13216C
:101C50008DF81B108DF81C3005D9FEE71868E86177
:101C6000C1E74823E4E7D31C05F12E010DF11D0067
:101C70008DF8193050F0BBFE1A2301A88DF8003002
:101C800042F080FCC4B295F82D0018B106A842F0CD
:101C900079FCC0B204440222694630468DF8014006
:101CA00041F0D0FF044688B9314601A842F07DFCDE
:101CB000044658B995F82D3063B902A806F0DCFF48
:101CC000304602A902F01EFB044658B1304641F0EE
:101CD00080FE36E0314606A842F067FC0446002844
:101CE000EBD0F3E74FF6FF739F420FD1B8F8AC3E4D
:101CF000BB420BD140F022FF0146194809F05CFCC1
:101D000095F86E3043F0020385F86E30FF232946C4
:101D100005F1200001F82C3F3FF0F1FC00280CBF3A
:101D2000012302230F4885F8243090F8994044B1EC
:101D300090F8D84014F008040DD101210C3001F0C6
:101D400059F8204618B0BDE8F0810D24F9E70524C4
:101D5000F7E70324F5E70024F3E700BF203C002069
:101D60004C3A0020A83B0020A82B002090F82430FB
:101D700010B5012B0C4606D013F0FD0F14BF0C4616
:101D80000024204610BD90F82C308B7181F8223051
:101D900090F82C10014840F008F8F2E74C3A002087
:101DA00010B50446184890F899303BB190F8D81017
:101DB00011F0080102D10C3001F01CF894F8243025
:101DC000012B02D0022B07D010BD04F110000BF044
:101DD00069F90E4838F098FE0D483FF0F8FF94F886
:101DE0006E309B070AD54FF6FF71094809F0E4FBF6
:101DF00094F86E306FF3410384F86E3004F10800FC
:101E0000BDE810400BF0EAB8A83B0020B43B00202E
:101E10004C3A002038B590F824300546012B0C468A
:101E200002D0022B18D038BD91F82C3043F080033B
:101E300081F82C301EF0C8FB094AA06192F84030AE
:101E400005F1100043F0040382F840304FF496711E
:101E5000BDE8384042F051BBBDE83840FFF7A0BFB5
:101E6000A83B0020014837F080B800BF383E002072
:101E700090F8243010B5012B04460DD100F12C014F
:101E800020303FF03CFC10B1022384F8243003489A
:101E9000BDE8104038F038BE10BD00BFB43B002094
:101EA0000148FFF7E5BF00BF383E002038B50025E8
:101EB0000446084B85604360838B857703F0FE03FF
:101EC0008383056245642C303DF032FC2046656218
:101ED000A56238BD65230008002313B504468DF8BC
:101EE000043008210123054801AA0BF027F810B996
:101EF0009DF80430A37702B010BD00BFE41B0020A2
:101F00001FB5837F08218DF80830012302AA0093B2
:101F1000034803AB0BF022F805B05DF804FB00BFEB
:101F2000E41B002030B5837F85B08DF80F300DF1B4
:101F30000F030093002300F12C0104461A460848C1
:101F4000FFF784FB054640B99DF80F30A27F9A4207
:101F500003D02046A377FFF7D3FF284605B030BD56
:101F600014350020012310B5437704461EF02CFBE6
:101F700004F12C0120620248BDE810403DF0FFBA98
:101F8000BC320020437F10B5022B044607D1037FEB
:101F9000DB0704D502460949094842F0AFFE00229A
:101FA00094F83E30627762F3000384F83E3004F127
:101FB0002C010448BDE810403DF0EFBA319203080F
:101FC0009C330020BC32002070B5044608460D4604
:101FD0003CF0A2FF18BB04F1240630463CF017FF8A
:101FE00038B908222946304650F0F1FC08B90020E3
:101FF00070BD33462868696803C30A4804F12C01A0
:102000003DF070FB0028F2D02046FFF7BBFF636A6B
:10201000204663637368A363FFF7A4FFE7E7072025
:10202000E6E700BFBC32002038B54B1E012B04464A
:102030000D4611D8037FDB0704D502461E491F4811
:1020400042F05CFE2046FFF79DFF022D08D11C4D9B
:1020500095F8143A6BB9FEE7032902D00029F6D0AF
:1020600038BD00F12C0117483DF03CFB0028EED0B4
:10207000F6E784F83C3004F12C03102200211846C6
:1020800050F0DCFC05F6042104F124053CF0D1FFFE
:1020900028463CF0BCFE40B9636A6363A36AA3634D
:1020A0002046BDE83840FFF75DBF2046FFF73AFF06
:1020B0000028F5D0D4E700BF319203089C330020FC
:1020C000A83B0020BC32002070B500F12405044676
:1020D00028463CF09CFED0B90822294604F1340081
:1020E00004F12C0650F073FC70B9314608483DF0FD
:1020F000F9FA48B12046FFF745FF2046FFF712FFE7
:1021000010B92046FFF72EFF002363626B6070BD9D
:10211000BC320020436C052102480BB942F078B96B
:1021200042F05EB9D41B00201FB5044601A90B483C
:1021300043F099FE80B9BDF806100120012901D9AC
:1021400042F069F8B4F844300BB1834204D9A4F8E2
:1021500044002046FFF7DEFF04B010BDA04500207C
:1021600030B50D46A905044687B00ED5134914486D
:102170003DF0B8FA48B1114901AAA1F5E96004F0AF
:102180005FFB10B12046FFF7FDFE0E4838F051FE10
:1021900010B9606407B030BD6A0706D50A4B93F8E2
:1021A0006D3113B12046FFF7BFFFEB07F2D50121D8
:1021B000204607B0BDE8304036F0C4BFF4450020EB
:1021C000BC320020203C0020A83B002001F0FD0193
:1021D000012910B504460DD1074890F8D8309B0767
:1021E00003D49C3036F092FF20B12046BDE8104069
:1021F000FFF79ABF10BD00BFA83B0020F0B593B019
:1022000004462C22002107A850F018FC4FF2BF030F
:102210004B48ADF83E3038F00CFE20B34FF6FE735D
:10222000484EB6F8F8299A421DD0237FD9071AD410
:1022300096F8D8309A0704D406F19C0036F066FF71
:1022400088B1637F012B0ED194F847305BB925210B
:102250003D4842F035FC054638B90521204636F0A8
:102260007BFF002D68D113B0F0BD637F012B25D11A
:1022700094F8473013BB03AF3A4604F12C0304F142
:102280003C0EBC46186859680833ACE80300734537
:102290006746F6D110230021284642F0D0FA0028E4
:1022A00048D1082303212846284A42F0C8FA0028CA
:1022B00040D1022363771EF087F9206296F8D83068
:1022C0009B0703D4224836F021FF28BBB6F8F82933
:1022D00020490BA83CF0B8FE07A805F0BBFA294638
:1022E0001D4B1948009407AA0AF09CFF074608BB3B
:1022F000237F04F10C0543F00103237703AB0FCBDD
:1023000085E80F00676496F8D81011F00801AAD18B
:1023100012483FF0D9FAA6E711480DF10B010AF077
:10232000E7FF38B99DF80B1005480BAA38F0ABFD54
:102330000028D1D0032890D0284641F04AFB92E7EC
:10234000203C0020A83B00209C330020D03D0020F2
:10235000443C0020E03D002031920308043C002072
:10236000A04500200148FFF749BF00BFC845002035
:1023700070B501F1310323F0010393F901300546F3
:10238000002B0E4686B01EDA062306AC8DF8073009
:1023900000F10C030FCB04E90F00284802A943F019
:1023A00077FD002848D0264802A93DF09BF9044655
:1023B000D0B19DF80740062C30D8DFE804F0192191
:1023C000313539393900042130460DF1070242F028
:1023D000E5F9044640B901461023304602AA42F00E
:1023E00013FA04460028D8D02846FFF793FE04E0ED
:1023F0001EF0EAF8032328626B77204606B070BD12
:102400000F4805F12C013DF06DF904460028F4D089
:102410002846FFF7B7FD2846FFF7A4FD0024ECE7A8
:102420002846FFF7AFFDF9E7284636F07AFEF5E7D4
:102430002846FFF779FEF1E70224D5E7A045002002
:10244000BC32002038B501F1310323F00103054609
:1024500058780C4602280CD11B7813F0300F02D1AB
:10246000044843F090F821462846BDE83840FFF77D
:102470007FBF38BD9C3300200022C0E90422826166
:10248000027702620246024942F8241FC262704784
:102490002D2600082DE9F04101F1310828F001084E
:1024A00098F801300446022B0D46164686B06FD1CF
:1024B000362128460DF1070242F070F9002867D155
:1024C0003721284603AA42F07BF9002860D1382141
:1024D00028460DF10E0242F073F9002858D1284623
:1024E00008F036FE0746002852D0206A08B141F0B5
:1024F00070FA1221284842F0E3FA2062002847D0FF
:1025000035238DF8103006238DF81130002339461D
:1025100004A8CDF81230ADF8163008F0D1FD216ACC
:1025200004A842F042F898BB39230222206A02A98B
:102530008DF8083041F086FB50BB9DF80730C4E9A8
:1025400004772377BDF80C3060772383BDF80E3015
:102550004FF47A71638304F1240041F0CEFF06F159
:10256000200706F11003224618685968083303C291
:10257000BB421446F7D198F8003013F0300F07D162
:102580003378FF2B04D032462946034842F0FBFF44
:1025900006B0BDE8F08100BF9C33002010B58CB0C0
:1025A00004462C22002101A850F048FA4FF2BF0344
:1025B000206AADF82630C18B637F0139C91A04F156
:1025C0001D02012389B241F01AFB214601A83AF00D
:1025D0001FF9216A064801AA42F073FF18B1206A68
:1025E00008B141F0F6F9002323620CB010BD00BF22
:1025F0009C330020036A07B5024653B1037F5BB1E9
:102600004169009248420140064B528B06483FF018
:1026100089FA03B05DF804FB03B05DF804EBFFF743
:10262000BDBF00BF9B9203084C3A00200148FFF752
:10263000E1BF00BF6446002038B58B05044610D5C5
:10264000036A73B1074839F0FAFD054648B9206AB4
:1026500041F0BFF9256204F12400BDE838400AF0DA
:1026600021BD38BDAC3E002038B50024054D2146C3
:1026700005F1A800C5F8B44040F08AFAC5E92B443A
:1026800038BD00BFA83B002070B50646E0B004A8E6
:102690000C46154640F0C7FD0023326801A904A886
:1026A0000193ADF80830039240F0D3FD230E8DF86E
:1026B0000030230C69468DF8013004A8230A042257
:1026C0008DF802308DF8034040F0C9FD062204A8C1
:1026D000054940F0C4FD294604A840F0C6FD04A801
:1026E00040F0AFFD60B070BD1A33050870B5044608
:1026F00096B041680EAAFFF7C7FF02AD0EA90022EF
:1027000004F1080040F06CFA284636F0D0FD0AAE1D
:1027100006A836F0CCFD304636F0C9FD284612A991
:10272000012240F05DFA616820460EAA0139FFF7E8
:10273000ABFF12A906A8012240F052FA61682046B8
:102740000EAA0131FFF7A0FF304612A9012240F086
:1027500047FA6268082102F07F02CDE9005603487B
:1027600006AB013209F052FF16B070BD743A00207A
:1027700013B50C462830019240F00AFA2146019A1E
:10278000024802B0BDE810400AF02EB8743A0020AA
:10279000836A994207D3036B01319942816202D364
:1027A000014802F07DBD7047203C0020C36A426BA7
:1027B00001339342C36202D3014802F071BD7047F6
:1027C000203C002038B50B8804460D46A3B10422F6
:1027D000683050F0FCF830B9BDE838404FF4801153
:1027E000064841F0FABC2B684FF48011A3660348F9
:1027F000BDE8384041F0E5BC38BD00BFBC1B00203F
:10280000002302498363443041F077BE80EE3600F6
:1028100038B5436804468B420D4606D1BDE83840C2
:102820004FF48071144841F0D8BC01338B4210D171
:10283000C26C00F144039A420BD090F840302BB1A7
:10284000D0E90E239A4216D3FFF7DAFF012384F86A
:10285000403020466560FFF749FF002220461146C0
:10286000FFF786FF00234FF48071E3620248BDE862
:10287000384041F0A6BC38BDBC1B002010B5044652
:10288000836B0A4A01338363816C443041F02FFE2D
:10289000B4F86830A26B9A4206D361682046BDE85E
:1028A00010400131FFF7B4BF10BD00BF80EE36000D
:1028B0000148FFF7E3BF00BFD839002030B5044618
:1028C000114887B00D4605907AB1059836F0EAFCBC
:1028D00010230222CDE9015301231146009305A8DC
:1028E00009231DF069FF20B1FEE74BF002FE00282E
:1028F000EBD02068059B984201D036F0D3FC059BB5
:10290000236007B030BD00BF0100020030B50025D4
:10291000044685B04560083036F0C9FC04F1180063
:1029200036F0C5FC4FF41C73E3632346174AC4E931
:102930000B55C4E90D5584F8405043F8442FE36427
:1029400004F1540036F0B3FC04F16800656636F01B
:10295000BFFC94F86C3065F3000384F86C304BF0E6
:10296000B8FD4FF0004310212360236568464BF00B
:102970005EFE2A4669462046FFF7A0FF04F12800C4
:10298000294640F005F9204605B030BDB1280008C1
:1029900030B503680446002B0D4685B00FDB694651
:1029A00036F061FD10222946684650F010F830B923
:1029B0004FF480210F4841F010FC05B030BD0122DA
:1029C00029462046FFF77AFF4FF48021094841F05D
:1029D000F8FB4FF48071074841F0F3FB00232046D9
:1029E0006360FFF783FE204605B0BDE83040FFF787
:1029F0003BBE00BFBC1B002038B5044600680D4636
:102A0000884206D1BDE838404FF480210C4841F09F
:102A1000E4BB36F047FC4FF480210948256041F0C3
:102A2000D0FB4FF48071064841F0CBFB00232046D9
:102A30006360FFF75BFE2046BDE83840FFF714BE39
:102A4000BC1B002010B50446083040F0C1F804F16A
:102A500054000A4C40F0BCF8204640F0B9F804F1AC
:102A6000100040F0B5F804F1200040F0B1F804F592
:102A70008670BDE8104040F0ABB800BF983A002027
:102A8000002330B5084685B013600D4614468DF816
:102A90000C303CF079FA10B9132005B030BD01A913
:102AA00005F108003CF0F7F90122064801A939F0C8
:102AB000E0F820600028EFD0038C022B8CBF0020B0
:102AC0001B20EAE77C3C0020F0B585B0154601AA42
:102AD0000F461E46FFF7D4FFB0B9CDF809008DF8B8
:102AE0000D008DF8085036B130460DF1090136F071
:102AF0007EFF8DF80D0015B19DF80D3033B93946C4
:102B0000034802AA02F02AFB05B0F0BD0720FBE74C
:102B1000203C00202DE9FF41154601AA0E461F4624
:102B2000DDF82880FFF7ACFF0446F0B90DB30323AE
:102B30008DF80830022338468DF809308DF80A5098
:102B400036F076FF8DF80B00B8F1000F04D0404648
:102B500003A936F04CFF044602343146064802AA67
:102B60008DF8094038F090FC0446204604B0BDE8DA
:102B7000F0810724F9E700BF203C00207FB515460F
:102B800001AA0E461C46FFF77BFFE0B9072305B9F3
:102B9000F4B98DF8083001238DF80A508DF809300A
:102BA00024B120460DF10B0136F021FF01308DF8E4
:102BB00009003146074802AA38F066FC019B24B19F
:102BC000227883F8302004B070BD83F83040FAE7F3
:102BD0001846F8E7203C002070B594B0144603AACC
:102BE0000E461D46FFF74CFF60B9402D0CD8631E02
:102BF000DBB2FD2B08D8224631460448009504ABD1
:102C000038F00AFC14B070BD0720FBE7203C002020
:102C1000107838B51546C2061C4601D5FE2038BDD1
:102C2000012916D1C307F9D48107C0F380030BD45F
:102C30000BB90207F2D52346A28B29780A484BF03C
:102C400029FF0028EBD0E9E7002BF4D00307E5D4F7
:102C5000F1E70029E2D18507E0D44107DED402077D
:102C6000DCD401469A8BE9E7A81B002010B5044686
:102C7000064809F065FC0246204636F059FFBDE8DB
:102C800010400146104636F07CBF00BF743A002069
:102C900002299FBF0A4B0B4A5B5C525C89BF14211F
:102CA00016210A220223814206D3824206D383429E
:102CB0002CBF00200120704703207047022070477E
:102CC000203305082333050810B50648144639F0AB
:102CD000B6F930B12046BDE81040142200214FF073
:102CE000ADBE10BDAC3E002010B50748144603F041
:102CF000A7FD08B9A37C33B92046BDE810401422D3
:102D000000214FF09BBE10BDAC3E002070B50446C4
:102D100000250E46102200214FF090FE94F834302A
:102D2000314623F00F0384F834300D4B2561C4E99C
:102D30000E35E582A56184F8245084F82E50256371
:102D400004F1500008F06CFA0AF0A0F81022A082FA
:102D5000294604F140004FF071FE204670BD00BFCF
:102D6000BD30000810B590F8343004469B0709D4F4
:102D7000012105483EF0E2FF94F8343043F00203AD
:102D800084F8343010BD00BF4C3A002010B590F8E4
:102D9000343004469B071DD550303EF0D5FC002151
:102DA0000D4841F035FB0D48FEF7FAFF204641F093
:102DB000E1F904F1100041F088F8002194F8343072
:102DC000A1616FF3410384F834300548BDE8104039
:102DD0003EF0B4BF10BD00BFD41B0020383E002021
:102DE0004C3A0020024B93F8A40EC0F380007047C9
:102DF000A82B002038B504460D460A483EF09EFF39
:102E000004F1500035B13EF09FFCBDE83840064863
:102E100036F09FB808F09EFABDE83840024836F018
:102E20009BB800BF4C3A002010460020084610B561
:102E30001446114608303CF02EF808222046054979
:102E40004FF0C5FD28B1044BB3F8D03E23800123D9
:102E5000237210BD7A3A0020A82B002038B50B78D9
:102E60000D46FF2B144605D14FF6FF732380012337
:102E7000237238BD064838F0ABFC10B1EB895BBA61
:102E8000F4E7214605F10800BDE838403CF003B8FE
:102E9000203C002070B50C4690F834308AB06FF3B7
:102EA000000380F83430054628236A460021204676
:102EB00040F04DFE9DF80830FF2B2CD0244E2846C4
:102EC00005F11C0202A9FFF7B1FF96F89930012B1A
:102ED0000CD806A83CF058F8C0B1284605F12602E7
:102EE00006A9FFF7BBFF00200AB070BD9DF81820AF
:102EF000FF2A12D006A83CF047F80028EDD196F83A
:102F0000D83003F00A030A2B19D1FEE706A83CF0DB
:102F1000C5F80028E1D10220E6E7022B06D04FF6E3
:102F2000FF73EB84012385F82E30DCE794F82D3015
:102F3000DB07F4D5204640F07DFD0028EFD14FF6A9
:102F4000FF7106F1780038F036F8E884EAE700BF50
:102F5000A83B00209DF800000AB9CA7770470E2AE6
:102F60000DD1CA7F0132D2B2CA7743B18B8BC3F382
:102F7000080323B9904202D8014801F027BD7047E9
:102F8000203C00202DE9F3410F46194690F83430DB
:102F900016469A0705469DF8208004D40024204652
:102FA00002B0BDE8F08101220E4838F062FE04460E
:102FB0000028F3D03B681B789B06F0D51A213846D1
:102FC0003FF0FDFB58B1B8F1000F08D00F2300937C
:102FD0003246012321462846FFF7BCFFDFE70423E2
:102FE000F5E700BF7C3C00202DE9F0410C468AB09B
:102FF00006461DF0E9FA94F82C100746CB09D4F8E0
:1030000018800FD0208C68B911F0070523D129460C
:1030100028236A46204640F09AFD194802A93CF050
:1030200061FB08B1002016E0A7EB0802B2F5FA7FB9
:10303000F8D39DF8013013F0300FC3F301110DD117
:1030400094F82C3030466FF3C713214684F82C30A7
:1030500037F08FFD02200AB0BDE8F081B2F57A7F2B
:10306000EED20329DED023F0300343F030030146D3
:103070008DF801306A462823204640F0C0FDD1E794
:10308000BC32002010B590F8343004461A0712D430
:103090005B0710D437F097FDA06160B1038C2BB9AA
:1030A00090F82D3043F0100380F82D300248BDE831
:1030B00010403EF056BD10BD4C3A00200148FFF7CD
:1030C000E1BF00BFB43B002038B51D46836904460C
:1030D000ABB193F82C20D20900D1FEE741B193F8AF
:1030E0002D206FF3041283F82D208369DB8BC382BC
:1030F000A069E18AC38B8B4207D940F095FC04F1AB
:103100003800BDE8384009F069BF90F82C30002144
:103110006FF3C71380F82C30A06940F085FC4DB1E7
:10312000A369802293F82D1005F12800C1F3001146
:1031300036F0C9FCA16991F82C3058070AD191F8F2
:103140002D30DA064BBF236CA36C013301334CBF27
:103150002364A36491F82C30C3F3C303022B06D07D
:103160000A2B08D02046A16937F003FDC7E70648BF
:10317000FEF750FEF6E791F82D30DB07F2D5034855
:1031800038F044FBEEE700BF383E0020203C002032
:1031900008B537F0BEFD014620B9BDE80840024839
:1031A00041F036B908BD00BFD41B002007B5134657
:1031B00091F82C20520702BF426C01324264002277
:1031C0000348009205F0E8FB03B05DF804FB00BF84
:1031D000F431002030B591B01C4601A8194B3BF0EA
:1031E0004DFD054688B9BDF8040040BAC0F385100E
:1031F00005F0E0F99DF80A3020703A2B08D19DF9CE
:103200002C30002B01DB03232370284611B030BD86
:10321000112BFAD1BDF82E2052BA93B244F64C527B
:103220009342F0D0084807AA03A904F099FB0028AC
:10323000EBD0BDF8040040BAC0F3851039F016FB9E
:103240002070E2E7A81B00209C3300202DE9F0410C
:10325000044603C91D4686B004AF87E803009046C4
:1032600020462A4639460DF10B030C9EFFF7B2FFAC
:10327000044620BB01219DF80B2003A840F087FBEA
:1032800021462246114803AB40F0F8FE014630606B
:10329000C8B13B462A460E48CDF8008037F016FBF1
:1032A000044660B9BDF814200499306840F0CAFCA7
:1032B000044620B9BDF81410306840F0A9FB204640
:1032C00006B0BDE8F0810324F9E700BFE81B002049
:1032D000483A00202DE9F0411D46002388B00446FD
:1032E00004A80E461746039337F0A5FB002840F0CC
:1032F000A680BDF81430002B51D1BDF8108003AB6F
:10330000009342463B4631462046FFF79FFF002888
:1033100040F095800398C38B434500F2908041466E
:1033200040F05BFB002840F08A80039EBDF812301D
:1033300073611DF049F92946B061039840F05DFDC5
:103340000399424805F014FD002878D0404B93F8CB
:10335000A43E580707D4039B93F82D30D90702D514
:10336000204637F0BCFC039904F11000012240F024
:103370005FFD0021374841F033F803990A8CCB8B6D
:103380009A4209D304F1100040F072FD3B462A46F0
:1033900020460399FFF70AFF08B0BDE8F08104F169
:1033A000100106A840F0EAFD069901B3BDF81030FF
:1033B000CA8B9A4216D1BDF812004B69984211D1BE
:1033C0000B8CBDF8140098420CD1B388034493428F
:1033D00008DC91F82D206B7902F0010203F0010363
:1033E0009A4203D006A840F0A9FDDDE70391184BEF
:1033F00093F8A43E5A0707D4039B2BB96B79DB07DC
:1034000002D5204637F06BFC0398C0B1B388326810
:10341000018C40F0F4FBB188039840F0F9FA03986E
:1034200095F90310283036F05EFB039829792A308D
:1034300036F08DFB039E1DF0C7F8B0619DE7039841
:103440000028A9D040F0C5FAA6E700BFD239002075
:10345000A82B0020D41B00207FB5154600221C4657
:1034600003AB00932B4606460392FFF7EFFE18B11D
:10347000039890B904B070BD2146039840F0BDFC9C
:103480000399074805F074FC0028F1D02B4622462A
:1034900030460399FFF78AFEECE740F09AFAE9E735
:1034A000D2390020002370B58EB08DF814308DF81D
:1034B0001E3090F8343005469B070C4634D5204624
:1034C00003A93EF085FE78BB20460DF116013EF0C3
:1034D000C0FD48BB214608A837F0BFFA20463FF0A0
:1034E000F7F8064620463FF012F99DF82520ADF882
:1034F000080002F00102164803A90196FEF7ECFA53
:1035000023681B7803F00703012B0DD101A837F0C6
:1035100050FA48B901A837F066FA38B1284608AB26
:1035200003AA01A9FFF7D6FE0EB070BDBDF80830A2
:10353000002BF9D0019B1B7803F0E003602BF3D143
:10354000284608AB03AA01A9FFF786FFECE700BFF6
:103550001046002029B191F82C30C3F3C303022B8D
:1035600002D0024808F012BB002070474C3A0020FD
:10357000002337B58DF80730136815461B7803F024
:103580000703032B1BD0E1B1CC8B003C18BF0124F7
:103590000D4808F0FBFA80B128460DF107013FF015
:1035A00039F995F8233043F0080385F8233024B126
:1035B00028460DF107013FF038F903B030BD012472
:1035C000E6E70C46E4E700BF4C3A00202DE9F04F57
:1035D00087B0DDF84C901F46109B0D464946059379
:1035E000904604469DF844B09DF848A0FFF7B2FF0E
:1035F0000122064607F10A010E4838F03AFB32462E
:103600000146204637F0ADFB059B0246009341463C
:103610003B462846CDE901BA3EF01DFE3EB12A46A2
:103620004946204607B0BDE8F04FFFF7A1BF07B0FD
:10363000BDE8F08F7C3C00202DE9F04F2DED028B92
:1036400007460E46144695B099469DF88030DFF83F
:1036500034B20593BDF884300693BDF888300793E3
:103660009DF88C30089394F82D2094F82C3012F0AB
:103670000102C3F3C30307D0012B52D0042B0CBFAC
:1036800000210821052200E00821BBF8AC0E012B27
:10369000ADF82C00ADF82E0045D00E3303F00F032B
:1036A000012B02D8A38CADF82E300BAB3846CDE9F8
:1036B000021401923146012200934B46FFF786FF28
:1036C00030463FF005F8099030463FF013F809996D
:1036D00002460DA83FF090FEB4F820A0BAF1000F0A
:1036E00040F08580BDF83830BDF83A8008EE103AD9
:1036F000A8F10403ADF83A30059B03B3069B079A83
:10370000ADF83C300123ADF846208DF844308DF8FB
:103710004E3021465A480DAB0FAA36F0DDFDE8B118
:10372000FEE71021AEE794F8263086F82230B37118
:103730009BF8AE3E86F822304FF6FF73B3E74B4658
:103740000FAA09F1100C154618685968083303C50B
:1037500063452A46F7D118682860DAE7238CE58BA1
:10376000ADF83A80ED1A089BADB23BB9BDF83830E0
:10377000A8EB03081FFA88F8A84555D294F82D1035
:1037800011F0010119D0636943B3E38BA28AC3F33B
:103790000A036FEA83436FEA93435BBAADF83030B4
:1037A00053BAADF8323018EE101A04230CAA0DA843
:1037B0003FF09AFE002837D0FEE72046099140F0FE
:1037C00039F90028DFD02046099940F02DF994F806
:1037D0002D3043F0010384F82D3044E7BB8A0BB948
:1037E0000123BB82BB8A5A1CBA826361CDE7E38B9B
:1037F000A28AC3F30A036FEAC3436FEAD3435BBAF7
:10380000ADF83C3053BAADF83E3005224FEADA034A
:103810000FA90DA88DF840303FF0F3FD00B1FEE791
:10382000E58B238CED1AADB2BDF83820BDF83A30E7
:1038300021469B1A9BB29D4284BF23F007039DB291
:103840002B46228C0DA83FF030FE00B1FEE730463B
:10385000BDF838103EF068FF238C1D44E38BADB2F9
:10386000AB4203D9012130463EF08AFB2046514647
:1038700040F0DAF8284615B0BDEC028BBDE8F08FB9
:10388000483A0020A82B00207FB590F83430044639
:10389000980701D400253AE0A269002AFAD043F043
:1038A00008030D6884F8343092F82C30590746D15B
:1038B000C3F3C303022B2DD129462248FEF756FA43
:1038C00005460028E6D00026638EA2690293238E67
:1038D0002946019394F83430204603F00103009305
:1038E000039604F11C03FFF7A7FEA369E08293F897
:1038F0002C20C2F3C3020A2A03D193F82D20D20749
:103900001AD495F823306FF3410385F82330284605
:1039100004B070BD0C4808F039F90028D3D0A06974
:1039200040F088F80028CED0A26992F82D3043F0FC
:10393000010382F82D30C6E7DB8BE382AAE7D38B45
:10394000FBE700BF383E00204C3A002038B590F825
:10395000215004468D4205D1BDE83840042123485A
:1039600040F03BBC80F821100421204840F029FCA5
:1039700094F82130042B09D8DFE803F003141A2B44
:103980003100B4F848310133A4F8483105B30021BF
:1039900004F1240038F07EFF012D19D194F8213074
:1039A000022B0CE0B4F84A310133A4F84A31EDE7B8
:1039B000B4F84C31012D03F10103A4F84C3107D1C7
:1039C00094F8603083F00803C3F3C00384F8F73041
:1039D00038BDB4F84E310133A4F84E31D6E7B4F80F
:1039E00050310133A4F85031D0E700BFBC1B002098
:1039F00090F8213010B5012B24D1B0F8640028B91B
:103A000040F2EE2140F018FC013010BD013880B2C8
:103A10001F2810D841F2AC22834093420BD8FB24DC
:103A200084403221002040F007FC0319A34238BF34
:103A300023461846E9E74FF4FA61034840F00BFCCF
:103A40000446EEE70120E0E7804F120038B5044657
:103A5000184842F002FA94F82130042B03D1214691
:103A600015483BF09AFD01212046FFF76FFF94F8BF
:103A7000613013B1002384F86130002504F168003F
:103A800009F010FB04F1800009F00CFB0B48C4F8AE
:103A9000F05084F8F7500121FFF7ACF9084890F88E
:103AA000A43E00F6A46065F304130370BDE838403B
:103AB00008F096B8A0450020BC320020B43B00209E
:103AC000A82B0020012910B5044605D11B483DF064
:103AD00003F81B483DF000F894F82130EBB1194889
:103AE00035F0A0FC2046FFF7B1FF174804F5F6714A
:103AF0003BF07CFE144804F5EC713BF077FE124875
:103B000004F5E0713BF049FD0F4804F5D4713BF03A
:103B100044FD00212046FFF719FF04F5007009F06D
:103B2000C1FAD4F80C323BB10022D4F81002C4F828
:103B30000C22BDE81040184710BD00BF34390020EA
:103B400068390020D8390020BC32002038B505463D
:103B50000021FFF7B7FF05F1F80006F087FB0446E8
:103B600020B9034805F5C8713BF017FD204638BD64
:103B7000BC32002001210148FFF7A4BF203C0020F7
:103B80004FF6FF72B0F83A31934211D090F82130DD
:103B9000023B012B0CD890F83911A0F83A210120F2
:103BA0004FF47A7300FA01F10322024835F05AB952
:103BB000704700BF2446002070B505460B4C00F549
:103BC000C876314620463BF0E8FC04F2BE7105F5AC
:103BD000CC703BF041F9314620463BF0D0FCA4F5D7
:103BE000B8500821BDE8704040F0EBBABC3200206C
:103BF00038B5044604F1F805FFF7DEFF22462846F3
:103C0000064906F039FB38B92846BDE8384001229C
:103C100044F64C513CF08DBA38BD00BFF1B90308F1
:103C2000F8B5044600F5E07500F5EC77402229462A
:103C3000384604F5F6763BF0FFF940222946304637
:103C40003BF0FAF994F82130E3B1114804F5D4714E
:103C50003BF095FC39460E483BF0B2FD0C4831462E
:103C60003BF0AEFD204637F0E4F818B1294608488D
:103C70003BF085FC94F82130042B03D12146044805
:103C80003BF07DFCBDE8F8401021024840F099BAB5
:103C9000BC320020BC1B002070B505460C46164BFC
:103CA00000F5E076D3F814378BB19E4201D05B6902
:103CB000FAE7B5F8CE315BBA9BB2A34207D03146E2
:103CC0000E483BF06AFC31460D4841F015F821469C
:103CD0000C4808F061FB4FF6FE739C42A5F8344196
:103CE00008D064BA3146A5F8CE410448BDE870401A
:103CF0003BF045BC70BD00BFA82B0020BC320020AB
:103D00009C330020743A0020F8B50D461E468369A6
:103D100004469D4217464FF0800108480AD040F003
:103D200050FAB4F854310133A4F85431A56127771F
:103D3000E677F8BD40F051FAF8E700BFBC1B002061
:103D4000044B183093F80B23427193F80A338371B4
:103D5000704700BFA83B0020002313B5019390F8E3
:103D600021300446022B02D1002002B010BD90F891
:103D70006330002BF8D110483CF067FF18B994F875
:103D800060309B07F0D40C4801A906F087FC18B1FD
:103D90000A4BD3F8B03E019301A83DF0C3FC4FF4A9
:103DA000AF630130B3FBF0F0502838BF5020A4F8C7
:103DB00066000120D9E700BF34390020A82B00207D
:103DC00090F8F13010B5012B00F1800430D0022BB7
:103DD00015D1184807F0DAFE30B94FF47A71204651
:103DE000BDE8104040F089BB134BB3F8BE1EA023C2
:103DF00059434FF47A73B1FBF3F11944EFE790F8AC
:103E0000F330012BE9D090F82130022B0BD190F840
:103E100060301B0707D54FF47A73D0F82C11594343
:103E2000B1F57A61DBD12046BDE8104009F03AB91E
:103E30006421D4E74C3A0020A82B0020D0F8303180
:103E400010B58B4204460DD0C0F8301106483DF045
:103E5000F2FC064807F09AFE20B12046BDE810406B
:103E600037F061B810BD00BF043C00204C3A002080
:103E7000002313B50C46084801A9019306F00EFC77
:103E800018B1064BD3F8B03E0193214601A83DF08E
:103E900036FC02B010BD00BF34390020A82B002032
:103EA0002DE9F04F15460E469B46A1B00AA8BDF875
:103EB000A880DDF8AC903FF093F9EB8B012EA3EBDB
:103EC00008045F46A4B20BF1100A07D108F10502FD
:103ED0009A4269D85746DA46043CA4B204A907F1CD
:103EE00008000DF1180B3AF0CAFF5B460522D9F81D
:103EF000011004A83FF066F9D9F8050034F069FE16
:103F00002B4B0146D3F8342E824238D003F5636040
:103F100035F08BFA01460AA83EF0B5FF0D23224684
:103F20002A21CDE900B30AA804233EF0B8FF1022ED
:103F300039460AA83FF045F8102251460AA83FF03A
:103F400040F80A2249460AA83FF03BF829460AA849
:103F50002346424600963FF0F7F803A90AA83FF02F
:103F600014F97EB90422284603A93FF06BFE0446EB
:103F70000AA83FF04EF9204621B0BDE8F08F03F6C5
:103F80003861C8E70024E98B0423043928460094EB
:103F900003AA89B23FF0E4FD40B1E98B2846043919
:103FA00089B23FF01AFDE3E70624E1E70824DFE7E2
:103FB000A82B002090F86030064A13F0010F19BFBB
:103FC0004B7992F80B038B7992F80A03C01AC0F36D
:103FD000C0107047A83B00200B6910B50C463BB1E0
:103FE0004A6804480968103235F08EFA02232375B6
:103FF00010BD00BF9446002070B586B00C460F4837
:1040000009680DF1170235F0D9FA054698B920680C
:104010009DF8171090F82A302830266903910293F2
:1040200035F086FD029B00902A463046039938F011
:104030009FFC0223237506B070BD00BFAC46002074
:10404000F0B58DB02C220021044601A84EF0F6FCFC
:1040500000211A4804F0A8FA054660B300213FF099
:10406000BCFC28BB04F5D47301AE04F5DC77324602
:1040700018685968083303C2BB421646F7D104F5E5
:10408000E07305AE04F5E8773246186859680833DE
:1040900003C2BB421646F7D1B4F8363129465BBAA3
:1040A000ADF8223005483B2301AA04F08DFB10B186
:1040B00028463FF08EFC0DB0F0BD00BFF43100206B
:1040C00038B590F821300446042B0D4603D1014643
:1040D00022483BF062FA29462046FFF7DDFD022127
:1040E0002046FFF733FC94F8613013B1002384F8C5
:1040F000613044F6206104F1680040F0FEF90023CD
:10410000174A84F8633084F8F03084F8F23092F87B
:10411000A41E204663F3041182F8A41EFFF750FE8C
:104120002046FFF72DFD4FF6FE72B4F8363193426C
:104130000BD0B4F840209A4207D0B4F8883120461A
:104140000133A4F88831FFF77BFFB4F8403005480D
:10415000A4F83631BDE8384007F042BDBC3200203B
:10416000A82B00204C3A0020F8B50E46D0F83011AC
:1041700016484FF41B520023A1FB000131F066FFEB
:1041800004464FF41B5C431C41F100070D465943A4
:1041900007FB0017A3FB0403A0FB0C011F440CFB4F
:1041A00007110023094A31F051FF3278A0FB0203C6
:1041B00002FB0131737803EB83035B00A3FB044232
:1041C00003FB0523001941EB0301F8BD40420F003A
:1041D000024B0021B3F8AC2140F065BBA83B0020A6
:1041E00010B5044604483EF0D1FC052102462046A5
:1041F000BDE8104040F063BB003A0020024B0821AC
:10420000D3F85C2E40F05BBBA82B00200B2370B5CD
:1042100086B08DF80C300823114C019094F80B6394
:1042200094F80A53D4F890008DF80D3084F8956016
:1042300084F8965034F0CDFC94F89430CDF80E000C
:104240008DF8123094F89730019903A88DF8136017
:104250008DF814508DF8153040F0A7F906B070BDF8
:10426000A83B002010B5044606483CF02EFC024650
:1042700030B12046BDE810400823162140F0DFBAD7
:1042800010BD00BF3439002070B5054609483CF028
:104290001CFC044660B136F0BCFD50EA010307D0B7
:1042A00022462846BDE870400823172140F0C7BACF
:1042B000002070BD68390020502307B58DF800300C
:1042C00003238DF8013000238DF80230064B0522C0
:1042D00093F8BD3E69465BBAADF803303FF0B2FCDF
:1042E00003B05DF804FB00BFA82B0020044BD3F8FB
:1042F000A8210AB9D3F8A421552140F0E0BA00BFA3
:10430000A83B002000232DE9F04393B0CDE90F3303
:10431000119304460B460BAD01F110062A461868AE
:104320005968083303C2B3421546F7D1274E07AD8B
:1043300096E80F0085E80F0044F64C53ADF83E3088
:10434000FF2300218DF84430204601230DF10F0298
:104350003FF0FDFB9DF80F90B9F1000F2ED10DF14C
:10436000100801210A23424620463FF0F0FB184B7B
:10437000D3F85C2ECDF81120D3F8347E384634F0D3
:1043800028FC07F07F070A2342460121CDF81500DB
:10439000013720468DF819703FF031FC0B2322467F
:1043A000009349462B46CDF80480A6F5C870FFF768
:1043B00077FD40B9A6F57670FEF7F8F92A46214652
:1043C000044805F04BFF13B0BDE8F083B03D00207A
:1043D000A82B0020183D002070B50C46064610465C
:1043E000154636F0B8FE94F82C30C3F3C3030B2BFC
:1043F00009D029462046FFF785FF78B12046BDE861
:1044000070403FF0E6BA2046FFF72CFF0028F5D1B8
:104410002046FFF739FF0028EBD0EFE796F8603031
:104420001B0705D4BDE87040082102483DF04CBA96
:1044300070BD00BF043C0020014836F02CBF00BF17
:10444000203C00201F292DE9FF410D4617461E463E
:1044500029D8DFF8A480D8F8B03ECB40DB0722D5BE
:104460000F2136F082FE0446E8B190F82D3080F836
:10447000265043F0010380F82D3014238DF80030CE
:1044800003238DF8013000238DF8023098F8AE3EFA
:1044900001465BBA6846ADF8033040F086F828B1B3
:1044A00020463FF096FA04B0BDE8F08106B3012E35
:1044B0000FD14FF48073ADF80E3008230290ADF8A1
:1044C0000C00162120460DEB030240F0B8F900283D
:1044D000E6D115212046B8F8AC2E40F0E4F90028CA
:1044E000DED139462046FFF70DFF0028DBD0D7E7A5
:1044F0002046FFF7B7FEEAE7A82B0020F0B50E46EE
:1045000087B0044605221421306802AB40F0C6F89B
:10451000A8BB9DF80930022B31D908231621306839
:1045200004AABDF80B5040F06FF940BB152130686C
:104530000DF1060240F044F908BB022332483375FE
:104540003CF0C3FA074604A836F063FC6DBA50EAA3
:104550000103EDB215D1BDF816305BBA9AB2C3F3C0
:104560004E0373B96AB100222946204636F008FF8F
:1045700072680023294620461032FFF763FF07B018
:10458000F0BD394604A83DF0AFF80028EBDB394612
:1045900004A83DF0A9F8002831DD94F82130012B62
:1045A0000AD11A4B93F8AE2EAA4205D1BDF80620C7
:1045B000B3F8AC3E9A42E2D094F8616004A836F0B9
:1045C00028FC012E04D1D4E9502382428B41D6D25B
:1045D000BDF80630012EA4F83A3118BF0123C4E912
:1045E000500118BF84F86130FA2184F8395104F180
:1045F00068003FF082FF0023A4F86430BFE704485E
:1046000034F083FCBBE700BF34390020A82B002026
:10461000DC4D002037B50A6905460C467AB10968B9
:1046200008480DF1070335F06CF840B96168284679
:104630009DF80720103136F0B3FE0223237503B036
:1046400030BD00BFAC460020F0B587B00C46154623
:1046500006461BF0B9FF01AA0544059523461546F9
:1046600004F11007144618685968083303C4BB42A4
:104670002246F7D11422294630463FF0E3FA044699
:1046800040B93146054801223FF0D2FB0599044864
:104690003FF040FF204607B0F0BD00BFAC3C00201B
:1046A000943C00202DE9F0470D464B6894B05B6ABE
:1046B0000446002128680DF11E0293F9036040F0C2
:1046C0007FF8002840F010811221286807AA40F0E6
:1046D00077F8002840F00881BDF81C30012B40F22B
:1046E000038128680EA936F01FFF002840F0FC80E7
:1046F00094F8982004F190010EA836F015FD0028DA
:1047000000F0F28068680CA918303AF0B8FB94F811
:104710002130022B09D108220CA904F124004EF00B
:1047200056F910B9012384F8F6300DF128084146F6
:10473000286836F014FF002840F0D6801021286841
:104740000DF1170240F02AF8002840F0CD803146E4
:1047500068483DF0BEFA9DF817300DF144099842C3
:1047600028BF1846C6B2304635F016FA4B46074603
:104770000C220F2128683FF091FF002840F0B48000
:104780009DF84530092B02D8072B40F0AD800DF184
:10479000180A5146286836F027FF38B1172840F02C
:1047A000A380FF238DF818308DF8193001232B7565
:1047B00094F8BA3003F00F03032B7CD0286809AAC1
:1047C00008A936F0B5FE002840F08E80286804F174
:1047D000D20136F0A5FE002840F0868004F19C0747
:1047E0002A463946204636F062FBBDF81E3008994D
:1047F000A4F8B83004F1A8003EF0CAF9089B9DF86F
:104800001700C4F8B030099BC4F8AC30BDF81C30B8
:10481000A4F8BC3094F8BA3043F0F00384F8BA300E
:1048200035F0BAF994F8CE30032160F3010384F82F
:10483000CE30384638F02EF8EB684846C4F8B4302D
:104840009DF84A3084F8CF30BDF81830A4F8D03045
:1048500037F0E4F89DF847309DF8452084F8DC30C7
:104860009DF84830092A84F8DD309DF8493084F8F5
:10487000DB0084F8DE303AD9BDF84D305BBA9BB22C
:10488000092AA4F8E03098BF012398E8030088BF04
:104890009DF84F3084F8E23004F1E40383E803002C
:1048A0009DF84C3084F8E360012B8CBF002301237A
:1048B00084F8EC3018E008220CA904F19C004EF0BA
:1048C00086F800283FF47AAFBDF81C303A46CDE9AF
:1048D000009320463346BDF81E10CDF808A036F0F0
:1048E00084FB00287FF46AAF14B0BDE8F0874FF472
:1048F000A063C5E74C3A002010B5044654220021BD
:104900004EF09CF82046044937F0CDFFFF2384F891
:10491000343084F8353010BDA81B002090F82120D9
:1049200038B504460D46002A4BD090F86130002B74
:1049300047D1012A18BFA0F8643090F86330012BEA
:1049400006D1204805F034FEC8BB022384F863304A
:1049500004F19C00FFF7D0FF94F861302046022B51
:104960001CBF022384F86130032D08BFB4F8563110
:1049700084F8995004BF0133A4F85631FFF738F892
:10498000014604F168003FF0B8FD94F82130012B96
:1049900017D1B4F8643001339BB20BB1A4F8643082
:1049A000B4F8523194F86010013311F00801A4F802
:1049B000523106D1BDE8384003483DF0BFB900236D
:1049C000C4E738BD343900204C3A002090F821303B
:1049D00010B50446F3B1012B03D190F86130022BDE
:1049E00016D094F8633013B90B483CF075F82046A4
:1049F000FFF72CF8002104F1240037F04BFF4FF6AD
:104A0000FE712046FFF748F900212046FFF786FF98
:104A1000002000E00D2010BD6839002073B590F82B
:104A200063500446022D24D12F4805F0C1FDE0B9A2
:104A30002D4805F09DFD032384F8633094F8613020
:104A40003221022B18BF84F8615000203FF0F4FBA4
:104A5000451C94F863307BBB94F89930052B2BD818
:104A6000DFE803F0113B402A4011002584F8635031
:104A7000EFE7032D4FF00005EBD180F863501B48A2
:104A800005F096FDE5E794F82130022B17D04FF69C
:104A9000FF76B4F83A31B3420BD094F83911144888
:104AA00007F0CCF8B4F83A11114806F085FDA4F8E7
:104AB0003A612046FFF78AFF284602B070BD94F89D
:104AC000601011F00801F7D10A4801913CF0BAFEDC
:104AD00001990948FEF78EF9EEE702212046FFF71B
:104AE0001DFFE9E70021F9E768390020343900208B
:104AF0004C3A0020043C0020B43B002030B50C466A
:104B00008FB005460021206807AA3FF059FE60BB20
:104B1000206936F076F940B395F86130052B24D141
:104B20000A2120680DF11E023FF04AFEE8B9BDF8E7
:104B30001C30BDF81E209B0AB3EB922F15D12068C4
:104B40000AA936F00CFD80B90C2120680DF1220372
:104B500008AA3FF0ABFD40B90823162120680CAA33
:104B60003FF052FE18B1172815D00FB030BD1821F4
:104B700020680DF1260309AA3FF098FD58B9BDF849
:104B80002630226800933B48BDF824300CA93CF045
:104B900067F80028E9D195F86330032B02D1364835
:104BA0003CF07CF80823172120680CAA3FF02CFE6B
:104BB00028B11728D9D130483CF07AF811E01921F2
:104BC00020680DF1260309AA3FF070FD48B9BDF831
:104BD0002630226800932848BDF824300CA93CF008
:104BE000A6F82846FEF732FF9DF82F309DF82C20BE
:104BF00028460A99FFF788F805F19C0005F1240181
:104C0000059036F023FD0598FFF776FEB5F858209D
:104C10001A4B1B48A3F8442FBDF81C30BDF82220C6
:104C2000A5F8403095F860300292DB43BDF82020B3
:104C30009DF82D100192226803F0010300929DF867
:104C40002E2037F054FBBDF81E102846FFF738FA27
:104C500095F8601011F008010AD10A4805913CF05E
:104C6000F1FD05990848FEF7C5F8022323757CE796
:104C70000121F7E73439002068390020A82B0020F3
:104C8000AC3E0020043C0020B43B00202DE9F34161
:104C900005460F46CDE90032BDF82080099C36F06C
:104CA0000EFD0721284636F060FA0646002850D04F
:104CB000DDE900320D213FF0C2FD002847D1E4B903
:104CC000B8F1000F25D13046FFF7CCFA0446E0B921
:104CD0003046FFF7D9FA0446B8B939463046FFF7EF
:104CE00011FB044688B995F8604014F0080418D107
:104CF000082119483CF0E8FD14E0224631461748E7
:104D000034F0D5FB04460028DAD030463EF061FE90
:104D100008E0424639463046FFF796FC0446002834
:104D2000F3D1002495F82130022B0CD195F8603096
:104D30001B0708D4012385F8F33095F8F13013B937
:104D40002846FFF73DF8204602B0BDE8F081044652
:104D5000DBE70324E6E700BF043C00209446002084
:104D600007B590F8203013F0020F4FF00003CDE9A3
:104D7000002314BF02230123024AFFF787FF03B079
:104D80005DF804FB313305082DE9F0410D460023A1
:104D90008EB0044608A92868ADF81830ADF81A306E
:104DA000ADF81C30ADF81E3036F0D9FB064690B990
:104DB0000899A369994209D19DF82420237F9A423A
:104DC00004D19DF82720E37F9A4208D094F821303F
:104DD000022B11D0022630460EB0BDE8F08194F8C7
:104DE0002030DB0715D4204608A9FFF7E3F880B987
:104DF0000023A4F8F230EEE79DF8273020469DF816
:104E00002420FEF781FF94F8203043F0010384F85A
:104E100020300823162128680AAA3FF0F5FC18B1B3
:104E2000172834D00626D6E748483BF04EFE94F8C3
:104E300021300146042B0CD10127082317212868B3
:104E40000CAA3FF0E1FC20B31728EBD14FF000088B
:104E500029E00AA83CF048FC0028EDD01821286879
:104E60000DF11A0306AA3FF021FC0028E4D06B687C
:104E70001B78FF2B66D14FF47A7100203FF0CBF9FD
:104E80000246696820461031FFF76AFFA3E7002752
:104E9000D3E72F483BF019FE94F821300146042B4C
:104EA00041D14FF001080C2128680DF1160305AA25
:104EB0003FF0FCFB0028DAD194F86030BDF81620F2
:104EC000DB430292BDF814209DF8251001922A6858
:104ED0002048009203F001039DF8262037F007FADE
:104EE000002831D157B1BDF818303BB1BDF81A20B8
:104EF000164800920AA92A683BF0B2FEB8F1000FEA
:104F00000AD0BDF81C303BB1BDF81E2010480092FD
:104F10000CA92A683BF00BFF94F820306FF30003D4
:104F200084F8203064E70CA83CF0DEFB0028B8D001
:104F3000192128680DF11E0307AA3FF0B7FB0028CE
:104F4000AFD094E70A229CE7064644E734390020B4
:104F500068390020AC3E00207FB5054608690C4644
:104F600035F04FFF20B3592120680DF10E0303AA3D
:104F70003FF09CFB50B96368BDF80C2010330093E0
:104F80002168BDF80E300B4834F04FFC214628460E
:104F9000FFF7FAFE95F8F330064633B995F860301E
:104FA0001B0702D404483CF060FC0EB902232375B1
:104FB00004B070BD94460020043C002070B50D463E
:104FC0008AB0044607A9286836F0AEFA20B117283F
:104FD00011D100238DF8243094F82130012B02D018
:104FE000022B0AD0FEE794F8982004F1900107A85C
:104FF00036F09AF860B90AB070BD2A6904F124034A
:105000009A42F8D194F8423003F00F03072BF2D103
:10501000112128680DF10A023FF0C0FB68B9204653
:10502000FFF7D4FC94F8F130022BE4D100232046A2
:10503000A4F8F030FEF7C4FEDDE7012128680DF189
:105040000B023FF0ABFB0028D5D19DF80B3094F854
:10505000602043F004039A42CDD194F82130012B13
:1050600002D0022B21D0FEE7286805AA04A936F059
:105070005FFA0028BFD1049904F130003DF088FDAB
:10508000049B04F12406A363059B07216363304658
:1050900037F000FC2046B4F83411FFF711F894F80B
:1050A000203043F0010384F82030002128680DF1FE
:1050B0000E023FF085FB00289DD1BDF80E30B4F8FC
:1050C00034219B0AB3EB922FA9D129462046FFF742
:1050D0005BFE00288FD10221286806AA3FF082FBE0
:1050E000E8B1172887D1286803A936F07DFA30B3D4
:1050F000172880D194F8601011F0080125D11448C8
:1051000001913CF09FFB01991248FDF773FE9DF859
:105110002430002B0CBF022301232B7582E7069A53
:105120002AB9D4F8081204F50073994202D1C4F8E0
:105130002C21D8E701212046FEF7C4FCD3E7064B1B
:10514000BDF80C20A3F8442FD4E70121DCE700BF11
:10515000043C0020B43B0020A82B0020002307B50E
:1051600001920093034A0123FFF790FD03B05DF81D
:1051700004FB00BF3333050870B504468EB04148C8
:1051800005F016FA404805F013FA4048FCF7A4FE73
:105190003F4804A936F0F5FA0546002870D1059974
:1051A0003C48FDF735FB3C4E069B2A46C6F85C3E64
:1051B000079906F56360FDF7DBFA9DF8113023F0DF
:1051C000020343F0040384F86030BDF83430042B4C
:1051D00056D19DF81030023B022B51D8BDF8121069
:1051E000C1F308033BB106F6CC6007F0D5F8BDF873
:1051F0001230A4F83431294809A907F0D3F84FF642
:10520000FE720BAB03CBBDF81230C4F8B001934271
:10521000C4F8B41134D0C3F3080373B30023CDE949
:105220000133022301AEADF80C3032460A230421CB
:10523000174807F083FE18BB04F12405284637F011
:1052400025FC96E8030085E80300BDF80C30012139
:10525000A4F8443094F84230284643F0F00384F830
:105260004230BDF8123003F47C43A4F8403037F0EC
:1052700011FBB4F84030A4F83631012384F8F5303E
:105280000EB070BD3439002068390020C8450020B8
:10529000E41B0020D8390020A82B0020743A0020FD
:1052A00070B59AB005462422002106A84DF0C6FB31
:1052B00002232846ADF83C3035F0BBFD044670B300
:1052C0000426B5F8343195F82120ADF81A30AB69D1
:1052D000294C0A938DF81820D4F8D20ED4F8D61E93
:1052E0000BAB03C3D5F8B001D5F8B411022A03C340
:1052F000ADF83C6018D1686AA96A03AB03C3B5F87E
:1053000044303146ADF814300A2303AA0093A4F6C2
:10531000C47010AB07F022FE30B11AB070BD174850
:1053200006A936F02EFA28BB134CD4F8343E04F606
:1053300058600793D4F85C3E03F57A7308933DF008
:1053400025FC95F8603000F57A708DF81930262329
:1053500009900093032110AB06AAA4F6C47007F0CD
:10536000FDFD0028D9D1089BC4F8643E099BC4F810
:10537000603ED2E72046D0E7A82B0020E41B0020A7
:1053800090F8213073B504460D46002B64D011F01F
:1053900004060ED0022B0CD190F8603013F00203FB
:1053A00007D190F8F420012A03D180F8F43035F0C9
:1053B000BAFDA8071DD004F5D471284801913AF030
:1053C00091F958B904F5D87039F03AFD019923489C
:1053D0003AF0D5F8102122483EF0F3FE94F821303F
:1053E000022B06D194F86030990702D4204635F09C
:1053F0009AFD15F4405F14D094F82130022B10D19F
:1054000094F860309A070CD4180707D594F8423006
:10541000190703D0B4F84430022B02D0204635F0EF
:1054200082FDAA0509D516B9204635F07CFD0D4848
:1054300040F025FD0C4802F099FB15F4827F0BD05B
:10544000EB0503D4204635F0F4FC28B1204602B029
:10545000BDE87040FFF724BF02B070BDBC32002031
:10546000BC1B0020A0450020183400202DE9F0418D
:1054700000F5E077044638460E4636F099F928B133
:10548000BDE8F04110211D483EF0A7BE1C4D04F5BB
:10549000D47895F8F037D3B1214605F214703AF07C
:1054A0007CF8414605F214703AF077F8394605F277
:1054B00014703AF072F804F5EC7105F214703AF0D9
:1054C00095F904F5F67105F214703AF08FF931464A
:1054D000404639F088FD3146384639F084FD314682
:1054E000204639F080FD95F8F03723B12046BDE81D
:1054F000F041FEF795BBBDE8F08100BFBC1B00206A
:10550000A82B00202DE9F7430025038C044603F067
:10551000FC0300F12409038405655C300F4636F076
:105520007EFB0C23A4F860304FF0AF636366234624
:105530004E4A84F8635043F8682F236723464C4A49
:10554000394643F8742FE36723464A4A04F1F800CA
:1055500043F8802FC4E92235C4E93C5584F89950BA
:10556000C4F8C8503AF09DFDF0226423C4E94B23EF
:105570006FF00113C4F8343102330022C4F838311B
:105580000023FF26C4E950233B4B3946C4F80032C0
:1055900004F50073C4E98235484604F19C08C4F858
:1055A000105237F080F93946404684F8586084F844
:1055B000596037F078F9484684F8D06084F8D160B3
:1055C000A561E56137F062FA4046FFF795F920469C
:1055D00035F029FC04F5C870012101903AF08DF8EE
:1055E0002649019839F0D9FC20463AF095F804F59F
:1055F000D4703AF091F804F5D87039F021FC04F534
:10560000E0703AF089F8294604F5E47039F051FC6D
:1056100094F8D231294643F0800384F8D231142221
:1056200004F5EC704DF00AFA0127322314222946C2
:1056300084F8D93184F8D86184F8E65184F8E771A8
:1056400004F5F6704DF0FAF9332320460C4984F83E
:10565000EC6184F8ED3184F8FA5184F8FB71FFF7BE
:1056600005FF204603B0BDE8F08300BF415D0008A0
:1056700039440008155E0008753B00087A3A00209E
:10568000263305087FB50546184B00F5D476D3F8C8
:105690001447D4B1204639F077FC08B16469F8E7C3
:1056A0002146284636F094F80028F7D121462846AE
:1056B00036F09DF80028F1D13146204635F0D1FF73
:1056C0000028EBD1012004B070BD95F860301B07B5
:1056D00009D42246064901A83AF05AF80198003840
:1056E00018BF0120EFE72046EDE700BFA82B002000
:1056F000BC32002013232DE9F04F8DB00D4602225D
:1057000003A90746B0F81E808DF80C303EF09AFAD7
:105710000446002869D10146514A384635F08FFDCC
:105720000446002861D1012D53D04E494E4839F02E
:10573000D9FF002837D101254C4BDFF83CA103F5F8
:105740009159D3F8146709F62C0B002E58D0304627
:1057500039F01AFC002851D13146504636F038F85D
:1057600000284BD13146504636F041F8002845D14B
:105770004946304635F075FF00283FD1594630463E
:1057800035F06FFF002839D13146394807AA01F0BA
:1057900057F870BB324638469DF82D1035F04FFD56
:1057A00098B1044621E02F4907AAA1F5E96001F06C
:1057B00047F80028BFD138462A4A9DF82D1035F009
:1057C0003EFD0028EDD10225B6E70135EDB2042DEE
:1057D00014D1FB8B4146023BA3EB08038DF80D303F
:1057E0003846022303AA3EF00AFA20460DB0BDE86F
:1057F000F08F3146384635F03BFDD1E77669A4E7B6
:105800001C4E96F8D830190707D596F8BA301A0703
:1058100003D0B6F8BC30022BDBD00022124904A81A
:1058200039F0B6FF04990029D3D096F8D8301B0779
:1058300009D4384635F01CFD0028B2D10135EDB24F
:10584000042D07D1C5E70846019139F03FFC0199C5
:105850000028EED1049B04A8196939F083FFE1E721
:10586000C83D0020F4450020BC320020A82B0020B9
:10587000AC3E0020A83B0020203C0020F0B500F109
:105880009C0700F12404394606460822204685B0CC
:105890004DF09DF8014630B996F82130022B7AD0B0
:1058A000204636F0F7FF0B21304635F05EFC05460A
:1058B000002872D006F1D20135F0B8FC0446002869
:1058C0006DD12846FEF78CFC0446002867D1284697
:1058D000FEF794FC0446002861D10121284696F881
:1058E00060203EF0D5FF0446002858D1022128460A
:1058F000D6F82C213EF0E3FF044600284FD128467D
:1059000035F099FC0446002849D1274B1B21284635
:10591000B3F86A2A3EF0C7FF044600283FD196F844
:1059200060309A0735D4284696F8F410FFF7E2FE67
:105930000446A0BB02230D2128461C4A3EF07FFFEF
:10594000044660BB2846FEF78DFC044638BB28465B
:10595000FEF79AFC044610BB0721384636F09AFF42
:105960003946684639F019FB69462846FEF7CAFCF5
:105970000446A0B996F860301B0707D401210C48F3
:105980003BF060FF21460B48FDF734FA204605B096
:10599000F0BD0323CFE71824F8E70324F6E72846F1
:1059A0003EF017F8F2E700BFA83B00202E330508B1
:1059B000043C0020B43B00202DE9F04190F8423037
:1059C000054603F00F03012B884686B009D0063B3D
:1059D000012B06D9FEF7FAFF0025284606B0BDE8E0
:1059E000F0810223284685F8F130FEF7E9F90D2110
:1059F000284635F0BAFB0646002800F093800121C6
:105A000095F860203EF044FF0746002840F08C8067
:105A1000B8F1010F30D095F82130012B2CD095F83A
:105A20002130042B06D8DFE803F003043803030019
:105A3000FEE71F4695F860309B0765D505F1240108
:105A400002A839F0AAFA304602A9FEF75BFC044628
:105A5000F8B995F8605015F008055DD1294633482E
:105A6000FDF7C8F9324806F091F880F00100C1B2A4
:105A700030483BF0E7FEB0E705F1900108460191A0
:105A800035F04EFB3046019935F0CBFB044600283B
:105A9000C5D030463DF09DFF42E03046FEF798FB12
:105AA00004460028F5D13046FEF7B0FB0446002836
:105AB000EFD1B8F1020F08BF02464FF002013046A5
:105AC00018BFD5F82C213EF0FAFE04460028E0D19C
:105AD000194C1B213046B4F86A2A3EF0E4FE074612
