S0170000766962726174696F6E2D73656E736F722E73333748
S31508006000001200204D1E0308797A0508797A0508DA
S3150800601007570508797A0508797A0508797A050807
S31508006020797A0508797A0508797A050851620008A7
S31508006030797A0508ACE90508E1610008B34C05085A
S31508006040B51D0308797A0508797A0508797A050865
S31508006050797A0508797A0508797A0508797A050832
S31508006060797A0508797A0508797A0508797A050822
S31508006070797A0508797A0508797A0508797A050812
S31508006080797A050825230308797A0508797A0508AF
S31508006090797A05080D190308797A0508797A0508C1
S315080060A0797A0508511503082D150308797A050824
S315080060B0797A050811BE030841C80308CD94050876
S315080060C0C99405080DC00308D9940508D194050894
S315080060D019C80308D594050881C80308E5C8030844
S315080060E0797A0508797A0508797A0508797A0508A2
S315080060F013570508797A0508797A0508797A05081B
S31508006100797A050805230308797A0508797A05084E
S31508006110797A0508797A0508797A0508797A050871
S31508006120797A0508797A0508797A0508797A050861
S31508006130797A0508797A0508797A0508797A050851
S31508006140797A0508EDCB0208797A0508815605089B
S3150800615001A50308797A050891910508979105081C
S31508006160797A0508797A0508797A0508797A050821
S315080061700B4A1168086806C881F30B88022181F367
S315080061801488203080F30988BFF36F8F4FF0000022
S3150800619080F31188104700BFAFF30080AFF300808B
S315080061A0DC6A00200000000000000000000000007B
S315080061B007480068006880F3088862B661B6BFF3CE
S315080061C04F8FBFF36F8F02DF00BF00BFAFF30080B2
S315080061D008ED00E0000000000000000000000000DC
S315080061E0EFF309801EF0100F08BF20ED108AEFF3B9
S315080061F00B82734620E9FC0F114A116808604FF0BC
S31508006200300080F31188BFF34F8FBFF36F8F1FF0F5
S315080062109DF84FF0000080F31188094A1168086854
S31508006220B0E8FC0F13F0100F08BFB0EC108A82F329
S315080062300B8880F309881847AFF30080AFF3008016
S31508006240DC6A0020000000000000000000000000DA
S315080062501EF0040F0CBFEFF30880EFF30980044922
S31508006260084700BFAFF30080AFF30080AFF30080AC
S31508006270D942050800000000794BF7B51C6814F0F0
S31508006280010440F0E78041F60B22764E764B7F21DB
S31508006290C6E90034754B76489A8010221C60B460B3
S315080062A053F0C9F97F22734B1A70734B1B6ADB07CD
S315080062B006D440F21B41714B714A724836F05EFDB6
S315080062C0214630462FF096F8054620B940F21F4180
S315080062D06D4B6B4AF1E72FF0C7FF20B140F223411F
S315080062E06A4B674AE9E74FF00111284652F030FC3D
S315080062F020B140F22741654B614ADEE70221284674
S3150800630052F008FB20B140F22A41604B5C4AD4E7C0
S3150800631028465F492FF004FE20B140F22D415B4B21
S31508006320574ACAE70121284652F00AFD20B140F231
S315080063303241564B524AC0E70121284652F010FD19
S3150800634020B140F23541514B4D4AB6E73822214635
S31508006350504853F070F980232246284606F110016A
S3150800636052F0FFFB802804D040F23C414A4B444A95
S31508006370A3E74A4E01202FF091F837A3D3E900236B
S3150800638035602846CDE900234FF0FF324FF0FF3342
S3150800639052F0FBFA014620B140F27E313B4B404AAF
S315080063A08BE7324820F0A0FC0121084620F010FDBA
S315080063B00121306852F050FA054620B140F2CC412E
S315080063C0324B384A79E701464FF40862364853F0AB
S315080063D032F9364B36490A198834B4F5086F9D8068
S315080063E04FF0000743F8282BF5D1324B324A9D80EF
S315080063F01A60324B324A6FF063001A60314A9D8048
S315080064001770314A5A6112F073FB0B2020F028FCF2
S315080064102E4B186020B940F2E4412D4B214A4CE737
S3150800642027F068FE002020F0C5FD082230681146D6
S3150800643052F0ADFA20B140F2E941264B194A3CE741
S3150800644021F09EFE244B25481F7003B0BDE8F0409E
S3150800645046F0A9BD03B0F0BD0BE020FF2202000004
S31508006460C4760020D076002051710208C876002034
S31508006470075F0120F85E01200080E00F81E405082F
S3150800648018E6050881DF05089AE40508E0DE050830
S3150800649034E705086C770020A9E40508C0760020D3
S315080064A00BE60508B1E60508A47700205060002031
S315080064B0AC77002028600020185F0120D0620020F9
S315080064C09A5F0120975F0120F86200206877002014
S315080064D0E1E40508FCE40508FB5E012080E5050803
S315080064E02DE9F04F456A044610EE10AA2DED048BEF
S315080064F093B057EC106BDDF88080BB460691099285
S315080065000C9375B9102036F0BFFC0246606220B9BC
S31508006510A74BEA21A74836F031FCC0E901550560CA
S31508006520C560636A196851B15A68012320469340C9
S315080065304A608B6037F060FD636A00221A603B1E72
S31508006540ADBF0023012223F0004BC8F800309A4B58
S31508006550B8BFC8F8002033EA0B031BD142F20F7309
S315080065600C9A1360CBF31303334300F08F85219BFA
S3150800657063B9924B22E0924B01930833219A136038
S31508006580019813B0BDEC048BBDE8F08F8B4B0193DB
S315080065900333F3E7002200235046594638F0D8FD66
S315080065A080464BEC19AB58B101230C9A1360219B1A
S315080065B0002B00F0688583481860431E0193DFE7C7
S315080065C0CBF30A5510AA11A920464BEC10AB37F0AD
S315080065D095FF08EE100A002D00F0828019EE903A19
S315080065E05646A5F2FF35CDF83880C3F3130343F0BA
S315080065F07F5747F440170022734B3046394638F028
S3150800660087F965A3D3E9002338F03AFB64A3D3E9F5
S31508006610002338F07FF906460F46284638F0C6FAB2
S3150800662061A3D3E9002338F02BFB02460B4630461C
S31508006630394638F06FF906460F4638F0D1FD002284
S31508006640009000233046394638F08CFD50B100984A
S3150800665038F0ACFA32463B4638F07AFD10B9009B62
S31508006660013B0093009B162B59D8009A574B03EB16
S31508006670C20351EC190BD3E9002338F073FD002847
S315080066804FD0009B013B009300230B93109B5D1B8F
S315080066906B1E059349BFC5F101030023049300232C
S315080066A054BF04930593009B002B3CDB059B009A83
S315080066B013440A92059300230793069B092B00F2BD
S315080066C08980052BC5BF043B002501250693069B3B
S315080066D0023B032B00F28980DFE803F02E3B395A90
S315080066E0DDE910531D4405F23243202BC6BFC3F122
S315080066F0400305F21240C3F1200305F1FF35C5BF7B
S315080067000BFA03F326FA00F006FA03F0184338F0FA
S315080067103DFA01230646A1F1F8770E936BE70123AC
S31508006720B3E70B90B2E7049B009A9B1A0493534273
S31508006730079300230A93C0E700230893099B002BBD
S3150800674056DC01231A46CDE9023309920CE00123EF
S31508006750F3E70023099A0893009B13440293013335
S31508006760012B0393B8BF01230022606A426004220A
S3150800677002F1140641689E423ED9204637F0FCFBDA
S31508006780019000283CD1124B02464FF4D571C1E660
S315080067900123DFE7AFF3008061436F63A787D23F2A
S315080067A0B3C8608B288AC63FFB799F501344D33FF2
S315080067B08B060808A20608080000F07F8706080866
S315080067C07E0608085A0508080000F83F4008080829
S315080067D02007080801250023089506934FF0FF3384
S315080067E00022CDE902331223AFE701230893F5E728
S315080067F0099BCDE90233B7E7013152004160B7E79B
S31508006800636A019A1A60039B0E2B00F29D80002D85
S3150800681000F09A80009B002B32DD03F00F03B64A86
S3150800682002EBC303D3E90089009BD8054FEA231777
S3150800683016D5B24B07F00F070325D3E9082351EC09
S31508006840190B38F047FB82468B46AC4E57B9424681
S315080068504B465046594638F03DFB82468B4628E063
S315080068600225F2E7F90708D5404649460135D6E933
S31508006870002338F005FA804689467F100836E5E792
S3150800688000F09B80009B02259C4F5E429A4B06F0C7
S315080068900F02361103EBC20351EC190BD3E900239F
S315080068A038F0EEF9002382468B46002E7AD1002B6B
S315080068B0D3D10B9B002B00F082800022904B5046D0
S315080068C0594638F04FFC002879D0039B002B76D028
S315080068D0029B002B36DD009B5046594600225F1E60
S315080068E0884B38F0CDF9013582468B46029E2846FC
S315080068F0D04638F05BF952465B46D94638F0C0F9BF
S315080069000022814B38F006F88246A1F1507B002E12
S3150800691058D100227D4B4046494637F0F9FF52468A
S315080069205B468046894638F03BFC002840F0938257
S3150800693052460BF100434046494638F013FC0028FE
S3150800694040F087825BEC19AB119B002BC0F24881A3
S31508006950009A0E2A00F34481674B03EBC203D3E97E
S315080069600089099B002B80F2D580039B002B00F33E
S31508006970D18040F06D820022644B4046494638F08B
S315080069807FF952465B4638F001FC039E37460028DD
S3150800699040F043823123019D05F8013B009B0133FA
S315080069A000933EE2F20705D50135D7E9002338F012
S315080069B067F901237610083777E7022579E7009FFC
S315080069C0039E94E701994C4B314403EBC6030D91A2
S315080069D0089953E90223002943D000204C4938F08E
S315080069E079FA52465B4637F093FF019D82468B46FD
S315080069F04946404638F0F4FB064638F0D7F80246D2
S31508006A0030360B464046494637F082FF52465B46CB
S31508006A1005F8016B8046894638F0A4FB002863D147
S31508006A2042464B460020364937F072FF52465B46CF
S31508006A3038F098FB002840F0B5800D9B9D4281D028
S31508006A400022304B5046594638F01AF90022824641
S31508006A508B46404649462B4B38F012F98046894604
S31508006A60C6E75046594638F00BF90D9B82468B46C9
S31508006A70019D0F934946404638F0B2FB064638F06A
S31508006A8095F802460B4640464946303637F040FFF1
S31508006A900D9B05F8016B80469D4289464FF0000222
S31508006AA024D11B4B5046594637F034FF02460B4655
S31508006AB04046494638F074FB002873D152465B4677
S31508006AC00020134937F024FF02460B464046494644
S31508006AD038F048FB00283FF435AF0F9D6B1E0F9327
S31508006AE015F8013C302BF8D0009749E0054B38F0F3
S31508006AF0C7F880468946BDE7400808081808080808
S31508006B000000F03F0000244000001C400000144034
S31508006B100000E03F56465F46019D42464B463046DA
S31508006B20394638F0D7F938F05BFB824638F03EF83C
S31508006B3042464B4638F0A4F8024630460AF130067B
S31508006B400B46394637F0E4FE05F8016B019E02460E
S31508006B50039F0B46AE1BB74235D137F0DBFE4246E4
S31508006B604B4606460F4638F01BFBD0B942464B4605
S31508006B703046394638F0ECFA10B11AF0010F10D148
S31508006B80204618EE101A37F037FA002300982B70B3
S31508006B9001300C9B1860219B002B3FF4F1AC1D6063
S31508006BA0EEE4009F2B461D4613F8012D392A06D11F
S31508006BB0019A9A42F7D13022019901370A701A7858
S31508006BC001321A7090E70022A44B38F059F80022D7
S31508006BD0002306460F4638F0BBFA00289DD0CFE7BB
S31508006BE0089A002A00F0D580069A012A00F3B9808F
S31508006BF00E9A002A00F0B18003F23343079E049DE3
S31508006C00049A012120461A440492059A1A440592C8
S31508006C1037F05CFA0746002D0CDD059B002B09DDD5
S31508006C20AB42049AA8BF2B46D21AED1A0492059ACB
S31508006C30D31A0593079B1BB3089B002B00F0AD8066
S31508006C40002E13DD39463246204637F0FDFA18EE97
S31508006C50102A01460746204637F04EFA804618EEB7
S31508006C60101A204608EE108A37F0C6F9079B9A1BB9
S31508006C7006D018EE101A204637F0E6FA08EE100A83
S31508006C800121204637F022FA0A9B0646002B40F3DC
S31508006C9086801A460146204637F0D6FA069B0646EF
S31508006CA0012B7FDD4FF00008336906EB8303186973
S31508006CB052F0B9FFC0F12000059B184410F01F00E0
S31508006CC000F09180C0F12003042B40F38980C0F1C5
S31508006CD01C00049B054403440493059B0344059345
S31508006CE0049B002B07DD18EE101A1A46204637F0CB
S31508006CF005FB08EE100A059B002B05DD31461A46F2
S31508006D00204637F0FBFA06460B9B002B6DD0314622
S31508006D1018EE100A52F0D6FF002866DA009B18EE25
S31508006D20101A0A222046013B0093002337F086F901
S31508006D30089B08EE100A002B00F0AF8100233946A5
S31508006D400A22204637F07AF9029B0746002B00F301
S31508006D508D80069B022B50DC88E0109BC3F136031E
S31508006D604CE7039B5E1E079BB342B7BF079B9E1B60
S31508006D700796F21ABFBF0A9B00269B180A93039B25
S31508006D80002BB7BFDDE90323DDE903359D1A002390
S31508006D9036E7079E049D089F3DE7079A69E7069B25
S31508006DA0012B18DCBAF1000F15D1CBF3130393B9F5
S31508006DB02BF000431B0D1B0583B1049B4FF0010804
S31508006DC001330493059B013305930A9B002B7FF43B
S31508006DD06BAF012070E74FF00008F6E79846F4E736
S31508006DE03FF47EAF18461C3073E7039B002B37DC55
S31508006DF0069B022B34DD039B0293029B6BB931463B
S31508006E000522204637F01AF90146064618EE100AFA
S31508006E1052F058FF00283FF7BDAD099B019DDB43A3
S31508006E2000934FF000083146204637F0E5F8002F6A
S31508006E303FF4A6AEB8F1000F05D0B84503D04146D9
S31508006E40204637F0D9F83946204637F0D5F897E680
S31508006E5000263746E1E7009737469BE500002440C1
S31508006E60089B002B00F0CA80039B0293002D05DDCA
S31508006E7039462A46204637F041FA0746B8F1000F48
S31508006E805BD07968204637F077F8054628B9874BEE
S31508006E90024640F2EA21FFF73DBB3A6907F10C01C9
S31508006EA00C300232920052F09FFB012229462046FE
S31508006EB037F024FA019BB846074603F10109DDE9D4
S31508006EC00123134405930AF001030493314618EE8F
S31508006ED0100A52F0ACFD4146029000F1300A18EE55
S31508006EE0100A09F1FF3B52F0EDFE3A46039031468F
S31508006EF0204637F073FAC268054602BB014618EE0B
S31508006F00100A52F0DFFE024629462046079237F05D
S31508006F1073F84D46DDE9063243EA0201049B0B434A
S31508006F200FD1BAF1390F2AD0039B002B02DD029B41
S31508006F3003F1310A8BF800A075E73846BAE7012253
S31508006F40E2E7039B002B04DB06990B4304990B43EA
S31508006F5022D1002AEEDD18EE101A0122204637F05B
S31508006F60CDF9314608EE100A52F0ACFE002803DCD3
S31508006F70E0D11AF0010FDDD0BAF1390FD7D1392394
S31508006F808BF800302B461D46013B15F8012C392A93
S31508006F9070D001321A7046E7002A07DDBAF1390FB8
S31508006FA0EDD00AF101038BF800303CE7059B09F8A0
S31508006FB001AC994546D018EE101A00230A2220463D
S31508006FC037F03CF8B84508EE100A4FF000034FF0CA
S31508006FD00A024146204606D137F030F88046074671
S31508006FE009F1010972E737F029F839468046002386
S31508006FF00A22204637F022F80746F1E7039B029358
S31508007000019D314618EE100A52F011FD019B00F160
S31508007010300A05F801ABEA1A029B934209DD18EE1D
S31508007020101A00230A22204637F008F808EE100A3C
S31508007030E7E7029B4FF00008002BCCBF1D46012551
S31508007040019B1D4418EE101A0122204637F056F906
S31508007050314608EE100A52F035FE002892DC02D1BD
S315080070601AF0010F8ED12B461D4613F8012D302A32
S31508007070FAD0D8E6019A9A4285D1009B013300934B
S3150800708031231370CFE60A4BFFF798BA219B002BE2
S315080070907FF471AA074BFFF791BA029B002BAFDC6E
S315080070A0069B022B3FF7A9AEAAE700BF20070808F0
S315080070B0590508087E06080810B5054C237833B923
S315080070C0044B13B1044800E000BF0123237010BD30
S315080070D080650020000000001C09080808B5034B5D
S315080070E01BB10349034800E000BF08BD00000000CB
S315080070F0846500201C090808A3F5803A704700BF7C
S31508007100174B002B08BF134B9D46FFF7F5FF0021D1
S315080071108B460F461348144A121A52F08CFA0E4B35
S31508007120002B00D098470D4B002B00D09847002025
S31508007130002104000D000D48002802D00C4800E08C
S3150800714000BF35F075FE200029002BF0D9FB35F07D
S3150800715049FE00BF00000800000000000000000013
S3150800716000120020A81B0020646E01200000000009
S315080071700000000008B5134BA8220021184652F05B
S315080071805AFA032210490261426100F1A80281619C
S31508007190C2614FF440720262002203468262426272
S315080071A0C262016600F56A7141660849826602672D
S315080071B0C266426711F8010998540132102AF9D1BA
S315080071C008BD00BF00180020209F0508389F050845
S315080071D070B5182400FB0445144B16461D4404FBE1
S315080071E00033DC6A012C0ED0022C18D0E4B92846EC
S315080071F038F04AF8864204D83246284638F04DF820
S315080072003446204670BD284638F03EF88642344655
S3150800721028BF04462846224638F03FF8F1E72846B4
S31508007220BDE8704038F055B80024EAE70018002099
S3150800723070B50D4C054623780E460BB9FFF79AFF35
S31508007240022D0DD8EFF311834FF0200181F3118839
S31508007250182000FB0544E66283F31188002070BD00
S315080072604FF0FF30FBE700BF001800200022014660
S3150800727030B50C4CC0E90022002541F8084F00241F
S315080072800262426AC0E9064502F4400242F07C52B4
S3150800729042F47C124262028D016102F0FE0202850E
S315080072A030BD00BF7D73000890F8273070B55B06C7
S315080072B004462CD5164B256993F8996008304EB9C3
S315080072C0854224D00BF004FF31462046BDE87040C5
S315080072D038F028B885421AD11FF094F90022002305
S315080072E0C4E90623626A0B4B2062134043F000434D
S315080072F043F48073636294F8283028466FF30003DA
S3150800730084F828300221BDE8704043F042BE70BDC3
S31508007310A83B00200000FF7F90F8273070B55B0679
S31508007320044628D5144820F03FFD7F2805460ED090
S3150800733094F92960B042B4BF00210121204638F0F3
S3150800734035F8B54203DA4FF48073A38405E0A38CBD
S31508007350032B4FEA53020CD9A28404210020A58CE2
S3150800736043F0B6FC291804F10800BDE8704043F064
S3150800737010BE0223E9E770BDA81B00200148FFF7ED
S31508007380CBBF00BF704500202DE9F84F0F461646C3
S3150800739083460025DFF8949002F1FF3AD8461BF899
S315080073A0014BA4B35C2C24D19BF80020A2F109035D
S315080073B0DBB2172B0DD95C2A0FD1404652F0DBFA07
S315080073C059460246404652F01CF91BF8013C23B9BF
S315080073D0E4E729FA03F3DB07EFD41DB11BF8023CF7
S315080073E0002BDBD1554511D06B1C47F82580DDB243
S315080073F0D4E7093CE4B2172CEFD829FA04F4E4439D
S3150800740014F00104E9D10BF8014CC7E70724721BF5
S31508007410D2B29200B54288BF0022002107EB850050
S3150800742052F009F92046BDE8F88F00BF1300800026
S315080074302DE9F3470E46044608B30378302B18D1D6
S31508007440437803F0DF03582B13D1012702340022B7
S315080074504FF0993915464FF00A08DFF870A02078E2
S315080074604FB10DF1070137F0D7FFA8B102B0BDE85B
S31508007470F0870027EBE73038C0B2092801D9072082
S31508007480F4E791457AEB05038DF80700F7D3A2FBDD
S31508007490082308FB053306E0B5F1805FEFD22B0120
S315080074A043EA127312019DF807100020891853F158
S315080074B0000328BF01200A461D460028DFD114F81C
S315080074C0010F0028CBD1C6E90013CFE7999999197E
S315080074D04FF6FF7210B500230264024604460A49B5
S315080074E0C0E90E3380F84430836442F84C1F426585
S315080074F0064A0366C0E9162000F1580104483DF023
S315080075004BFE204610BD00BFF175000845F803087C
S3150800751018320020F0B58DB004461FF073F800232A
S315080075200646CDE909330B93234601AD04F110074E
S315080075302A4618685968083303C2BB421546F7D16C
S3150800754005AD03F110072A4618685968083303C2BF
S31508007550BB421546F7D194F8363094F837208DF8A3
S315080075602C309DF82D30204862F3C3038DF82D305A
S3150800757006F048FF054640B3304638F074F8042252
S3150800758000906946284643F0A9F888B9A18DEB8B87
S315080075908B4211D315482946B0F8743601AAA4F8C7
S315080075A04A3000F5CE60B4F8483006F031FF48B1ED
S315080075B0284642F05AFF08E0284642F05AFF0028BB
S315080075C0E8D0F5E7238F01332387E38D04F14C00D8
S315080075D0013B9BB2E38523B1216B43F0DAFC0DB086
S315080075E0F0BDA18EF9E700BF18320020A82B0020B5
S315080075F0014838F099B800BF784D002043680BB1B0
S315080076000148184718467047A81B002010B50A46B7
S315080076100C468AB0202307210B480BF0A5FC80B145
S31508007620202120464DF052FD18B1202120464DF06C
S315080076304DFD2023224600930721034802AB0BF099
S31508007640A3FC0AB010BD00BFE41B00202DE9F041E1
S31508007650CEB01F46549C2E4B05460E4690460393C5
S31508007660002C47D0237814A88DF80B3042F058FB2D
S31508007670284604A9FFF7CAFF4FF48075BFB214A8BD
S3150800768042F063FB327C31460732D20814A842F036
S3150800769062FBB8F1000F04D03A46414614A842F0FE
S315080076A05AFB042203A914A842F055FB01220DF146
S315080076B00B0114A842F04FFB202204A914A842F09B
S315080076C04AFB0CA914A842F069FB06F108000CA9AC
S315080076D001903EF006F901983EF068F960B19DF810
S315080076E00B30013D0133ADB28DF80B30002DC6D1FC
S315080076F0012406E02346B6E71CB19DF80B3023703B
S31508007700044614A842F019FB20464EB0BDE8F081A5
S315080077107770616E2DE9F047044688070E468AB0F1
S3150800772036D54FF00009474F04F1080504F16808FB
S3150800773007F53F6A45452BD0AB7C99071DD52378BD
S31508007740EBB1CDF80C90504604AA03A93AF0F4FF21
S31508007750A8B99DF822305A07F5D49DF821301B07A1
S31508007760F1D5204604A9FFF749FF0028EBD12946A1
S3150800777004A838F075F80028E5D01835DAE7294660
S3150800778038463EF054FCAB7C6FF34103AB74F4E728
S31508007790F50753D52378002B50D000232A4E2B4FBC
S315080077A00393A6F53F68304604AA03A93AF0C4FF36
S315080077B0002843D19DF822305807F4D49DF821308B
S315080077C01907F0D59DF82030402BECD1204604A9A6
S315080077D0FFF714FF0028E6D1D7F814571DB329463A
S315080077E004A838F03DF80028DDD16D69F6E79DF864
S315080077F021202846D3090CBF80219DF82010C2F30A
S3150800780080023EF0E8FC284604A93EF05CF9002315
S3150800781029461A4620460093FFF718FF2946404690
S315080078203EF0F7FBBFE704F1080504F168039D4243
S31508007830B9D0AA7C9207DAD51835F8E70AB0BDE8B8
S31508007840F08700BFBC320020AC3E0020A82B0020E9
S3150800785030B501F1310323F001035D780C46022DA2
S3150800786087B032D11B7813F0300F05D11378FF2B70
S3150800787002D0194844F0D3FB10230021204602AA5F
S3150800788043F00EFD08BB08236A460321204643F051
S3150800789007FDD0B9114B124DD3F81447ACB11022DD
S315080078A0204602A951F090FE28B9082269462846C2
S315080078B051F08AFE08B96469F0E72146094845F09F
S315080078C033F820B1084838F076F907B030BD2146BC
S315080078D006483EF0ACFBF8E79C330020A82B0020B6
S315080078E0D03D0020A0450020C8450020BC3200201D
S315080078F0014800F01BB800BF2446002010B5044616
S31508007900024A38F008F8204610BD00BFF178000892
S31508007910054A0160D2F8B02E1140016009B938F065
S3150800792005B838F00BB800BFA82B002070B505467F
S315080079300446002215F80B1F11483AF06BFAFF2689
S315080079402946204640F027FC08B1E672F8E7E27AB5
S31508007950237B9A420AD02189606843F0C8F9014618
S3150800796004F11000BDE8704043F013BBA37A002B66
S31508007970F1D0013BDBB2A372002BECD170BD00BF86
S31508007980203C00200148FFF7D1BF00BFDC4D002096
S31508007990002310B5C0E900338360FF230373034651
S315080079A0064A044643F8102F8361054A1C300BF03B
S315080079B0D7FB4FF4FA732046238110BD857900085A
S315080079C0C5790008014837F0F7BF00BFDC4D002035
S315080079D00A4B13B593F89930022B04D802B0BDE8C8
S315080079E0104037F0DFBF08230093054B00211A46E5
S315080079F01C3043F0E4FC02B010BD00BFA83B0020D9
S31508007A00807F0A00024B93F8AE3E037337F096BFA9
S31508007A10A82B0020002313B5044601A90C4801939E
S31508007A2008F03CFE88B9019979B123688B420CD0DD
S31508007A302046FFF76DFF01A840F0C0FB054BB3FBDE
S31508007A40F0F060602046FFF7DDFF02B010BD00BF12
S31508007A5034390020C13F050043888B4208D0418055
S31508007A60044890F89930022B02D178303AF022BCBB
S31508007A70704700BFA83B002038B5044634F8083BD9
S31508007A80054683B10A4890F8993063B10C3001F085
S31508007A90A9F940B94FF47A712B8820465943BDE8B5
S31508007AA0384043F076BA2046BDE838400BF010BBA4
S31508007AB0A83B00204FF4010310B5036003460446B3
S31508007AC0044ABE2143F8082F036137F091FF204688
S31508007AD010BD00BF497B000838B500F1080304460D
S31508007AE00069984212D08AB1094D95F89930022B4F
S31508007AF00CD105F1D40001223AF005FE9C358542E9
S31508007B0004D12046BDE83840FFF7B6BF38BD00BFF0
S31508007B10A83B002038B50B4D044695F89930022B42
S31508007B200BD105F10C0001F05DF930B9A38805F118
S31508007B3078000133A3803AF0BDFB2046BDE8384003
S31508007B40FFF79ABFA83B00200148FFF7E3BF00BF35
S31508007B501046002000220B4910B5C0E90212014662
S31508007B60094CC0E9002241F8104FC0E9061202622A
S31508007B7080F82420828590F86E2022F0030280F88F
S31508007B806E2010BD657E0008A17E00082DE9F04133
S31508007B90DFF8D4810E4698F8F01798B017461C46B9
S31508007BA005469DF878201F9B002900F0CE8090F8A6
S31508007BB02410002940F0CB8090F86E1062F3000183
S31508007BC080F86E107AB1002B48D106A9A8F5805026
S31508007BD01FF016FE06A9084640F017F905F11C0124
S31508007BE006A840F0E0F8209B2B60219B6B6095F877
S31508007BF06E306FF3410385F86E30D8F8B02E2A62DE
S31508007C0033680BB11A402A621021544839F0F7FF3D
S31508007C100646002800F09D8080238DF80430022354
S31508007C208DF80530002387848DF80730CCB94023BA
S31508007C3095F82D208DF80630F2B1F1238DF818301D
S31508007C40AB6A402A4FEA13418DF81A104FEA1321FE
S31508007C508DF81B108DF81C3005D9FEE71868E86109
S31508007C60C1E74823E4E7D31C05F12E010DF11D00F9
S31508007C708DF8193051F0B8FC1A2301A88DF8003098
S31508007C8043F0CCF9C4B295F82D0018B106A843F014
S31508007C90C5F9C0B204440222694630468DF801404F
S31508007CA042F01CFD044688B9314601A843F0C9F9DB
S31508007CB0044658B995F82D3063B902A806F0DEFFD8
S31508007CC0304602A902F01EFB044658B1304642F07F
S31508007CD0CCFB36E0314606A843F0B3F90446002843
S31508007CE0EBD0F3E74FF6FF739F420FD1B8F8AC3EDF
S31508007CF0BB420BD141F06EFC0146194809F072FCF3
S31508007D0095F86E3043F0020385F86E30FF23294656
S31508007D1005F1200001F82C3F40F03DFA00280CBF81
S31508007D20012302230F4885F8243090F8994044B17E
S31508007D3090F8D84014F008040DD101210C3001F058
S31508007D4059F8204618B0BDE8F0810D24F9E7052456
S31508007D50F7E70324F5E70024F3E700BF203C0020FB
S31508007D604C3A0020A83B0020A82B002090F824308D
S31508007D7010B5012B0C4606D013F0FD0F14BF0C46A8
S31508007D800024204610BD90F82C308B7181F82230E3
S31508007D9090F82C10014840F054FDF2E74C3A0020C8
S31508007DA010B50446184890F899303BB190F8D810A9
S31508007DB011F0080102D10C3001F01CF894F82430B7
S31508007DC0012B02D0022B07D010BD04F110000BF0D6
S31508007DD07FF90E4839F0E2FB0D4840F044FD94F86F
S31508007DE06E309B070AD54FF6FF71094809F0FAFB72
S31508007DF094F86E306FF3410384F86E3004F108008E
S31508007E00BDE810400BF000B9A83B0020B43B0020A9
S31508007E104C3A002038B590F824300546012B0C461C
S31508007E2002D0022B18D038BD91F82C3043F08003CD
S31508007E3081F82C301EF0E6FB094AA06192F8403022
S31508007E4005F1100043F0040382F840304FF49671B0
S31508007E50BDE8384043F09DB8BDE83840FFF7A0BFFD
S31508007E60A83B0020014837F0CABD00BF383E0020B5
S31508007E7090F8243010B5012B04460DD100F12C01E1
S31508007E80203040F088F910B1022384F824300348E2
S31508007E90BDE8104039F082BB10BD00BFB43B0020DE
S31508007EA00148FFF7E5BF00BF383E002038B500257A
S31508007EB00446084B85604360838B857703F0FE0391
S31508007EC08383056245642C303EF07CF92046656262
S31508007ED0A56238BD65830008002313B504468DF8EE
S31508007EE0043008210123054801AA0BF03DF810B912
S31508007EF09DF80430A37702B010BD00BFE41B002034
S31508007F001FB5837F08218DF80830012302AA009344
S31508007F10034803AB0BF038F805B05DF804FB00BF67
S31508007F20E41B002030B5837F85B08DF80F300DF146
S31508007F300F030093002300F12C0104461A46084853
S31508007F40FFF784FB054640B99DF80F30A27F9A4299
S31508007F5003D02046A377FFF7D3FF284605B030BDE8
S31508007F6014350020012310B5437704461EF04AFB5A
S31508007F7004F12C0120620248BDE810403EF049B8E1
S31508007F80BC320020437F10B5022B044607D1037F7D
S31508007F90DB0704D502460949094843F0FBFB0022E2
S31508007FA094F83E30627762F3000384F83E3004F1B9
S31508007FB02C010448BDE810403EF039B8C5FC03085A
S31508007FC09C330020BC32002070B5044608460D4696
S31508007FD03DF0ECFC18BB04F1240630463DF061FC8C
S31508007FE038B908222946304651F0EEFA08B9002079
S31508007FF070BD33462868696803C30A4804F12C0132
S315080080003EF0BAF80028F2D02046FFF7BBFF636AB5
S31508008010204663637368A363FFF7A4FFE7E70720B7
S31508008020E6E700BFBC32002038B54B1E012B0446DC
S315080080300D4611D8037FDB0704D502461E491F48A3
S3150800804043F0A8FB2046FFF79DFF022D08D11C4DE3
S3150800805095F8143A6BB9FEE7032902D00029F6D041
S3150800806038BD00F12C0117483EF086F80028EED0FE
S31508008070F6E784F83C3004F12C0310220021184658
S3150800808051F0D9FA05F6042104F124053DF01BFD4B
S3150800809028463DF006FC40B9636A6363A36AA36396
S315080080A02046BDE83840FFF75DBF2046FFF73AFF98
S315080080B00028F5D0D4E700BFC5FC03089C33002090
S315080080C0A83B0020BC32002070B500F12405044608
S315080080D028463DF0E6FBD0B90822294604F13400CB
S315080080E004F12C0651F070FA70B9314608483EF092
S315080080F043F848B12046FFF745FF2046FFF712FF31
S3150800810010B92046FFF72EFF002363626B6070BD2F
S31508008110BC320020436C052102480BB942F0C4BEAC
S3150800812042F0AABED41B00201FB5044601A90B487D
S3150800813044F0E5FB80B9BDF806100120012901D9F4
S3150800814042F0B5FDB4F844300BB1834204D9A4F823
S3150800815044002046FFF7DEFF04B010BDA04500200E
S3150800816030B50D46A905044687B00ED513491448FF
S315080081703EF002F848B1114901AAA1F5E96004F0F8
S315080081805FFB10B12046FFF7FDFE0E4839F09BFB5A
S3150800819010B9606407B030BD6A0706D50A4B93F874
S315080081A06D3113B12046FFF7BFFFEB07F2D501216A
S315080081B0204607B0BDE8304037F00EBDF445002034
S315080081C0BC320020203C0020A83B002001F0FD0125
S315080081D0012910B504460DD1074890F8D8309B07F9
S315080081E003D49C3037F0DCFC20B12046BDE81040B3
S315080081F0FFF79ABF10BD00BFA83B0020F0B593B0AB
S3150800820004462C22002107A851F015FA4FF2BF03A5
S315080082104B48ADF83E3039F056FB20B34FF6FE73A7
S31508008220484EB6F8F8299A421DD0237FD9071AD4A2
S3150800823096F8D8309A0704D406F19C0037F0B0FCBB
S3150800824088B1637F012B0ED194F847305BB925219D
S315080082503D4843F081F9054638B90521204637F0EF
S31508008260C5FC002D68D113B0F0BD637F012B25D165
S3150800827094F8473013BB03AF3A4604F12C0304F1D4
S315080082803C0EBC46186859680833ACE803007345C9
S315080082906746F6D110230021284643F01CF800282B
S315080082A048D1082303212846284A43F014F8002811
S315080082B040D1022363771EF0A5F9206296F8D830DC
S315080082C09B0703D4224837F06BFC28BBB6F8F8297D
S315080082D020490BA83DF002FC07A805F0BDFA29467F
S315080082E01D4B1948009407AA0AF0B2FF074608BBB7
S315080082F0237F04F10C0543F00103237703AB0FCB6F
S3150800830085E80F00676496F8D81011F00801AAD11D
S31508008310124840F025F8A6E711480DF10B010AF0BE
S31508008320FDFF38B99DF80B1005480BAA39F0F5FA88
S315080083300028D1D0032890D0284642F096F892E734
S31508008340203C0020A83B00209C330020D03D002084
S31508008350443C0020E03D0020C5FC0308043C002006
S31508008360A04500200148FFF749BF00BFC8450020C7
S3150800837070B501F1310323F0010393F90130054685
S31508008380002B0E4686B01EDA062306AC8DF807309B
S3150800839000F10C030FCB04E90F00284802A944F0AA
S315080083A0C3FA002848D0264802A93DF0E5FE04464F
S315080083B0D0B19DF80740062C30D8DFE804F0192123
S315080083C0313539393900042130460DF1070242F0BA
S315080083D031FF044640B901461023304602AA42F04E
S315080083E05FFF04460028D8D02846FFF793FE04E02E
S315080083F01EF008F9032328626B77204606B070BD85
S315080084000F4805F12C013DF0B7FE04460028F4D0CC
S315080084102846FFF7B7FD2846FFF7A4FD0024ECE73A
S315080084202846FFF7AFFDF9E7284637F0C4FBF5E71E
S315080084302846FFF779FEF1E70224D5E7A045002094
S31508008440BC32002038B501F1310323F0010305469B
S3150800845058780C4602280CD11B7813F0300F02D13D
S31508008460044843F0DCFD21462846BDE83840FFF7BE
S315080084707FBF38BD9C3300200022C0E904228261F8
S31508008480027702620246024942F8241FC262704716
S315080084902D8600082DE9F04101F1310828F0010880
S315080084A098F801300446022B0D46164686B06FD161
S315080084B0362128460DF1070242F0BCFE002867D196
S315080084C03721284603AA42F0C7FE002860D1382182
S315080084D028460DF10E0242F0BFFE002858D1284664
S315080084E008F04CFE0746002852D0206A08B141F031
S315080084F0BCFF1221284843F02FF82062002847D0F5
S3150800850035238DF8103006238DF8113000233946AF
S3150800851004A8CDF81230ADF8163008F0E7FD216A48
S3150800852004A842F08EFD98BB39230222206A02A9CC
S315080085308DF8083042F0D2F850BB9DF80730C4E9F0
S3150800854004772377BDF80C3060772383BDF80E30A7
S315080085504FF47A71638304F1240042F01AFD06F1A0
S31508008560200706F11003224618685968083303C223
S31508008570BB421446F7D198F8003013F0300F07D1F4
S315080085803378FF2B04D032462946034843F047FD8B
S3150800859006B0BDE8F08100BF9C33002010B58CB052
S315080085A004462C22002101A851F045F84FF2BF03DA
S315080085B0206AADF82630C18B637F0139C91A04F1E8
S315080085C01D02012389B242F066F8214601A83AF055
S315080085D069FE216A064801AA43F0BFFC18B1206A61
S315080085E008B141F042FF002323620CB010BD00BF62
S315080085F09C330020036A07B5024653B1037F5BB17B
S315080086004169009248420140064B528B06483FF0AA
S31508008610D5FF03B05DF804FB03B05DF804EBFFF784
S31508008620BDBF00BF2FFD03084C3A00200148FFF7E5
S31508008630E1BF00BF6446002038B58B05044610D557
S31508008640036A73B107483AF044FB054648B9206AFD
S3150800865041F00BFF256204F12400BDE838400AF01A
S3150800866037BD38BDAC3E002038B50024054D21463F
S3150800867005F1A800C5F8B44040F0D6FFC5E92B447B
S3150800868038BD00BFA83B002070B50646E0B004A878
S315080086900C46154641F013FB0023326801A904A8CD
S315080086A00193ADF80830039241F01FFB230E8DF8B5
S315080086B00030230C69468DF8013004A8230A0422E9
S315080086C08DF802308DF8034041F015FB062204A808
S315080086D0054941F010FB294604A841F012FB04A8FD
S315080086E041F0FBFA60B070BD3A9F050870B50446C4
S315080086F096B041680EAAFFF7C7FF02AD0EA9002281
S3150800870004F1080040F0B8FF284637F01AFB0AAE15
S3150800871006A837F016FB304637F013FB284612A991
S31508008720012240F0A9FF616820460EAA0139FFF729
S31508008730ABFF12A906A8012240F09EFF61682046F9
S315080087400EAA0131FFF7A0FF304612A9012240F018
S3150800875093FF6268082102F07F02CDE900560348BC
S3150800876006AB013209F068FF16B070BD743A0020F6
S3150800877013B50C462830019240F056FF2146019A5F
S31508008780024802B0BDE810400AF044B8743A002026
S31508008790836A994207D3036B01319942816202D3F6
S315080087A0014802F07DBD7047203C0020C36A426B39
S315080087B001339342C36202D3014802F071BD704788
S315080087C0203C002038B50B8804460D46A3B1042288
S315080087D0683050F0F9FE30B9BDE838404FF48011E2
S315080087E0064842F046BA2B684FF48011A366034840
S315080087F0BDE8384042F031BA38BD00BFBC1B002086
S31508008800002302498363443042F0C3BB80EE36003E
S3150800881038B5436804468B420D4606D1BDE8384054
S315080088204FF48071144842F024BA01338B4210D1B8
S31508008830C26C00F144039A420BD090F840302BB139
S31508008840D0E90E239A4216D3FFF7DAFF012384F8FC
S31508008850403020466560FFF749FF00222046114652
S31508008860FFF786FF00234FF48071E3620248BDE8F4
S31508008870384042F0F2B938BDBC1B002010B504469A
S31508008880836B0A4A01338363816C443042F07BFB75
S31508008890B4F86830A26B9A4206D361682046BDE8F0
S315080088A010400131FFF7B4BF10BD00BF80EE36009F
S315080088B00148FFF7E3BF00BFD839002030B50446AA
S315080088C0114887B00D4605907AB1059837F034FA05
S315080088D010230222CDE9015301231146009305A86E
S315080088E009231DF087FF20B1FEE74CF051FB002855
S315080088F0EBD02068059B984201D037F01DFA059BFE
S31508008900236007B030BD00BF0100020030B5002566
S31508008910044685B04560083037F013FA04F11800AC
S3150800892037F00FFA4FF41C73E3632346174AC4E97A
S315080089300B55C4E90D5584F8405043F8442FE364B9
S3150800894004F1540037F0FDF904F16800656637F064
S3150800895009FA94F86C3065F3000384F86C304CF02F
S3150800896007FB4FF0004310212360236568464CF04F
S31508008970ADFB2A4669462046FFF7A0FF04F128000A
S31508008980294640F051FE204605B030BDB1880008A2
S3150800899030B503680446002B0D4685B00FDB6946E3
S315080089A037F0ABFA10222946684650F00DFE30B96A
S315080089B04FF480210F4842F05CF905B030BD012222
S315080089C029462046FFF77AFF4FF48021094842F0EE
S315080089D044F94FF48071074842F03FF900232046D6
S315080089E06360FFF783FE204605B0BDE83040FFF719
S315080089F03BBE00BFBC1B002038B5044600680D46C8
S31508008A00884206D1BDE838404FF480210C4842F030
S31508008A1030B937F091F94FF480210948256042F0C2
S31508008A201CF94FF48071064842F017F900232046D6
S31508008A306360FFF75BFE2046BDE83840FFF714BECB
S31508008A40BC1B002010B50446083040F00DFE04F1AA
S31508008A5054000A4C40F008FE204640F005FE04F19A
S31508008A60100040F001FE04F1200040F0FDFD04F581
S31508008A708670BDE8104040F0F7BD00BF983A002068
S31508008A80002330B5084685B013600D4614468DF8A8
S31508008A900C303CF0C3FF10B9132005B030BD01A956
S31508008AA005F108003CF041FF0122064801A939F00A
S31508008AB02AFE20600028EFD0038C022B8CBF0020F2
S31508008AC01B20EAE77C3C0020F0B585B0154601AAD4
S31508008AD00F461E46FFF7D4FFB0B9CDF809008DF84A
S31508008AE00D008DF8085036B130460DF1090137F002
S31508008AF0C8FC8DF80D0015B19DF80D3033B939460F
S31508008B00034802AA02F02AFB05B0F0BD0720FBE7DE
S31508008B10203C00202DE9FF41154601AA0E461F46B6
S31508008B20DDF82880FFF7ACFF0446F0B90DB3032340
S31508008B308DF80830022338468DF809308DF80A502A
S31508008B4037F0C0FC8DF80B00B8F1000F04D0404692
S31508008B5003A937F096FC044602343146064802AAB1
S31508008B608DF8094039F0DAF90446204604B0BDE824
S31508008B70F0810724F9E700BF203C00207FB51546A1
S31508008B8001AA0E461C46FFF77BFFE0B9072305B985
S31508008B90F4B98DF8083001238DF80A508DF809309C
S31508008BA024B120460DF10B0137F06BFC01308DF82E
S31508008BB009003146074802AA39F0B0F9019B24B1E9
S31508008BC0227883F8302004B070BD83F83040FAE785
S31508008BD01846F8E7203C002070B594B0144603AA5E
S31508008BE00E461D46FFF74CFF60B9402D0CD8631E94
S31508008BF0DBB2FD2B08D8224631460448009504AB63
S31508008C0039F054F914B070BD0720FBE7203C00206A
S31508008C10107838B51546C2061C4601D5FE2038BD63
S31508008C20012916D1C307F9D48107C0F380030BD4F1
S31508008C300BB90207F2D52346A28B29780A484CF0CD
S31508008C4078FC0028EBD0E9E7002BF4D00307E5D43D
S31508008C50F1E70029E2D18507E0D44107DED402070F
S31508008C60DCD401469A8BE9E7A81B002010B5044618
S31508008C70064809F07BFC0246204637F0A3FCBDE80F
S31508008C8010400146104637F0C6BC00BF743A0020B3
S31508008C9002299FBF0A4B0B4A5B5C525C89BF1421B1
S31508008CA016210A220223814206D3824206D3834230
S31508008CB02CBF002001207047032070470220704710
S31508008CC0409F0508439F050810B50648144639F025
S31508008CD000FF30B12046BDE810401422002150F0B4
S31508008CE0AABC10BDAC3E002010B50748144603F0D8
S31508008CF0A7FD08B9A37C33B92046BDE81040142265
S31508008D00002150F098BC10BDAC3E002070B504465A
S31508008D1000250E461022002150F08DFC94F83430C0
S31508008D20314623F00F0384F834300D4B2561C4E92E
S31508008D300E35E582A56184F8245084F82E50256303
S31508008D4004F1500008F082FA0AF0B6F81022A08260
S31508008D50294604F1400050F06EFC204670BD00BF65
S31508008D60BD90000810B590F8343004469B0709D426
S31508008D70012105483FF02EFD94F8343043F00203F4
S31508008D8084F8343010BD00BF4C3A002010B590F876
S31508008D90343004469B071DD550303FF021FA002198
S31508008DA00D4842F081F80D48FEF7FAFF204641F0DB
S31508008DB02DFF04F1100041F0D4FD002194F8343061
S31508008DC0A1616FF3410384F834300548BDE81040CB
S31508008DD03FF000BD10BD00BFD41B0020383E002068
S31508008DE04C3A0020024B93F8A40EC0F3800070475B
S31508008DF0A82B002038B504460D460A483FF0EAFC81
S31508008E0004F1500035B13FF0EBF9BDE838400648AB
S31508008E1036F0E9BD08F0B4FABDE83840024836F045
S31508008E20E5BD00BF4C3A002010460020084610B5A4
S31508008E301446114608303CF078FD082220460549BC
S31508008E4050F0C2FB28B1044BB3F8D03E238001236F
S31508008E50237210BD7A3A0020A82B002038B50B786B
S31508008E600D46FF2B144605D14FF6FF7323800123C9
S31508008E70237238BD064839F0F5F910B1EB895BBAAB
S31508008E80F4E7214605F10800BDE838403CF04DBD41
S31508008E90203C002070B50C4690F834308AB06FF349
S31508008EA0000380F83430054628236A460021204608
S31508008EB041F099FB9DF80830FF2B2CD0244E28460C
S31508008EC005F11C0202A9FFF7B1FF96F89930012BAC
S31508008ED00CD806A83CF0A2FDC0B1284605F126022A
S31508008EE006A9FFF7BBFF00200AB070BD9DF8182041
S31508008EF0FF2A12D006A83CF091FD0028EDD196F87D
S31508008F00D83003F00A030A2B19D1FEE706A83CF06D
S31508008F100FFE0028E1D10220E6E7022B06D04FF625
S31508008F20FF73EB84012385F82E30DCE794F82D30A7
S31508008F30DB07F4D5204641F0C9FA0028EFD14FF6F1
S31508008F40FF7106F1780038F080FDE884EAE700BF93
S31508008F50A83B00209DF800000AB9CA7770470E2A78
S31508008F600DD1CA7F0132D2B2CA7743B18B8BC3F314
S31508008F70080323B9904202D8014801F027BD70477B
S31508008F80203C00202DE9F3410F46194690F834306D
S31508008F9016469A0705469DF8208004D400242046E4
S31508008FA002B0BDE8F08101220E4839F0ACFB044658
S31508008FB00028F3D03B681B789B06F0D51A21384663
S31508008FC040F049F958B1B8F1000F08D00F230093C3
S31508008FD03246012321462846FFF7BCFFDFE7042374
S31508008FE0F5E700BF7C3C00202DE9F0410C468AB02D
S31508008FF006461DF007FB94F82C100746CB09D4F853
S3150800900018800FD0208C68B911F0070523D129469E
S3150800901028236A46204641F0E6FA194802A93DF097
S31508009020ABF808B1002016E0A7EB0802B2F5FA7F04
S31508009030F8D39DF8013013F0300FC3F301110DD1A9
S3150800904094F82C3030466FF3C713214684F82C3039
S3150800905038F0D9FA02200AB0BDE8F081B2F57A7F75
S31508009060EED20329DED023F0300343F03003014665
S315080090708DF801306A462823204641F00CFBD1E7DB
S31508009080BC32002010B590F8343004461A0712D4C2
S315080090905B0710D438F0E1FAA06160B1038C2BB9F4
S315080090A090F82D3043F0100380F82D300248BDE8C3
S315080090B010403FF0A2BA10BD4C3A00200148FFF715
S315080090C0E1BF00BFB43B002038B51D46836904469E
S315080090D0ABB193F82C20D20900D1FEE741B193F841
S315080090E02D206FF3041283F82D208369DB8BC3824E
S315080090F0A069E18AC38B8B4207D941F0E1F904F1F3
S315080091003800BDE8384009F07FBF90F82C300021C0
S315080091106FF3C71380F82C30A06941F0D1F94DB12F
S31508009120A369802293F82D1005F12800C1F30011D8
S3150800913037F013FAA16991F82C3058070AD191F83B
S315080091402D30DA064BBF236CA36C013301334CBFB9
S315080091502364A36491F82C30C3F3C303022B06D00F
S315080091600A2B08D02046A16938F04DFAC7E7064809
S31508009170FEF750FEF6E791F82D30DB07F2D50348E7
S3150800918039F08EF8EEE700BF383E0020203C00207C
S3150800919008B538F008FB014620B9BDE80840024882
S315080091A041F082BE08BD00BFD41B002007B5134698
S315080091B091F82C20520702BF426C01324264002209
S315080091C00348009205F0EAFB03B05DF804FB00BF14
S315080091D0F431002030B591B01C4601A8194B3CF07B
S315080091E097FA054688B9BDF8040040BAC0F3851059
S315080091F005F0E2F99DF80A3020703A2B08D19DF95E
S315080092002C30002B01DB03232370284611B030BD18
S31508009210112BFAD1BDF82E2052BA93B244F64C520D
S315080092209342F0D0084807AA03A904F09BFB00283C
S31508009230EBD0BDF8040040BAC0F385103AF060F8E8
S315080092402070E2E7A81B00209C3300202DE9F0419E
S31508009250044603C91D4686B004AF87E80300904656
S3150800926020462A4639460DF10B030C9EFFF7B2FF3E
S31508009270044620BB01219DF80B2003A841F0D3F832
S3150800928021462246114803AB41F044FC01463060B2
S31508009290C8B13B462A460E48CDF8008038F060F83B
S315080092A0044660B9BDF814200499306841F016FAEE
S315080092B0044620B9BDF81410306841F0F5F8204688
S315080092C006B0BDE8F0810324F9E700BFE81B0020DB
S315080092D0483A00202DE9F0411D46002388B004468F
S315080092E004A80E461746039338F0EFF8002840F016
S315080092F0A680BDF81430002B51D1BDF8108003AB01
S31508009300009342463B4631462046FFF79FFF00281A
S3150800931040F095800398C38B434500F29080414600
S3150800932041F0A7F8002840F08A80039EBDF8123065
S3150800933073611DF067F92946B061039841F0A9FAEF
S315080093400399424805F016FD002878D0404B93F85B
S31508009350A43E580707D4039B93F82D30D90702D5A6
S31508009360204638F006FA039904F11000012241F06C
S31508009370ABFA0021374841F07FFD03990A8CCB8B65
S315080093809A4209D304F1100041F0BEFA3B462A4638
S3150800939020460399FFF70AFF08B0BDE8F08104F1FB
S315080093A0100106A841F036FB069901B3BDF8103046
S315080093B0CA8B9A4216D1BDF812004B69984211D150
S315080093C00B8CBDF8140098420CD1B3880344934221
S315080093D008DC91F82D206B7902F0010203F00103F5
S315080093E09A4203D006A841F0F5FADDE70391184B37
S315080093F093F8A43E5A0707D4039B2BB96B79DB076E
S3150800940002D5204638F0B5F90398C0B1B38832685A
S31508009410018C41F040F9B188039841F045F803986A
S3150800942095F90310283037F0A8F8039829792A30D7
S3150800943037F0D7F8039E1DF0E5F8B0619DE703986D
S315080094400028A9D041F011F8A6E700BFD2390020BC
S31508009450A82B0020D41B00207FB5154600221C46E9
S3150800946003AB00932B4606460392FFF7EFFE18B1AF
S31508009470039890B904B070BD2146039841F009FAE3
S315080094800399074805F076FC0028F1D02B462246BA
S3150800949030460399FFF78AFEECE740F0E6FFE9E776
S315080094A0D2390020002370B58EB08DF814308DF8AF
S315080094B01E3090F8343005469B070C4634D52046B6
S315080094C003A93FF0D1FB78BB20460DF116013FF00A
S315080094D00CFB48BB214608A838F009F820463FF09F
S315080094E043FE064620463FF05EFE9DF82520ADF871
S315080094F0080002F00102164803A90196FEF7ECFAE5
S3150800950023681B7803F00703012B0DD101A837F058
S315080095109AFF48B901A837F0B0FF38B1284608AB1A
S3150800952003AA01A9FFF7D6FE0EB070BDBDF8083034
S31508009530002BF9D0019B1B7803F0E003602BF3D1D5
S31508009540284608AB03AA01A9FFF786FFECE700BF88
S315080095501046002029B191F82C30C3F3C303022B1F
S3150800956002D0024808F028BB002070474C3A002079
S31508009570002337B58DF80730136815461B7803F0B6
S315080095800703032B1BD0E1B1CC8B003C18BF012489
S315080095900D4808F011FB80B128460DF107013FF090
S315080095A085FE95F8233043F0080385F8233024B167
S315080095B028460DF107013FF084FE03B030BD0124B3
S315080095C0E6E70C46E4E700BF4C3A00202DE9F04FE9
S315080095D087B0DDF84C901F46109B0D46494605930B
S315080095E0904604469DF844B09DF848A0FFF7B2FFA0
S315080095F00122064607F10A010E4839F084F8324678
S315080096000146204638F0F7F8059B02460093414686
S315080096103B462846CDE901BA3FF069FB3EB12A46EA
S315080096204946204607B0BDE8F04FFFF7A1BF07B08F
S31508009630BDE8F08F7C3C00202DE9F04F2DED028B24
S3150800964007460E46144695B099469DF88030DFF8D1
S3150800965034B20593BDF884300693BDF88830079375
S315080096609DF88C30089394F82D2094F82C3012F03D
S315080096700102C3F3C30307D0012B52D0042B0CBF3E
S3150800968000210821052200E00821BBF8AC0E012BB9
S31508009690ADF82C00ADF82E0045D00E3303F00F03BD
S315080096A0012B02D8A38CADF82E300BAB3846CDE98A
S315080096B0021401923146012200934B46FFF786FFBA
S315080096C030463FF051FD099030463FF05FFD09995D
S315080096D002460DA840F0DCFBB4F820A0BAF1000F52
S315080096E040F08580BDF83830BDF83A8008EE103A6B
S315080096F0A8F10403ADF83A30059B03B3069B079A15
S31508009700ADF83C300123ADF846208DF844308DF88D
S315080097104E3021465A480DAB0FAA37F027FBE8B161
S31508009720FEE71021AEE794F8263086F82230B371AA
S315080097309BF8AE3E86F822304FF6FF73B3E74B46EA
S315080097400FAA09F1100C154618685968083303C59D
S3150800975063452A46F7D118682860DAE7238CE58B33
S31508009760ADF83A80ED1A089BADB23BB9BDF8383072
S31508009770A8EB03081FFA88F8A84555D294F82D10C7
S3150800978011F0010119D0636943B3E38BA28AC3F3CD
S315080097900A036FEA83436FEA93435BBAADF8303046
S315080097A053BAADF8323018EE101A04230CAA0DA8D5
S315080097B040F0E6FB002837D0FEE72046099140F046
S315080097C085FE0028DFD02046099940F079FE94F8F6
S315080097D02D3043F0010384F82D3044E7BB8A0BB9DA
S315080097E00123BB82BB8A5A1CBA826361CDE7E38B2D
S315080097F0A28AC3F30A036FEAC3436FEAD3435BBA89
S31508009800ADF83C3053BAADF83E3005224FEADA03DC
S315080098100FA90DA88DF8403040F03FFB00B1FEE7D8
S31508009820E58B238CED1AADB2BDF83820BDF83A3079
S3150800983021469B1A9BB29D4284BF23F007039DB223
S315080098402B46228C0DA840F07CFB00B1FEE7304683
S31508009850BDF838103FF0B4FC238C1D44E38BADB241
S31508009860AB4203D9012130463FF0D6F8204651468F
S3150800987040F026FE284615B0BDEC028BBDE8F08FF9
S31508009880483A0020A82B00207FB590F834300446CB
S31508009890980701D400253AE0A269002AFAD043F0D5
S315080098A008030D6884F8343092F82C30590746D1ED
S315080098B0C3F3C303022B2DD129462248FEF756FAD5
S315080098C005460028E6D00026638EA2690293238EF9
S315080098D02946019394F83430204603F00103009397
S315080098E0039604F11C03FFF7A7FEA369E08293F829
S315080098F02C20C2F3C3020A2A03D193F82D20D207DB
S315080099001AD495F823306FF3410385F82330284697
S3150800991004B070BD0C4808F04FF90028D3D0A069F0
S3150800992040F0D4FD0028CED0A26992F82D3043F03D
S31508009930010382F82D30C6E7DB8BE382AAE7D38BD7
S31508009940FBE700BF383E00204C3A002038B590F8B7
S31508009950215004468D4205D1BDE8384004212348EC
S3150800996041F087B980F821100421204841F075F9A3
S3150800997094F82130042B09D8DFE803F003141A2BD6
S315080099803100B4F848310133A4F8483105B3002151
S3150800999004F1240039F0C8FC012D19D194F82130BE
S315080099A0022B0CE0B4F84A310133A4F84A31EDE74A
S315080099B0B4F84C31012D03F10103A4F84C3107D159
S315080099C094F8603083F00803C3F3C00384F8F730D3
S315080099D038BDB4F84E310133A4F84E31D6E7B4F8A1
S315080099E050310133A4F85031D0E700BFBC1B00202A
S315080099F090F8213010B5012B24D1B0F8640028B9AD
S31508009A0040F2EE2141F064F9013010BD013880B210
S31508009A101F2810D841F2AC22834093420BD8FB246E
S31508009A2084403221002041F053F90319A34238BF7C
S31508009A3023461846E9E74FF4FA61034841F057F917
S31508009A400446EEE70120E0E7804F120038B50446E9
S31508009A50184842F04EFF94F82130042B03D12146D2
S31508009A6015483CF0E4FA01212046FFF76FFF94F809
S31508009A70613013B1002384F86130002504F16800D1
S31508009A8009F026FB04F1800009F022FB0B48C4F814
S31508009A90F05084F8F7500121FFF7ACF9084890F820
S31508009AA0A43E00F6A46065F304130370BDE83840CD
S31508009AB008F0ACB8A0450020BC320020B43B00201A
S31508009AC0A82B0020012910B5044605D11B483DF0F6
S31508009AD04DFD1B483DF04AFD94F82130EBB119487D
S31508009AE036F0EAF92046FFF7B1FF174804F5F67194
S31508009AF03CF0C6FB144804F5EC713CF0C1FB124877
S31508009B0004F5E0713CF093FA0F4804F5D4713CF083
S31508009B108EFA00212046FFF719FF04F5007009F0B8
S31508009B20D7FAD4F80C323BB10022D4F81002C4F8A4
S31508009B300C22BDE81040184710BD00BF343900207C
S31508009B4068390020D8390020BC32002038B50546CF
S31508009B500021FFF7B7FF05F1F80006F087FB04467A
S31508009B6020B9034805F5C8713CF061FA204638BDAE
S31508009B70BC32002001210148FFF7A4BF203C002089
S31508009B804FF6FF72B0F83A31934211D090F821306F
S31508009B90023B012B0CD890F83911A0F83A21012084
S31508009BA04FF47A7300FA01F10322024835F0A4BE95
S31508009BB0704700BF2446002070B505460B4C00F5DB
S31508009BC0C876314620463CF032FA04F2BE7105F5F5
S31508009BD0CC703BF08BFE314620463CF01AFAA4F5D1
S31508009BE0B8500821BDE8704041F037B8BC320020B3
S31508009BF038B5044604F1F805FFF7DEFF2246284685
S31508009C00064906F039FB38B92846BDE8384001222E
S31508009C1044F64C513CF0D7BF38BD00BF8524040834
S31508009C20F8B5044600F5E07500F5EC7740222946BC
S31508009C30384604F5F6763BF049FF40222946304679
S31508009C403BF044FF94F82130E3B1114804F5D47190
S31508009C503CF0DFF939460E483CF0FCFA0C48314630
S31508009C603CF0F8FA204637F02EFE18B12946084887
S31508009C703CF0CFF994F82130042B03D1214604484F
S31508009C803CF0C7F9BDE8F8401021024840F0E5BFAE
S31508009C90BC320020BC1B002070B505460C46164B8E
S31508009CA000F5E076D3F814378BB19E4201D05B6994
S31508009CB0FAE7B5F8CE315BBA9BB2A34207D0314674
S31508009CC00E483CF0B4F931460D4841F061FD214695
S31508009CD00C4808F077FB4FF6FE739C42A5F8344112
S31508009CE008D064BA3146A5F8CE410448BDE87040AC
S31508009CF03CF08FB970BD00BFA82B0020BC320020F5
S31508009D009C330020743A0020F8B50D461E46836938
S31508009D1004469D4217464FF0800108480AD040F095
S31508009D209CFFB4F854310133A4F85431A561277760
S31508009D30E677F8BD40F09DFFF8E700BFBC1B0020A2
S31508009D40044B183093F80B23427193F80A33837146
S31508009D50704700BFA83B0020002313B5019390F875
S31508009D6021300446022B02D1002002B010BD90F823
S31508009D706330002BF8D110483DF0B3FC18B994F8BD
S31508009D8060309B07F0D40C4801A906F087FC18B18F
S31508009D900A4BD3F8B03E019301A83EF00FFA4FF4F0
S31508009DA0AF630130B3FBF0F0502838BF5020A4F859
S31508009DB066000120D9E700BF34390020A82B00200F
S31508009DC090F8F13010B5012B00F1800430D0022B49
S31508009DD015D1184807F0F0FE30B94FF47A712046CD
S31508009DE0BDE8104041F0D5B8134BB3F8BE1EA0230A
S31508009DF059434FF47A73B1FBF3F11944EFE790F83E
S31508009E00F330012BE9D090F82130022B0BD190F8D2
S31508009E1060301B0707D54FF47A73D0F82C115943D5
S31508009E20B1F57A61DBD12046BDE8104009F050B99A
S31508009E306421D4E74C3A0020A82B0020D0F8303112
S31508009E4010B58B4204460DD0C0F8301106483EF0D6
S31508009E503EFA064807F0B0FE20B12046BDE810409D
S31508009E6037F0ABBD10BD00BF043C00204C3A0020C3
S31508009E70002313B50C46084801A9019306F00EFC09
S31508009E8018B1064BD3F8B03E0193214601A83EF01F
S31508009E9082F902B010BD00BF34390020A82B00207B
S31508009EA02DE9F04F15460E469B46A1B00AA8BDF807
S31508009EB0A880DDF8AC903FF0DFFEEB8B012EA3EB1C
S31508009EC008045F46A4B20BF1100A07D108F105028F
S31508009ED09A4269D85746DA46043CA4B204A907F15F
S31508009EE008000DF1180B3BF014FD5B460522D9F866
S31508009EF0011004A83FF0B2FED9F8050035F0B3FB0F
S31508009F002B4B0146D3F8342E824238D003F56360D2
S31508009F1035F0D5FF01460AA83FF001FD0D2322467C
S31508009F202A21CDE900B30AA804233FF004FD102234
S31508009F3039460AA83FF091FD102251460AA83FF07B
S31508009F408CFD0A2249460AA83FF087FD29460AA839
S31508009F502346424600963FF043FE03A90AA83FF06F
S31508009F6060FE7EB90422284603A940F0B7FB0446E2
S31508009F700AA83FF09AFE204621B0BDE8F08F03F606
S31508009F803861C8E70024E98B04230439284600947D
S31508009F9003AA89B240F030FB40B1E98B2846043960
S31508009FA089B240F066FAE3E70624E1E70824DFE72A
S31508009FB0A82B002090F86030064A13F0010F19BF4D
S31508009FC04B7992F80B038B7992F80A03C01AC0F3FF
S31508009FD0C0107047A83B00200B6910B50C463BB172
S31508009FE04A6804480968103235F0D8FF02232375F9
S31508009FF010BD00BF9446002070B586B00C460F48C9
S3150800A00009680DF1170236F023F8054698B9206855
S3150800A0109DF8171090F82A30283026690391029384
S3150800A02036F0D0FA029B00902A463046039939F05A
S3150800A030E9F90223237506B070BD00BFAC460020BF
S3150800A040F0B58DB02C220021044601A84FF0F3FA92
S3150800A05000211A4804F0AAFA054660B3002140F028
S3150800A06008FA28BB04F5D47301AE04F5DC7732464A
S3150800A07018685968083303C2BB421646F7D104F577
S3150800A080E07305AE04F5E877324618685968083370
S3150800A09003C2BB421646F7D1B4F8363129465BBA35
S3150800A0A0ADF8223005483B2301AA04F08FFB10B116
S3150800A0B0284640F0DAF90DB0F0BD00BFF4310020B3
S3150800A0C038B590F821300446042B0D4603D10146D5
S3150800A0D022483BF0ACFF29462046FFF7DDFD02216A
S3150800A0E02046FFF733FC94F8613013B1002384F857
S3150800A0F0613044F6206104F1680040F04AFF00230D
S3150800A100174A84F8633084F8F03084F8F23092F80D
S3150800A110A41E204663F3041182F8A41EFFF750FE1E
S3150800A1202046FFF72DFD4FF6FE72B4F836319342FE
S3150800A1300BD0B4F840209A4207D0B4F888312046AC
S3150800A1400133A4F88831FFF77BFFB4F8403005489F
S3150800A150A4F83631BDE8384007F058BDBC320020B7
S3150800A160A82B00204C3A0020F8B50E46D0F830113E
S3150800A17016484FF41B520023A1FB000132F06EFC77
S3150800A18004464FF41B5C431C41F100070D46594336
S3150800A19007FB0017A3FB0403A0FB0C011F440CFBE1
S3150800A1A007110023094A32F059FC3278A0FB020352
S3150800A1B002FB0131737803EB83035B00A3FB0442C4
S3150800A1C003FB0523001941EB0301F8BD40420F00CC
S3150800A1D0024B0021B3F8AC2141F0B1B8A83B0020EE
S3150800A1E010B5044604483FF01DFA052102462046EC
S3150800A1F0BDE8104041F0AFB8003A0020024B0821F4
S3150800A200D3F85C2E41F0A7B8A82B00200B2370B515
S3150800A21086B08DF80C300823114C019094F80B6326
S3150800A22094F80A53D4F890008DF80D3084F89560A8
S3150800A23084F8965035F017FA94F89430CDF80E0055
S3150800A2408DF8123094F89730019903A88DF81360A9
S3150800A2508DF814508DF8153040F0F3FE06B070BD39
S3150800A260A83B002010B5044606483DF078F902469A
S3150800A27030B12046BDE810400823162141F02BB81E
S3150800A28010BD00BF3439002070B5054609483DF0B9
S3150800A29066F9044660B137F006FB50EA010307D0B9
S3150800A2A022462846BDE870400823172141F013B816
S3150800A2B0002070BD68390020502307B58DF800309E
S3150800A2C003238DF8013000238DF80230064B052252
S3150800A2D093F8BD3E69465BBAADF8033040F0FEF927
S3150800A2E003B05DF804FB00BFA82B0020044BD3F88D
S3150800A2F0A8210AB9D3F8A421552141F02CB800BFEA
S3150800A300A83B002000232DE9F04393B0CDE90F3395
S3150800A310119304460B460BAD01F110062A46186840
S3150800A3205968083303C2B3421546F7D1274E07AD1D
S3150800A33096E80F0085E80F0044F64C53ADF83E301A
S3150800A340FF2300218DF84430204601230DF10F022A
S3150800A35040F049F99DF80F90B9F1000F2ED10DF193
S3150800A360100801210A234246204640F03CF9184BC2
S3150800A370D3F85C2ECDF81120D3F8347E384635F064
S3150800A38072F907F07F070A2342460121CDF8150026
S3150800A390013720468DF8197040F07DF90B232246C7
S3150800A3A0009349462B46CDF80480A6F5C870FFF7FA
S3150800A3B077FD40B9A6F57670FEF7F8F92A462146E4
S3150800A3C0044805F04BFF13B0BDE8F083B03D00200C
S3150800A3D0A82B0020183D002070B50C4606461046EE
S3150800A3E0154637F002FC94F82C30C3F3C3030B2B45
S3150800A3F009D029462046FFF785FF78B12046BDE8F3
S3150800A400704040F032B82046FFF72CFF0028F5D1FF
S3150800A4102046FFF739FF0028EBD0EFE796F86030C3
S3150800A4201B0705D4BDE87040082102483DF098BFD7
S3150800A43070BD00BF043C0020014837F076BC00BF61
S3150800A440203C00201F292DE9FF410D4617461E46D0
S3150800A45029D8DFF8A480D8F8B03ECB40DB0722D550
S3150800A4600F2137F0CCFB0446E8B190F82D3080F880
S3150800A470265043F0010380F82D3014238DF8003060
S3150800A48003238DF8013000238DF8023098F8AE3E8C
S3150800A49001465BBA6846ADF8033040F0D2FD28B1F4
S3150800A4A020463FF0E2FF04B0BDE8F08106B3012E76
S3150800A4B00FD14FF48073ADF80E3008230290ADF833
S3150800A4C00C00162120460DEB030240F004FF00287D
S3150800A4D0E6D115212046B8F8AC2E40F030FF00280A
S3150800A4E0DED139462046FFF70DFF0028DBD0D7E737
S3150800A4F02046FFF7B7FEEAE7A82B0020F0B50E4680
S3150800A50087B0044605221421306802AB40F012FEDB
S3150800A510A8BB9DF80930022B31D9082316213068CB
S3150800A52004AABDF80B5040F0BBFE40BB15213068AD
S3150800A5300DF1060240F090FE08BB0223324833753F
S3150800A5403DF00DF8074604A837F0ADF96DBA50EAA4
S3150800A5500103EDB215D1BDF816305BBA9AB2C3F352
S3150800A5604E0373B96AB100222946204637F052FCD9
S3150800A57072680023294620461032FFF763FF07B0AA
S3150800A580F0BD394604A83DF0FBFD0028EBDB394653
S3150800A59004A83DF0F5FD002831DD94F82130012BA3
S3150800A5A00AD11A4B93F8AE2EAA4205D1BDF8062059
S3150800A5B0B3F8AC3E9A42E2D094F8616004A837F04A
S3150800A5C072F9012E04D1D4E9502382428B41D6D2A6
S3150800A5D0BDF80630012EA4F83A3118BF0123C4E9A4
S3150800A5E0500118BF84F86130FA2184F8395104F112
S3150800A5F0680040F0CEFC0023A4F86430BFE70448A6
S3150800A60035F0CDF9BBE700BF34390020A82B002070
S3150800A610DC4D002037B50A6905460C467AB109684B
S3150800A62008480DF1070335F0B6FD40B961682846BC
S3150800A6309DF80720103137F0FDFB0223237503B080
S3150800A64030BD00BFAC460020F0B587B00C461546B5
S3150800A65006461BF0D7FF01AA05440595234615466D
S3150800A66004F11007144618685968083303C4BB4236
S3150800A6702246F7D114222946304640F02FF80446E0
S3150800A68040B931460548012240F01EF905990448AB
S3150800A69040F08CFC204607B0F0BD00BFAC3C002063
S3150800A6A0943C00202DE9F0470D464B6894B05B6A50
S3150800A6B00446002128680DF11E0293F9036040F054
S3150800A6C0CBFD002840F010811221286807AA40F027
S3150800A6D0C3FD002840F00881BDF81C30012B40F26C
S3150800A6E0038128680EA937F069FC002840F0FC8031
S3150800A6F094F8982004F190010EA837F05FFA002824
S3150800A70000F0F28068680CA918303BF002F994F85A
S3150800A7102130022B09D108220CA904F124004EF09D
S3150800A72053FF10B9012384F8F6300DF12808414685
S3150800A730286837F05EFC002840F0D680102128688B
S3150800A7400DF1170240F076FD002840F0CD80314625
S3150800A75068483EF00AF89DF817300DF1440998420A
S3150800A76028BF1846C6B2304635F060FF4B46074646
S3150800A7700C220F21286840F0DDFC002840F0B48048
S3150800A7809DF84530092B02D8072B40F0AD800DF116
S3150800A790180A5146286837F071FC38B1172840F076
S3150800A7A0A380FF238DF818308DF8193001232B75F7
S3150800A7B094F8BA3003F00F03032B7CD0286809AA53
S3150800A7C008A937F0FFFB002840F08E80286804F1BE
S3150800A7D0D20137F0EFFB002840F0868004F19C0791
S3150800A7E02A463946204637F0ACF8BDF81E30089997
S3150800A7F0A4F8B83004F1A8003EF016FF089B9DF8AF
S3150800A8001700C4F8B030099BC4F8AC30BDF81C304A
S3150800A810A4F8BC3094F8BA3043F0F00384F8BA30A0
S3150800A82035F004FF94F8CE30032160F3010384F871
S3150800A830CE30384638F078FDEB684846C4F8B43070
S3150800A8409DF84A3084F8CF30BDF81830A4F8D030D7
S3150800A85037F02EFE9DF847309DF8452084F8DC3009
S3150800A8609DF84830092A84F8DD309DF8493084F887
S3150800A870DB0084F8DE303AD9BDF84D305BBA9BB2BE
S3150800A880092AA4F8E03098BF012398E8030088BF96
S3150800A8909DF84F3084F8E23004F1E40383E80300BE
S3150800A8A09DF84C3084F8E360012B8CBF002301230C
S3150800A8B084F8EC3018E008220CA904F19C004EF04C
S3150800A8C083FE00283FF47AAFBDF81C303A46CDE93E
S3150800A8D0009320463346BDF81E10CDF808A037F081
S3150800A8E0CEF800287FF46AAF14B0BDE8F0874FF4BD
S3150800A8F0A063C5E74C3A002010B50446542200214F
S3150800A9004EF099FE2046044938F017FDFF2384F8D7
S3150800A910343084F8353010BDA81B002090F821206B
S3150800A92038B504460D46002A4BD090F86130002B06
S3150800A93047D1012A18BFA0F8643090F86330012B7C
S3150800A94006D1204805F034FEC8BB022384F86330DC
S3150800A95004F19C00FFF7D0FF94F861302046022BE3
S3150800A9601CBF022384F86130032D08BFB4F85631A2
S3150800A97084F8995004BF0133A4F85631FFF738F824
S3150800A980014604F1680040F004FB94F82130012BDD
S3150800A99017D1B4F8643001339BB20BB1A4F8643014
S3150800A9A0B4F8523194F86010013311F00801A4F894
S3150800A9B0523106D1BDE8384003483DF00BBF0023AD
S3150800A9C0C4E738BD343900204C3A002090F82130CD
S3150800A9D010B50446F3B1012B03D190F86130022B70
S3150800A9E016D094F8633013B90B483CF0BFFD2046E7
S3150800A9F0FFF72CF8002104F1240038F095FC4FF6F7
S3150800AA00FE712046FFF748F900212046FFF786FF2A
S3150800AA10002000E00D2010BD6839002073B590F8BD
S3150800AA2063500446022D24D12F4805F0C1FDE0B934
S3150800AA302D4805F09DFD032384F8633094F86130B2
S3150800AA403221022B18BF84F86150002040F040F9EB
S3150800AA50451C94F863307BBB94F89930052B2BD8AA
S3150800AA60DFE803F0113B402A4011002584F86350C3
S3150800AA70EFE7032D4FF00005EBD180F863501B4834
S3150800AA8005F096FDE5E794F82130022B17D04FF62E
S3150800AA90FF76B4F83A31B3420BD094F8391114481A
S3150800AAA007F0E2F8B4F83A11114806F09BFDA4F84D
S3150800AAB03A612046FFF78AFF284602B070BD94F82F
S3150800AAC0601011F00801F7D10A4801913DF006FC23
S3150800AAD001990948FEF78EF9EEE702212046FFF7AD
S3150800AAE01DFFE9E70021F9E768390020343900201D
S3150800AAF04C3A0020043C0020B43B002030B50C46FC
S3150800AB008FB005460021206807AA40F0A5FB60BB68
S3150800AB10206936F0C0FE40B395F86130052B24D184
S3150800AB200A2120680DF11E0240F096FBE8B9BDF82F
S3150800AB301C30BDF81E209B0AB3EB922F15D1206856
S3150800AB400AA937F056FA80B90C2120680DF12203BC
S3150800AB5008AA40F0F7FA40B90823162120680CAA7B
S3150800AB6040F09EFB18B1172815D00FB030BD18213C
S3150800AB7020680DF1260309AA40F0E4FA58B9BDF891
S3150800AB802630226800933B48BDF824300CA93CF0D7
S3150800AB90B3FD0028E9D195F86330032B02D1364876
S3150800ABA03CF0C8FD0823172120680CAA40F078FB62
S3150800ABB028B11728D9D130483CF0C6FD11E0192133
S3150800ABC020680DF1260309AA40F0BCFA48B9BDF879
S3150800ABD02630226800932848BDF824300CA93CF09A
S3150800ABE0F2FD2846FEF732FF9DF82F309DF82C20FF
S3150800ABF028460A99FFF788F805F19C0005F1240113
S3150800AC00059037F06DFA0598FFF776FEB5F85820E7
S3150800AC101A4B1B48A3F8442FBDF81C30BDF8222058
S3150800AC20A5F8403095F860300292DB43BDF8202045
S3150800AC309DF82D100192226803F0010300929DF8F9
S3150800AC402E2038F09EF8BDF81E102846FFF738FA71
S3150800AC5095F8601011F008010AD10A4805913DF0EF
S3150800AC603DFB05990848FEF7C5F8022323757CE7DE
S3150800AC700121F7E73439002068390020A82B002085
S3150800AC80AC3E0020043C0020B43B00202DE9F341F3
S3150800AC9005460F46CDE90032BDF82080099C37F0FD
S3150800ACA058FA0721284636F0AAFF0646002850D04B
S3150800ACB0DDE900320D2140F00EFB002847D1E4B94A
S3150800ACC0B8F1000F25D13046FFF7CCFA0446E0B9B3
S3150800ACD03046FFF7D9FA0446B8B939463046FFF781
S3150800ACE011FB044688B995F8604014F0080418D199
S3150800ACF0082119483DF034FB14E02246314617482E
S3150800AD0035F01FF904460028DAD030463FF0ADFB8F
S3150800AD1008E0424639463046FFF796FC04460028C6
S3150800AD20F3D1002495F82130022B0CD195F8603028
S3150800AD301B0708D4012385F8F33095F8F13013B9C9
S3150800AD402846FFF73DF8204602B0BDE8F0810446E4
S3150800AD50DBE70324E6E700BF043C00209446002016
S3150800AD6007B590F8203013F0020F4FF00003CDE935
S3150800AD70002314BF02230123024AFFF787FF03B00B
S3150800AD805DF804FB519F05082DE9F0410D460023A7
S3150800AD908EB0044608A92868ADF81830ADF81A3000
S3150800ADA0ADF81C30ADF81E3037F023F9064690B9D9
S3150800ADB00899A369994209D19DF82420237F9A42CC
S3150800ADC004D19DF82720E37F9A4208D094F82130D1
S3150800ADD0022B11D0022630460EB0BDE8F08194F859
S3150800ADE02030DB0715D4204608A9FFF7E3F880B919
S3150800ADF00023A4F8F230EEE79DF8273020469DF8A8
S3150800AE002420FEF781FF94F8203043F0010384F8EC
S3150800AE1020300823162128680AAA40F041FA18B1FA
S3150800AE20172834D00626D6E748483CF098FB94F80D
S3150800AE3021300146042B0CD1012708231721286845
S3150800AE400CAA40F02DFA20B31728EBD14FF00008D2
S3150800AE5029E00AA83DF094F90028EDD018212868C1
S3150800AE600DF11A0306AA40F06DF90028E4D06B68C4
S3150800AE701B78FF2B66D14FF47A7100203FF017FF3D
S3150800AE800246696820461031FFF76AFFA3E70027E4
S3150800AE90D3E72F483CF063FB94F821300146042B96
S3150800AEA041D14FF001080C2128680DF1160305AAB7
S3150800AEB040F048F90028DAD194F86030BDF8162039
S3150800AEC0DB430292BDF814209DF8251001922A68EA
S3150800AED02048009203F001039DF8262037F051FF21
S3150800AEE0002831D157B1BDF818303BB1BDF81A204A
S3150800AEF0164800920AA92A683CF0FEFBB8F1000F32
S3150800AF000AD0BDF81C303BB1BDF81E20104800928F
S3150800AF100CA92A683CF057FC94F820306FF300031C
S3150800AF2084F8203064E70CA83DF02AF90028B8D048
S3150800AF30192128680DF11E0307AA40F003F9002815
S3150800AF40AFD094E70A229CE7064644E73439002046
S3150800AF5068390020AC3E00207FB5054608690C46D6
S3150800AF6036F099FC20B3592120680DF10E0303AA87
S3150800AF7040F0E8F850B96368BDF80C201033009328
S3150800AF802168BDF80E300B4835F099F92146284658
S3150800AF90FFF7FAFE95F8F330064633B995F86030B0
S3150800AFA01B0702D404483DF0ACF90EB902232375F9
S3150800AFB004B070BD94460020043C002070B50D46D0
S3150800AFC08AB0044607A9286836F0F8FF20B1172882
S3150800AFD011D100238DF8243094F82130012B02D0AA
S3150800AFE0022B0AD0FEE794F8982004F1900107A8EE
S3150800AFF036F0E4FD60B90AB070BD2A6904F124038D
S3150800B0009A42F8D194F8423003F00F03072BF2D195
S3150800B010112128680DF10A0240F00CF968B920469A
S3150800B020FFF7D4FC94F8F130022BE4D10023204634
S3150800B030A4F8F030FEF7C4FEDDE7012128680DF11B
S3150800B0400B0240F0F7F80028D5D19DF80B3094F89C
S3150800B050602043F004039A42CDD194F82130012BA5
S3150800B06002D0022B21D0FEE7286805AA04A936F0EB
S3150800B070A9FF0028BFD1049904F130003EF0D4FAA4
S3150800B080049B04F12406A363059B072163633046EA
S3150800B09038F04AF92046B4F83411FFF711F894F855
S3150800B0A0203043F0010384F82030002128680DF190
S3150800B0B00E0240F0D1F800289DD1BDF80E30B4F844
S3150800B0C034219B0AB3EB922FA9D129462046FFF7D4
S3150800B0D05BFE00288FD10221286806AA40F0CEF828
S3150800B0E0E8B1172887D1286803A936F0C7FF30B317
S3150800B0F0172880D194F8601011F0080125D114485A
S3150800B10001913DF0EBF801991248FDF773FE9DF8A1
S3150800B1102430002B0CBF022301232B7582E7069AE5
S3150800B1202AB9D4F8081204F50073994202D1C4F872
S3150800B1302C21D8E701212046FEF7C4FCD3E7064BAD
S3150800B140BDF80C20A3F8442FD4E70121DCE700BFA3
S3150800B150043C0020B43B0020A82B0020002307B5A0
S3150800B16001920093034A0123FFF790FD03B05DF8AF
S3150800B17004FB00BF539F050870B504468EB04148CE
S3150800B18005F016FA404805F013FA4048FCF7A4FE05
S3150800B1903F4804A937F03FF80546002870D10599BD
S3150800B1A03C48FDF735FB3C4E069B2A46C6F85C3EF6
S3150800B1B0079906F56360FDF7DBFA9DF8113023F071
S3150800B1C0020343F0040384F86030BDF83430042BDE
S3150800B1D056D19DF81030023B022B51D8BDF81210FB
S3150800B1E0C1F308033BB106F6CC6007F0EBF8BDF8EF
S3150800B1F01230A4F83431294809A907F0E9F84FF6BE
S3150800B200FE720BAB03CBBDF81230C4F8B001934203
S3150800B210C4F8B41134D0C3F3080373B30023CDE9DB
S3150800B2200133022301AEADF80C3032460A2304215D
S3150800B230174807F099FE18BB04F12405284638F08C
S3150800B2406FF996E8030085E80300BDF80C30012184
S3150800B250A4F8443094F84230284643F0F00384F8C2
S3150800B2604230BDF8123003F47C43A4F8403038F07D
S3150800B2705BF8B4F84030A4F83631012384F8F53089
S3150800B2800EB070BD3439002068390020C84500204A
S3150800B290E41B0020D8390020A82B0020743A00208F
S3150800B2A070B59AB005462422002106A84EF0C3F9C7
S3150800B2B002232846ADF83C3036F005FB044670B349
S3150800B2C00426B5F8343195F82120ADF81A30AB6963
S3150800B2D0294C0A938DF81820D4F8D20ED4F8D61E25
S3150800B2E00BAB03C3D5F8B001D5F8B411022A03C3D2
S3150800B2F0ADF83C6018D1686AA96A03AB03C3B5F810
S3150800B30044303146ADF814300A2303AA0093A4F654
S3150800B310C47010AB07F038FE30B11AB070BD1748CC
S3150800B32006A936F078FF28BB134CD4F8343E04F649
S3150800B33058600793D4F85C3E03F57A7308933EF099
S3150800B34071F995F8603000F57A708DF81930262372
S3150800B35009900093032110AB06AAA4F6C47007F05F
S3150800B36013FE0028D9D1089BC4F8643E099BC4F88B
S3150800B370603ED2E72046D0E7A82B0020E41B002039
S3150800B38090F8213073B504460D46002B64D011F0B1
S3150800B39004060ED0022B0CD190F8603013F002038D
S3150800B3A007D190F8F420012A03D180F8F43036F05A
S3150800B3B004FBA8071DD004F5D471284801913AF07A
S3150800B3C0DBFE58B904F5D8703AF084FA0199234897
S3150800B3D03AF01FFE102122483FF03FFC94F8213036
S3150800B3E0022B06D194F86030990702D4204636F02D
S3150800B3F0E4FA15F4405F14D094F82130022B10D1EA
S3150800B40094F860309A070CD4180707D594F8423098
S3150800B410190703D0B4F84430022B02D0204636F080
S3150800B420CCFAAA0509D516B9204636F0C6FA0D484B
S3150800B43041F071FA0C4802F09BFB15F4827F0BD0A1
S3150800B440EB0503D4204636F03EFA28B1204602B072
S3150800B450BDE87040FFF724BF02B070BDBC320020C3
S3150800B460BC1B0020A0450020183400202DE9F0411F
S3150800B47000F5E077044638460E4636F0E3FE28B176
S3150800B480BDE8F04110211D483FF0F3BB1C4D04F503
S3150800B490D47895F8F037D3B1214605F214703AF00E
S3150800B4A0C6FD414605F214703AF0C1FD394605F26B
S3150800B4B014703AF0BCFD04F5EC7105F214703AF01C
S3150800B4C0DFFE04F5F67105F214703AF0D9FE31463E
S3150800B4D040463AF0D2FA314638463AF0CEFA314684
S3150800B4E020463AF0CAFA95F8F03723B12046BDE867
S3150800B4F0F041FEF795BBBDE8F08100BFBC1B0020FC
