S0170000766962726174696F6E2D73656E736F722E73333748
S3150800600000120020856C0008EBB40308EBB4030803
S3150800601071D70308EBB40308EBB40308EBB4030821
S31508006020EBB40308EBB40308EBB4030851620008A9
S31508006030EBB40308D0580508E1610008B1E103088C
S3150800604079710008EBB40308EBB40308EBB4030852
S31508006050EBB40308EBB40308EBB40308EBB403088A
S31508006060EBB40308EBB40308EBB40308EBB403087A
S31508006070EBB40308EBB40308EBB40308EBB403086A
S31508006080EBB4030845670008EBB40308EBB4030850
S31508006090EBB40308C1760008EBB40308EBB40308B5
S315080060A0EBB403085D78000839780008EBB40308F8
S315080060B0EBB4030849930308799D03081D500508A6
S315080060C01950050845950308295005082150050863
S315080060D0519D030825500508B99D03081D9E030810
S315080060E0EBB40308EBB40308EBB40308EBB40308FA
S315080060F06DD70308EBB40308EBB40308EBB4030845
S31508006100EBB403080D670008EBB40308EBB4030807
S31508006110EBB40308EBB40308EBB40308EBB40308C9
S31508006120EBB40308EBB40308EBB40308EBB40308B9
S31508006130EBB40308EBB40308EBB40308EBB40308A9
S31508006140EBB4030805A70008EBB4030877D80308DF
S31508006150397A0308EBB40308E14C0508E74C05084F
S31508006160EBB40308EBB40308EBB40308EBB4030879
S315080061700B4A1168086806C881F30B88022181F367
S315080061801488203080F30988BFF36F8F4FF0000022
S3150800619080F31188104700BFAFF30080AFF300808B
S315080061A058840020000000000000000000000000E5
S315080061B007480068006880F3088862B661B6BFF3CE
S315080061C04F8FBFF36F8F02DF00BF00BFAFF30080B2
S315080061D008ED00E0000000000000000000000000DC
S315080061E0EFF309801EF0100F08BF20ED108AEFF3B9
S315080061F00B82734620E9FC0F114A116808604FF0BC
S31508006200300080F31188BFF34F8FBFF36F8F0CF008
S3150800621073FD4FF0000080F31188094A1168086879
S31508006220B0E8FC0F13F0100F08BFB0EC108A82F329
S315080062300B8880F309881847AFF30080AFF3008016
S315080062405884002000000000000000000000000044
S315080062501EF0040F0CBFEFF30880EFF30980044922
S31508006260084700BFAFF30080AFF30080AFF30080AC
S31508006270D7EA030800000000794BF7B51C6814F04C
S31508006280010440F0E78041F60B22764E764B7F21DB
S31508006290C6E90034754B76489A8010221C60B460B3
S315080062A04EF06CFF7F22734B1A70734B1B6ADB0729
S315080062B006D440F21B41714B714A724833F0FAFF1B
S315080062C0214630462CF032FB054620B940F21F41E4
S315080062D06D4B6B4AF1E72DF063FA20B140F223418A
S315080062E06A4B674AE9E74FF0011128464EF0D8F99C
S315080062F020B140F22741654B614ADEE70221284674
S315080063004EF0B0F820B140F22A41604B5C4AD4E71F
S3150800631028465F492DF0A0F820B140F22D415B4B8D
S31508006320574ACAE7012128464EF0B2FA20B140F290
S315080063303241564B524AC0E7012128464EF0B8FA78
S3150800634020B140F23541514B4D4AB6E73822214635
S3150800635050484EF013FF80232246284606F11001C6
S315080063604EF0A7F9802804D040F23C414A4B444AF3
S31508006370A3E74A4E01202CF02DFB37A3D3E90023CF
S3150800638035602846CDE900234FF0FF324FF0FF3342
S315080063904EF0A3F8014620B140F27E313B4B404A0D
S315080063A08BE732480AF074FA012108460AF0E4FA43
S315080063B0012130684DF0F8FF054620B140F2CC4186
S315080063C0324B384A79E701464FF4086236484EF0B0
S315080063D0D5FE364B36490A198834B4F5086F9D80C0
S315080063E04FF0000743F8282BF5D1324B324A9D80EF
S315080063F01A60324B324A6FF063001A60314A9D8048
S315080064001770314A5A6119F097F90B200AF0FCF90E
S315080064102E4B186020B940F2E4412D4B214A4CE737
S3150800642004F0D2F800200AF099FB082230681146D9
S315080064304EF055F820B140F2E941264B194A3CE79F
S315080064400BF072FC244B25481F7003B0BDE8F040E2
S315080064503FF02ABD03B0F0BD0BE020FF220200008A
S31508006460907400209C740020F90C01089474002094
S31508006470D5930020C69300200080E00F266105080A
S31508006480C0620508215C05083F6105087F5B0508B1
S31508006490DC630508387500204E6105088C740020F9
S315080064A0B36205085963050870750020281C00208A
S315080064B078750020001C0020E6930020A81E002006
S315080064C06894002065940020D01E002034750020B2
S315080064D086610508A1610508C9930020256205089B
S315080064E010B5054C237833B9044B13B1044800E0C2
S315080064F000BF0123237010BD506500200000000076
S31508006500B8E9050808B5034B1BB10349034800E081
S3150800651000BF08BD0000000054650020B8E9050862
S31508006520A3F5803A704700BF174B002B08BF134BE3
S315080065309D46FFF7F5FF00218B460F461348144A80
S31508006540121A4EF01BFE0E4B002B00D098470D4B2F
S31508006550002B00D098470020002104000D000D48AC
S31508006560002802D00C4800E000BF33F0EFFE200000
S31508006570290000F0AFFA33F0C3FE00BF00000800A0
S31508006580000000000000000000120020A81B0020E8
S31508006590B0BC002000000000000000002DE9F34117
S315080065A0164602F1100407460D46A446384A06F177
S315080065B0200E234603CB7345106051601C4602F13A
S315080065C00802F6D13446334A234603CB63451060A6
S315080065D051601C4602F10802F6D128463FF091F9AF
S315080065E00021804638463FF052F9044690B34423CA
S315080065F0022229463FF05AF928463FF093F90190BE
S3150800660028463FF088F90199024620463FF065F989
S3150800661020463FF06DF928463FF050FC1F230146FF
S315080066201D4A28463FF04EFCB8F1010F18D11B4B06
S315080066301968084601914EF09AFE019982B22046E1
S315080066403FF03EFC0346F0B93246214638461EF076
S315080066503FFCC0B90122124B1A7002B0BDE8F081A6
S31508006660104B1968084601914EF081FE019982B2D5
S3150800667020463FF025FC0546852120463FF046F991
S315080066800DB92B46E0E720463FF014FCE2E700BFD1
S315080066904D9300207D9300205D930020001200207A
S315080066A04C9300200412002038B50E4C0E4D00F015
S315080066B027F841F233613FF04CF9256000F020F8E5
S315080066C00A4A0B4BA060636013682B6053686B60C3
S315080066D09368AB6000F014F82146BDE838403FF0F7
S315080066E043B900BF6C65002028570508D056050831
S315080066F09D6500080122014B1A7070478E93002091
S31508006700014B1868704700BF7C65002013B50B4C19
S315080067106846214635F0D2F94FF49662009B04F597
S31508006720005453434FF47A72B3FBF2F3044A5B0006
S3150800673093614FF40073636202B010BD00400059C4
S31508006740A0650020022208B5074B5A6101F032FE07
S31508006750064B5A6812B19A6A002AFAD10222DA60FE
S31508006760014B9A6108BD00BF006006500040065004
S31508006770F0B53C4C41F288308DB034F025FE00F07F
S31508006780AFF8012120683FF0FEF928B15121364BB8
S31508006790364A374833F08EFD012120683FF0F1FD77
S315080067A018B15221334B314AF3E7FFF77DFF03F067
S315080067B099FC314B314F1A78C7E90001002A42D1BA
S315080067C001220DF10E0120681A703FF05EFC0546A5
S315080067D02B4E206831463FF02EFC336820682B602C
S315080067E033792B713FF02BFC20683FF05AFC48F2B6
S315080067F09A230546234A038220213B7804A834F0CD
S3150800680007F90DF10E0128463FF06CFCBDF80E2085
S3150800681004A94EF08CFC0DF10E0128463FF05EFCF3
S31508006820BDF80E2018494EF082FC294620683FF034
S315080068300EFC024618B18A21144B154AA9E70146EF
S3150800684020683FF0C2FB0422124B4EF660211A67FD
S315080068500023114ACDE90033104809F039FA0DB082
S31508006860F0BD00BF7C65002034570508665705084B
S3150800687076570508865705088D930020A81B002023
S31508006880BB570508C6570508CF570508D857050842
S31508006890EF57050800E00350F566000880650020FC
S315080068A008B53FF05EF9054B186028B9BE21044BC0
S315080068B0044A054833F0FEFC08BD00BF7C6500208D
S315080068C0015805080B580508765705080423024998
S315080068D01A46024834F014BD01670008C065002056
S315080068E070B5A4B07822002106A84EF047FC224BCA
S315080068F0224A1C936B461068516802AC03C36B4668
S31508006900224603CB1E4BCDF85900CDF85D1003F196
S315080069101006254618685968083303C5B3422C463D
S31508006920F7D10FCA0EAC84E80F00BDF88C301548B5
S3150800693043F4CA7343F00103ADF88C304EF017FDEB
S315080069401049024612A84EF0F2FB9DF88C3043F02F
S3150800695008038DF88C30FFF7D3FE06A93FF060F8E0
S31508006960044630B13FF0FBF82146024606483EF0A1
S31508006970EDFB24B070BD00BFADDE0F005158050811
S315080069805A5805088C140020285805081FB50C21EC
S315080069904FF4F06002F030FB01213D2001F088FF42
S315080069A001213C2001F084FF0C4A01AB07CA83E8A9
S315080069B0070040F201121846ADF80C2001F0A4FCBD
S315080069C00222074B9A614FF40032064B1A600120E7
S315080069D001F0CEFC05B05DF804FB00BF6C58050855
S315080069E00050065000E100E0F0B5354E93B008AD12
S315080069F00FCE0FC50FCE0FC596E80300012600245B
S31508006A00032785E8030031463B20CDE90344CDE959
S31508006A10054407948DF80E708DF808608DF80940C6
S31508006A208DF80A408DF80B4001F042FF20464FF4DE
S31508006A302C524FF4285135F056F89022214620461C
S31508006A4035F056F831462A2001F032FF4FF49663A6
S31508006A501C4D0B939DF81930224600932846234671
S31508006A6019498DF823408DF8214003F03DF8B223EB
S31508006A700A9008AA284605A98DF809308DF81070DD
S31508006A808DF80E708DF813608DF8086003F052F8D3
S31508006A9002AA03A9284634F0D0FF0C4A05F500538C
S31508006AA05A6270214FF40032AB6A43F40073AB624A
S31508006AB0074BC3F8842183F819135A6013B0F0BD45
S31508006AC0785805080040005940420F008F330F8060
S31508006AD000E100E038B536F000FF082534F088FC00
S31508006AE0FFF754FFFFF780FF0422094C04F5805393
S31508006AF01D671A67C3F8A05004F540531A6704F5D2
S31508006B000054FFF735FE256736F0F4FE002038BD41
S31508006B1000C0035010B5274C02F002F902F04AFAF9
S31508006B20236F23F0070343F00303236734F0D0FEF3
S31508006B30214B00209B6ADB015EBF4FF480321F4B5E
S31508006B409A62D4F8203123F0070343F00203C4F80D
S31508006B502031D4F8283123F0070343F00203C4F8A0
S31508006B602831D4F8403123F0030343F00103C4F875
S31508006B704031D4F8603123F0030343F00103C4F82D
S31508006B806031D4F8403223F0030343F00103C4F81C
S31508006B904032D4F8003223F0070343F00103C4F867
S31508006BA00032D4F8083223F0070343F00103C4F88F
S31508006BB0083210BD008000500040005A0060005A9C
S31508006BC007B501A803F068FA9DF80530012B14D122
S31508006BD09DF804308BB94FF48012134B1349586E45
S31508006BE003F580535A664B6B23F0E05343F040633A
S31508006BF04B63C3025CBF0E4B5A6607F095FF07F05E
S31508006C0027FF36F0B1FD07F04BFFFFF783FF07F0CC
S31508006C1035FF00F075FA00F033FE0BF011FA03B0F9
S31508006C205DF804EB08F028BA008000500040005ACE
S31508006C3000A0005008B5044834F0C8FCBDE8084078
S31508006C40024834F0C3BC00BFA0580508B858050868
S31508006C5018B1034B1860002070472520704700BF05
S31508006C60CC66002010B5054C0549206801F018FAD5
S31508006C702068BDE81040FFF7EBBF00BF2C120020CC
S31508006C800812002008B500F02DF8124B12498B4265
S31508006C9012D30020114B12498B4218D3FFF744FC3C
S31508006CA0186850F82240586840F82240013298681F
S31508006CB08242F5D30C33EAE70022F8E71C6844F869
S31508006CC0220001325C68A242F8D30833E4E70022C6
S31508006CD0F8E700BFC0E90508CCE90508CCE90508CE
S31508006CE0CCE905084FF480414FF0FF30114B124AAA
S31508006CF010B59A60D3F8882042F47002C3F8882049
S31508006D000E4A91660E4901F5005210660D48506606
S31508006D100220C3F8D000BFF34F8FBFF36F8F012453
S31508006D204FF440330848C0F88041D36004600B61D3
S31508006D3010BD00BF00ED00E00060000800900050A4
S31508006D4000800044F7FF370000E100E0014B1868B7
S31508006D50704700BF34130020084B1B6F03F007036E
S31508006D60022B04D0032B05D0012B05D0FEE7044BDC
S31508006D7018687047034BFBE70348704700800050CC
S31508006D803413002038130020002D310108B5FFF711
S31508006D90E3FF054B1B6FC3F303330133B0FBF3F07B
S31508006DA0024B186008BD00BF008000503013002059
S31508006DB00048704700B4C404014B1868704700BF08
S31508006DC038130020054B1860054B1B6F03F00703AB
S31508006DD0032B01D1FFF7DABF704700BF3813002035
S31508006DE00080005000487047002D31014FF0B44331
S31508006DF09868C0F304400C2822D8DFE800F009217F
S31508006E0021212121071719211B1D1F000F48704733
S31508006E109B6803F04073B3F1807F13D0B3F1007F12
S31508006E2012D00B4A002B08BF104670470948704716
S31508006E300948704709487047094870470948704724
S31508006E40002070470848704708487047405DC600EC
S31508006E5000093D000024F400C0EA210180BA8C0133
S31508006E600048E801005A620280841E0040420F0072
S31508006E70014B1868704700BF3C130020BFF34F8FC3
S31508006E800549064BCA6802F4E0621343CB60BFF3B8
S31508006E904F8F00BFFDE700BF00ED00E00400FA05D4
S31508006EA04FF000639B6A03F17842B2F5C04F03D2F4
S31508006EB01968064A914203D000230370836070471D
S31508006EC0012202709A689B694260F7E707B0CD5EB7
S31508006ED073B54F4B04461A781AB102221A7002B0DB
S31508006EE070BDCDE900220028F9D001261E7034F0C5
S31508006EF00BFD484D484B18602FF082FC2B785BB988
S31508006F0000F0BEFC40B945480823454A4549006893
S31508006F102BF03AFA00B92E70434B5A6E62619B6E9B
S31508006F20424AA3614FF480439366414B5968E16135
S31508006F3040499960196E2160596E6160D3F87011E5
S31508006F40A160196CE160596C21613B49086C1864B1
S31508006F50496C5964012151661B6E9C0441D5374A18
S31508006F60D368D807FCD4364B1A68531C3ED04FF466
S31508006F7080139340334A13664FF400730426314C4A
S31508006F802666236634F0D9FA01300DD034F0D5FAE6
S31508006F9040F20113984207D04FF4005323664FF48A
S31508006FA080432366C4F870610823264C6846236626
S31508006FB04FF4805323664FF0006323664FF4002393
S31508006FC001A9636634F09AFA009B2366019B6366FF
S31508006FD02B78002B83D0124B1A6822665B6863668F
S31508006FE07DE7194AD368D907FCD4BCE7174B1B7849
S31508006FF0002BC1D14FF400720C4B5A6603F5A62339
S315080070005B68002BB8D14FF480120E4B1A66B3E7B3
S31508007010919300208F930020F866002048130020E3
S31508007020F0660020007108000080005000900050B3
S315080070300080004455CEAC0000C000540000044057
S315080070404013002000900044000004509093002054
S3150800705070B5224D04462E78012E02D001232B70DE
S3150800706070BD0028FCD034F068FA01300BD034F03B
S3150800707064FA40F20113984205D0194B194A5E6624
S31508007080D368DE07FCD42268174B1A6662685A660C
S31508007090A268C3F87021E2681A6422695A64E26930
S315080070A0D00744BF00229A60104B1A68013207D1F4
S315080070B00F4A127822B90F494968C90748BF1A60AA
S315080070C062690D4B5A66A2699A662FF0A1FB0B4BB3
S315080070D0186834F01FFC0023C1E700BF9193002015
S315080070E00090004000000440008000444013002047
S315080070F09093002000C0055000800050F8660020DC
S3150800710070B54FF00064A36A03F17842B2F5C04F38
S3150800711021D21A68124B9A421DD1124E337813F0B7
S31508007120FD0F1BD11048FFF7D3FE01254FF480331E
S315080071300E4A0F49C2F88051CB6015600D4A13619B
S31508007140A36ADB69984704460748FFF781FF04B935
S315080071503570204670BD4FF48174FAE70024F8E7CD
S3150800716007B0CD5E90930020D066002000E100E0D5
S3150800717000A000440090004413B51F4B1B7803B9C8
S31508007180FEE700231D4CCDE900336A4608231C4957
S3150800719020682BF0F9F8F0B91A4AD2F84031D2F83B
S315080071A040211F2B4FF0010310D9203A9340019A32
S315080071B01343019308236A46114920682BF09AF86D
S315080071C04FF00053104A1A60FFF758FE9340009A92
S315080071D013430093EEE70D4B9842F1D1094AD2F8D2
S315080071E04031D2F840211F2B4FF0010302D9203A33
S315080071F09340DEE79340ECE7919300204813002084
S3150800720000710800008000440B020FF00BE000F04C
S3150800721005490A681318054883428CBF4FF0FF32A8
S315080072200B601046704700BF44130020000004207E
S3150800723010B40A681378022B11D01420302314795D
S3150800724013FB040307481B585079C340DB4303F07C
S315080072500103137008465DF8044B34F0BCB95DF8B9
S31508007260044B704730C0035037B504680121054602
S315080072703A2001F01DFB002301226179207902F0F2
S31508007280A5FB14223023217913FB01230E4A9B58B0
S315080072906279D340DB4303F001032370A379022B01
S315080072A00ED100F073FA2A460849607900F098FA78
S315080072B00123024661792079CDE9003302F02EFBDD
S315080072C0002003B030BD00BF30C003503172000843
S315080072D002681378022B24D014213023107913FB6B
S315080072E0001310495B585179CB40917903F001039B
S315080072F0012912D1508843EA40034FF6E07063F043
S315080073003F039BB2834202D11170538070474FF6F8
S31508007310DF718B42F9D10021F6E711B983F0010339
S315080073201370704730C003502DE9F04F9A46564BFC
S3150800733085B01B7806460F461546DDF83C909DF845
S3150800734044B0DDF85080002B00F08D80072A00F24B
S315080073508C800E9B002B00F08880B9F1000F00F09E
S315080073608480129BB3F5006F7FDC012802D1109B45
S31508007370002B7AD0454B03EB05131B7B002B76D0ED
S31508007380434C1022002168464DF0F8FE04EB4514E4
S315080073901022002F59D1394620464DF0EFFE43F210
S315080073A010036380BBF1000F03D1E37843F00303B6
S315080073B0E370374A0E9B02EB451CCCE90193129BFE
S315080073C06901013BC3F30A009DF84C30012E03F016
S315080073D003034FEA836343EA001E53582D48CDF84A
S315080073E000A000EA03004EEA0003535041D11323DC
S315080073F00CF1100ECCF80C309CE80F008EE80F004C
S315080074006FF00301DCF81C20109B61F39F02012F2B
S31508007410CCF81C20CCF8143003D1CCF81890CCF852
S3150800742004300027194A290102EB051342F80180A6
S31508007430159A28465A60694622469F605E7302F08E
S315080074403DFD384605B0BDE8F08F002120464DF0D9
S3150800745095FE4FF444736380BBF1000FA9D1E3781E
S3150800746043F03003A4E70C48ECE70C48EAE70C487D
S31508007470E8E7B8F1000FD4D19CF8023068F304139A
S315080074808CF80230CDE700BF92930020FC660020FE
S315080074907C6700200F80FFF3028000F0018000F077
S315080074A0078000F038B5124B05461B78DBB1E0B112
S315080074B034F02AFA0F4A00231146147B54B92B607C
S315080074C001251A0101EB03131D738C5034F022FABF
S315080074D0204638BD0133082B02F11002EDD134F0F5
S315080074E019FA0548F5E70548F3E70548F1E700BF47
S315080074F092930020FC660020048000F0028000F0D1
S31508007500018000F0154B13B51868002301908DF81B
S31508007510043034F0F9F9124B1C7824B134F0FAF936
S31508007520104802B010BD01221A7034F0F3F90E4B60
S3150800753001A81C731C7783F82C4083F83C4083F819
S315080075404C4083F85C4083F86C4083F87C40082301
S315080075508DF8073002F080FC2046E2E7205905083E
S3150800756092930020038000F0FC6600200A4A08B5C2
S3150800757012785AB107280BD8084A02EB00131B7B6E
S3150800758043B1002102F05AFC002008BD0448FCE77C
S315080075900448FAE70448F8E792930020FC660020BE
S315080075A0028000F0018000F0078000F00A4A08B562
S315080075B012785AB107280BD8084A02EB00131B7B2E
S315080075C043B1012102F03AFC002008BD0448FCE75B
S315080075D00448FAE70448F8E792930020FC6600207E
S315080075E0028000F0018000F0078000F00A4A08B522
S315080075F0127852B107280AD8084A02EB00131B7BF7
S315080076003BB102F0A9FC002008BD0548FCE7054887
S31508007610FAE70548F8E700BF92930020FC660020C9
S31508007620028000F0018000F0078000F00D4B1B7807
S3150800763093B1072812D889B10B4B03EB00131B7BB8
S3150800764073B10A4BDA6A012303FA00F010401ABF35
S3150800765000200B700870704705487047054870474A
S315080076600548704792930020FC66002000000450ED
S31508007670028000F0018000F0078000F00B4A10B588
S3150800768012780C4662B107280CD859B1084A02EBA1
S3150800769000131B7B43B102F071FC2060002010BD73
S315080076A00448FCE70448FAE70448F8E79293002000
S315080076B0FC660020028000F0018000F0078000F0E0
S315080076C0204B2DE9F0471F6D5A6D1F4C174010D5FA
S315080076D04FF000411D4A1165D868C0F30420030124
S315080076E0E35804EB00125BB3BDE8F047002152688B
S315080076F0184701260025DFF85480DFF854903742F2
S3150800770017D02368C8F850609BB1A1682846013194
S315080077106268A1609847637B012B0AD148B909EBD7
S3150800772045131A7B60F341021A731A7F60F341020C
S315080077301A770135082D4FEA460604F11004DED102
S31508007740BDE8F08700000450FC66002000200450C5
S315080077507C67002070B5044601250B4E04B970BD40
S3150800776094FAA4F0B0FA80F005FA00F306EB0012DA
S3150800777024EA03045368002BF0D0117B11B19168F9
S315080077809847EBE79847E9E77C68002008B5192091
S3150800779001F096FE28B14FF00072074BC3F880211E
S315080077A01A601A2001F08CFE28B14FF08062024B55
S315080077B0C3F880211A6008BD00E100E038B5054627
S315080077C00C4634F0A1F80022044B03EB05135C6069
S315080077D01A73BDE8384034F09DB800BF7C680020B5
S315080077E0F8B505460F46164634F08EF8104B05F0E8
S315080077F0FC02D3F824140023EC1804F00304144301
S3150800780021FA04FC1CF0010F07D00133042BF3D135
S31508007810FF2434F07FF82046F8BDFF2CF9D001226A
S31508007820044B03EB0413C3E901761A73F1E700BFAF
S3150800783000C003507C680020074BD3F82404D3F813
S31508007840202403F50053104000F0553020F0502056
S31508007850C3F82004FFF77EBF00C00350074BD3F8D8
S315080078602404D3F8202403F50053104000F0AA306E
S3150800787020F0A020C3F82004FFF76CBF00C0035017
S31508007880024B1968024B18682AF040BC4C130020BA
S315080078904813002037B5920004460D4601924DF074
S315080078A00FFF431C0BD060B929462046019A4DF0BC
S315080078B02EFC0028044808BF002003B030BD03484A
S315080078C0FBE70348F9E700BF10E000F021E000F00D
S315080078D024E000F010B504464DF0EAFE431C10D033
S315080078E088B902F005FC234620F00300204498429C
S315080078F001D1002010BD53F8042B0132F7D00348FC
S31508007900F8E70348F6E70348F4E700BF0EE000F09F
S3150800791021E000F024E000F008B533F0EEFF014B5B
S31508007920186008BDBC700020014B186833F0E9BF29
S31508007930BC70002038B141B1013AB2F5006F044875
S3150800794038BF00207047034870470148704700BF9A
S31508007950037000F0027000F038B504460D4633F0A7
S31508007960D3FFA3889BB223B92B6033F0D3FF064815
S3150800797038BD142263889BB202FB034408342C608A
S3150800798033F0C8FF0020F3E70B7000F0F8B50446A3
S3150800799016460F4633F0B8FFA388E2889BB29A4290
S315080079A0054605D80023336033F0B4FF1748F8BD01
S315080079B01422238807F1100C9BB202FB03433A46B4
S315080079C00833174603CF6745186059603A4603F1EE
S315080079D00803F6D1142238681860238828469BB213
S315080079E002FB0343083333602388E2889BB20133E2
S315080079F0B3FBF2F102FB11339BB22380A388013358
S31508007A009BB2A38033F086FF0020D0E70A7000F00F
S31508007A1090F83530022B0DD114223023417F90F88F
S31508007A20210013FB0123044A9B5823FA00F000F0B7
S31508007A30010070470020704730C00350002313B57B
S31508007A401D4A52F8044B94F8211081420ED0013396
S31508007A50042BF6D102B010BD0028FBD19DF80730E3
S31508007A60002BF7D0A068FFF781FDF3E794F83530CF
S31508007A70022BEFD12046FFF7CBFF637E2076022B41
S31508007A80E8D194F8323003F0FF02002BE2D1A06867
S31508007A900DF107018DF80720FFF7C8FD237E1BB1FE
S31508007AA094F83330002BD7D00023A06884F83330FD
S31508007AB0FFF77CFDCEE700BF70710020104930B596
S31508007AC00B78104A2BB9C2E90033C2E90233012305
S31508007AD00B700C4C0023214651F8045B854208D0F4
S31508007AE00133042BF8D1002154F8043B1BB942F8A2
S31508007AF02100002003E001310429F5D1024830BDF8
S31508007B009393002070710020027000F010B50446AF
S31508007B10FFF7F8FC002104F10800FFF7C3FC014653
S31508007B2020B904F10C00FFF7BDFC00B1004810BDF8
S31508007B300E7000F090F8363053B9042103790A4ADA
S31508007B4003F239135B01D150022203685A61704768
S31508007B50022B07D10068816C11F0020118BF0621BB
S31508007B6033F01BBF704700BF00C0035010B590F834
S31508007B703630044663B9042203685A619A69920743
S31508007B80FCD523790C4AB9335B011021995010BDF5
S31508007B90022BFCD10068836CDB074CBF052106214C
S31508007BA033F0FBFE237941F294425B0103F1A043D3
S31508007BB003F57033E9E700BF00C0035037B5044644
S31508007BC0836B33F0A1FEA36B0546013BA363A16B50
S31508007BD079B9019133F091FE04460199012007F025
S31508007BE081FA0120064A019907F074FC204633F011
S31508007BF088FE284603B0BDE8304033F08BBE00BF90
S31508007C00485905081FB50B460A6891F836101846F4
S31508007C1002290CBF926C9269920604D505B05DF8EC
S31508007C2004EBFFF7CBBF039333F0B9FD0022039BA8
S31508007C300146CDE9002203F13C00034A35F0C9FDAF
S31508007C4005B05DF804FB00BF057C000870B5044666
S31508007C5033F05AFEA36B054673B933F04EFE012185
S31508007C600646084607F03EFA0121074A084607F085
S31508007C7031FC304633F045FEA36B28460133A36337
S31508007C80BDE8704033F046BE4859050801232DE982
S31508007C90F04180F8313090F8363004460E4688B008
S31508007CA05BBB05683C3533F02FFE04F13C080746FC
S31508007CB00DF11F01404607F059FF40B99DF81F30E6
S31508007CC02BB1404607F028FF2046FFF777FF3846D6
S31508007CD033F020FE2046FFF7B9FF0D4B2A460393E3
S31508007CE0002302937368216901930123A068009316
S31508007CF00494336833F094FC07E0022B02D105683C
S31508007D004435D0E7002380F8313008B0BDE8F0816B
S31508007D10157D0008F0B585B0D06A03A91446FFF7AB
S31508007D201BFE0646204633F03AFD0025014623464B
S31508007D30CDE90055164A04F13C0035F04AFD154BCD
S31508007D409E421FD0039B1D619D6033F0DDFD039AA3
S31508007D500646D76827B1D2E9002329462046B84700
S31508007D60E06A03A933F032FDE06A83889BB263B107
S31508007D7003A9FFF7F1FD20460399FFF787FF304671
S31508007D8033F0C8FD012005B0F0BD84F83130F6E7C0
S31508007D90057C00080B7000F02DE9F3410D460446FA
S31508007DA000287FD033F0B0FD012D064641D1E36AA5
S31508007DB09B889BB2002B43D0A068FFF717FC0023D3
S31508007DC0E06A84F8313083889BB273B101A9FFF762
S31508007DD0C3FD0199A0680831FFF750FC374F019B96
S31508007DE01F61E06A83889BB283BB204633F011FD8E
S31508007DF08304FAD5023D012D10D8E068FFF7F6FB9B
S31508007E000023A06A84F8303083889BB26BBB94F851
S31508007E103530032B02D02046FFF78CFEA36B002BD0
S31508007E2002DD2046FFF7CAFE304633F073FD002018
S31508007E3009E0022D38D1A36A9B889BB2002BDCD1BE
S31508007E4033F068FD1E4802B0BDE8F08101A933F0A1
S31508007E50BDFC019BD3F80C80B8F1000FC1D00022FD
S31508007E60394620469B68C047BBE76946FFF774FD5D
S31508007E700099E0680831FFF701FC104D009B1D6171
S31508007E80A06A83889BB2002BC1D0694633F09EFC5A
S31508007E90009BDF68002FF3D00022294620469B6806
S31508007EA0B847EDE70748CEE7032DA3D1E36A9B88D9
S31508007EB09BB2002B80D1A36A7AE700BF097000F055
S31508007EC0087000F0027000F0F8B507460D46164631
S31508007ED0FFF730FD00286BD1152001F0FFFA0446A4
S31508007EE0FA6A93889BB213B197F83230E3B197F8E0
S31508007EF03630F3B93B689C6904F002041CB938466D
S31508007F00FFF734FE0024012387F8343097F836301B
S31508007F10CBB92E44B542386810D183699A06FCD588
S31508007F201CB300242046F8BD002CDAD0FFF7C8FBA6
S31508007F30D6E7022BE3D13B689C6CDDE715F8011BFD
S31508007F4033F043FEE6E7022BEAD12E44B542386801
S31508007F5006D142F22003826C33EA0202FBD1DFE744
S31508007F6015F8011B33F01EFDF0E797F8363053B9C4
S31508007F7010213B790F4A03F239135B01D1500822CD
S31508007F803B685A61CEE7022BCCD13868836CDB0795
S31508007F904CBF0921214633F000FD42F294421021DC
S31508007FA03B795B0103F1A04303F570339950B9E7B8
S31508007FB00446B7E700C0035010B5044680B190F8F0
S31508007FC032302BB9FFF724FD10B9A068FFF7CEFAB7
S31508007FD0002094F832300133DBB284F8323010BD19
S31508007FE00048FCE7027000F010B50446A0B190F80E
S31508007FF032309BB190F83230012B05D1FFF708FDDE
S3150800800010B9A068FFF7D2FA002094F83230013B85
S31508008010DBB284F8323010BD0148FCE70148FAE7C4
S31508008020027000F0057000F037B590F83550044638
S31508008030022D1DD1012290F82230457E817F9A407B
S315080080403020164B25B900FB013303F5015305E033
S31508008050012D07D100FB013303F582531A60002076
S3150800806003B030BD247E00FB0133002CF4D1ECE7CD
S31508008070012DF4D1037E73B911238DF80730FFF76C
S315080080809BFF2A4620460DF10701FFF71DFF2046F4
S31508008090FFF7AAFFE3E71323EFE700BF00C003508B
S315080080A02DE9F04305466D4F89B001AE0C460FCF5A
S315080080B00FC697E8070086E80700002D00F0CB807A
S315080080C024B9674E304609B0BDE8F0836022002126
S315080080D028464DF053F82846FFF7F0FC06460028D8
S315080080E0F0D1237D85F83530236885F836002B6076
S315080080F0227B2A715B4A9342E3D129236B624FF4B0
S31508008100802359498046C5E90413D4E90723AA629E
S3150800811010805080908085F83000EB621880588077
S315080081209880636885F831000393E38985F83300FE
S31508008130ADF81430238A0121ADF81230A37C3A2019
S315080081408DF81030E37C494F8DF8163005238DF8ED
S31508008150113000F0ADFB0121686A00F0A9FB206828
S3150800816001A98DF8046002F04FF81421237B03F16E
S3150800817039025201B950267AA07A07EB431346EA28
S315080081800042C3F83827617AE27A41EA024CC3F81A
S3150800819030C7EE76E877297785F82020637D0121B8
S315080081A06B77A37D284685F82130E37DAB77237E60
S315080081B085F8223033F083FA0646002882D133F058
S315080081C0A3FB237D8146032B33D10221227B02F1B7
S315080081D0B9035B01F950042107EB421741F22C72EF
S315080081E0236803F58053D965217EE37D43EA01437D
S315080081F0BB50A27D637D43EA024341F22872BB501D
S315080082004FF0FF32206800F500539A64237D032B54
S315080082100CBF0521042133F0C9FC4FF440622368E2
S3150800822028465A61FFF772FC0646484633F072FB49
S3150800823048E7022BE4D195F821000D49FFF7BEFA6D
S31508008240FFF7A4FA4FF4007328462B8385F81A80A3
S31508008250FFF7EAFED4E7074E34E700BF5059050892
S31508008260037000F000C005500200040000C003506F
S315080082703D7A0008027000F0F0B587B0044616464D
S31508008280FFF758FB054658BB0493194BCDE9011671
S31508008290059394F8363003962BBB23689B6903F045
S315080082A0020313B92046FFF761FC6A46E06A01A992
S315080082B0FFF76CFB054698B994F8313083B933F06B
S315080082C023FBE36A06469B889BB233B12046009996
S315080082D0FFF7DCFC012384F83430304633F01AFB10
S315080082E0284607B0F0BD022BDCD123689B6CD6E785
S315080082F0017000F0034B5A6812B19A6A002AFAD143
S31508008300704700BF00400650426810B5B2FA82F2C4
S31508008310144CC2F11F0163680BB1FFF7EBFF012292
S31508008320114B5A60636813F00203FBD1027A002AE4
S3150800833014BF02240024427842EA01120949224362
S315080083408A60427A0124002A18BF0223827A1343DC
S315080083504B62064B5C60037813B1FFF7CBFFCC602A
S3150800836010BD00BF00400650006006500050065081
S3150800837008B50D4B5A6802B938B15B680BB1FFF7FF
S31508008380B9FF18B10122094B5A6008BDFFF7B2FFC1
S3150800839002230549CB60FFF7ADFF0122044B5A6063
S315080083A04B689B07FCD4F0E7004006500050065087
S315080083B00060065008B5FFF79DFF02230449CB600D
S315080083C000230B62FFF796FF0123CB6008BD00BFB1
S315080083D000400650044BD3F88420D206FBD4D3F8C9
S315080083E08400C0F3811070470040005038B5104B28
S315080083F00546D3F880300C4603F00303022B0BD056
S31508008400032B0DD0012B0FD1FEF7A6FC0E2305B1C9
S31508008410286004B1236038BDFEF7E8FC0723F6E7B9
S31508008420FEF794FC0623F2E700231846EFE700BFA1
S315080084300080005038B5184B0546D3F820010C4685
S3150800844000F00700062805D8DFE800F0230B0F1711
S31508008450131B1F000023184605B1286004B12360CA
S3150800846038BDFEF773FC0523F6E7FEF7A5FC0323E4
S31508008470F2E7FEF7BBFC0723EEE7FEF7B3FC0223A1
S31508008480EAE7FEF763FC0623E6E7FEF795FC042316
S31508008490E2E70123E0E700BF0080005038B5174B3C
S315080084A00546D3F828310C4603F00703013B052B94
S315080084B020D8DFE803F003131B0F0B17FEF746FC63
S315080084C0052305B1286004B1236038BDFEF73EFCDC
S315080084D00623F6E7FEF78AFC0723F2E7FEF76CFCAD
S315080084E00323EEE7FEF768FC0423EAE7FEF77AFCC7
S315080084F00223E6E700231846E3E700BF00800050A2
S3150800850073B50D460021114B0191D3F880410646FB
S3150800851004F00304022C13D0032C0CD0012C13D125
S3150800852001A8FFF787FF10240EB1019B336005B140
S315080085302C6002B070BDFEF759FC07240190F3E7E2
S31508008540FEF750FC0190EFE70C46EDE7008000507F
S31508008550002337B50193164B0546D3F820320C464F
S3150800856003F00703042B04D8DFE803F0200B1116E9
S315080085701B0000230DB1019A2A6004B1236003B0E1
S3150800858030BD002101A8FFF789FF1223F2E7FEF7A5
S315080085902DFC07230190EDE732F0AAFF0A2301908C
S315080085A0E8E7FEF765FC09230190E3E70123E1E725
S315080085B00080005038B5104B0546D3F840310C46BC
S315080085C003F00303022B0BD0032B0DD0012B0FD185
S315080085D032F08EFF0A2305B1286004B1236038BD46
S315080085E0FEF746FC0923F6E732F085FF0C23F2E78F
S315080085F001230020EFE700BF00800050002337B5B5
S315080086000193164B0546D3F860320C4603F0070370
S31508008610013B032B1FD8DFE803F0020E19140021D3
S3150800862001A8FFF707FF10230DB1019A2A6004B1CC
S31508008630236003B030BD002101A8FFF7BBFF11235B
S31508008640F2E7FEF7D3FB07230190EDE7FEF7CAFB37
S3150800865002230190E8E70023E6E700BF0080005008
S31508008660002337B50193164B0546D3F894320C46CA
S3150800867003F00703013B032B1FD8DFE803F0020EC4
S315080086801914002101A8FFF7D5FE10230DB1019A90
S315080086902A6004B1236003B030BD002101A8FFF7AA
S315080086A089FF1123F2E7FEF7A1FB07230190EDE707
S315080086B0FEF798FB02230190E8E70023E6E700BFF0
S315080086C00080005038B5144B0546D3F800020C4616
S315080086D000F00700042804D8DFE800F01B0A0E1291
S315080086E016000023184605B1286004B1236038BD7A
S315080086F032F0FEFE0A23F6E7FEF7BAFB0923F2E795
S3150800870032F0F9FE0C23EEE7FEF740FB0F23800A52
S31508008710E9E70123E7E700BF0080005038B5144BAE
S315080087200546D3F808020C4600F00700042804D8CA
S31508008730DFE800F01B0A0E1216000023184605B1E2
S31508008740286004B1236038BD32F0D2FE0A23F6E76A
S31508008750FEF78EFB0923F2E732F0CDFE0C23EEE797
S31508008760FEF714FB0F23800AE9E70123E7E700BFBA
S315080087700080005038B5104B0546D3F840320C46F9
S3150800878003F00303022B0BD0032B0DD0012B0FD1C3
S3150800879032F0AEFE0A2305B1286004B1236038BD65
S315080087A0FEF766FB0923F6E732F0A5FE0C23F2E78F
S315080087B001230020EFE700BF0080005038B5104BBA
S315080087C00546D3F860310C4603F00303022B0BD0A1
S315080087D0032B0DD0012B0FD132F08AFE0A2305B1E7
S315080087E0286004B1236038BDFEF742FB0923F6E78B
S315080087F032F081FE0C23F2E701230020EFE700BFE9
S3150800880000800050B0F5207F1FD009D8B0F5007F52
S3150800881015D003D868B1B0F5C07F0AD000200CE0A7
S31508008820B0F5607FFAD10B4BD3F88000C0F3011086
S3150800883003E0084B186FC0F3033001307047054B4F
S31508008840D3F89000C0F30460F7E7024B186FC0F343
S315080088508020F2E70080005002464FF48030104B2B
S3150800886010B598660020FFF7CDFF504341F67132E8
S315080088700C4BDC69DA635A6804F4803422F440123B
S3150800888059B9094988428CBF4FF48010002010431B
S3150800889058600CB10022DA6310BD0449F2E700BF44
S315080088A00090005000000350005A6202002D31016A
S315080088B0430905D0012B0DD0022B094B18BF002305
S315080088C000F01F0041B103F58053012202FA00F0BF
S315080088D018607047034BF3E703F50053F5E700BF4D
S315080088E068800050648000501FB500218028044627
S315080088F0CDE9001100F0998029D8002800F0998068
S31508008900A0F120043D2C35D83D2C33D8DFE804F0FF
S3150800891091999199A8A8A8A8A899B23CC8603C9929
S315080089209999323232323232323299999968D299D9
S3150800893032323232323232323232323232A89191D5
S3150800894091CD3C3CD7774DAD323232323288B0F5D4
S31508008950B06F00F08F802DD8B0F5207F71D00CD87D
S31508008960B0F5C07F65D0B0F5007F65D0B0F5807FE3
S3150800897000F08580009804B010BDB0F5607F6AD01D
S315080089800DD8B0F5407FF5D1FEF700FA02464FF450
S315080089902070FFF737FFB2FBF0F0400847E0B0F56C
S315080089A0806F5DD0B0F5A06FE4D100216846FFF76F
S315080089B0CFFDDFE7B0F5106F77D016D8B0F5E06FCA
S315080089C078D00AD8B0F5C06F6AD0B0F5D06FD1D1DB
S315080089D000216846FFF776FECCE7B0F5F06FC9D1FF
S315080089E000216846FFF7EAFEC4E7B0F5406F3CD0C1
S315080089F013D8B0F5206F62D0B0F5286FBAD1002130
S31508008A00314B0391D3F8703203F00303012B02D1E3
S31508008A1003A8FFF7CFFD039B3BE0B0F5486FA9D14C
S31508008A2000216846FFF71CFEA4E7FEF795F90090BB
S31508008A30A0E7FEF7ABF9FAE7FEF78EF902462046FD
S31508008A4004E0FEF7A3F902464FF42070FFF7DAFEBA
S31508008A50B2FBF0F0EBE701A8FFF7C8FC019AEEE7D6
S31508008A6000216846FFF7E6FC84E700216846FFF721
S31508008A7015FD7FE700216846FFF742FD7AE74FF0CC
S31508008A80E02302911B695B0705D5FEF77FF9029083
S31508008A90029B00936EE703A902A8FFF78BFDF7E791
S31508008AA000216846FFF786FD64E700216846FFF760
S31508008AB035FE5FE700216846FFF75CFE5AE70021AE
S31508008AC06846FFF79BFD55E70080005008B58020F3
S31508008AD0FFF70AFF034B98429EBF4FF48032024BC2
S31508008AE01A6708BD005A620200A000501FB500238D
S31508008AF0B0F5807F019300F0C38064D85D2855D80F
S31508008B004C2807D82D2847D823282BD8019805B0F4
S31508008B105DF804FB4D381028F8D801A353F820F067
S31508008B20778C00080D8B00080D8B00080D8B00084C
S31508008B30298C00080D8B00080D8B0008FD8C000899
S31508008B40478C0008ED8B0008F38C00080D8B000895
S31508008B500D8B00080D8B00080D8B00080D8B000887
S31508008B60078D000824380928D0D801A353F820F027
S31508008B70778C0008778C0008778C0008778C0008BB
S31508008B80778C00080D8B00086D8C00080D8B00088B
S31508008B90098C0008AD8C00083D2800F082803E282C
S31508008BA0B4D1002001A9FFF7E5FDAFE78028ADD1D4
S31508008BB05A4B1B6F03F00703013B032BA6D8DFE8CC
S31508008BC003F05350878FB0F5F06F6AD021D8B0F50F
S31508008BD0B06F4BD00FD8B0F5607F00F0858095D385
S31508008BE0B0F5806F47D0B0F5A06F8FD1002001A9EE
S31508008BF0FFF7AEFC8AE7B0F5D06F57D0B0F5E06F57
S31508008C00CFD0B0F5C06F81D1002001A9FFF7D2FC03
S31508008C107CE7B0F5206F71D00BD8B0F5086F4AD055
S31508008C20B0F5106F7FF472AF002001A9FFF776FD4B
S31508008C306CE7B0F5406F5CD0B0F5486F63D0B0F51F
S31508008C40286F7FF463AF0021344B0391D3F8703259
S31508008C5003F00303012B5BD0022B14BF0B4615232D
S31508008C6000E00523019351E70223FBE7002001A951
S31508008C70FFF746FC4AE7002001A9FFF7DBFB45E7BB
S31508008C8002934FF0E0231B695B0705D5FEF77EF8D4
S31508008C900D230393039BE5E703A902A8FFF78AFCC4
S31508008CA0F8E7002001A9FFF789FD2FE7002001A9B1
S31508008CB0FFF708FD2AE7194BD3F8003103F0030341
S31508008CC0022B07D0032B09D0012B0BD1FEF774F822
S31508008CD00323C7E7FEF7CCF80923C3E732F006FCFF
S31508008CE00823BFE70123BDE7184601A9FFF77EFB66
S31508008CF00CE7002001A9FFF7D1FB07E7002001A92F
S31508008D00FFF77CFC02E7002001A9FFF7A9FCFDE6B6
S31508008D1003A8FFF74FFC1123A4E700BF008000500B
S31508008D204FF48012034B5A664FF48032024B9A6214
S31508008D30704700BF009000500050005A38B50446EE
S31508008D408020FFF7D3FE032800F08A804FF48012B4
S31508008D50544B4FF0A0615A6645F60E03524AC2F8C4
S31508008D608030524B99624FF4803103F580539962F3
S31508008D70936DD903FCD4916D11F08041FBD1D4E9F0
S31508008D8000031B0543EA0063E07B0343207B43EAB9
S31508008D900043607B43EA0033A07B43EA80131361F8
S31508008DA09069D4E904531B0643EA856300F0004042
S31508008DB00343A07EE57E0343207E43EA0043607EAC
S31508008DC043EA00239361E069136A00280CBF002276
S31508008DD0082223F00F0343EA000343EA850343EA24
S31508008DE00203314A324D13623BD194F82430916A1A
S31508008DF094F82000DB000D4043EA401394F8211054
S31508008E002B4343EA011343F480339362294B916D54
S31508008E1033EA0101FBD14FF080712448816213695E
S31508008E20A56823F4700343EA055313614FF0004322
S31508008E30836194F822300BB91F4B996294F823305A
S31508008E403BB94FF480321C4B9A62174A936D5B000C
S31508008E50FCD494F825301BB1134B184AC3F880206C
S31508008E6038BD022808D11161154891614FF408529E
S31508008E704FF47F4132F008FD0B4994F822308A6A94
S31508008E8094F820001B06154043EA401394F8242062
S31508008E902B4343EAC20394F8232043EA02438B6236
S31508008EA0D7E700BF009000500040005A0050005A13
S31508008EB0C7FFFEFE030001000060005AF1A7FFFF8E
S31508008EC03440005A014B93F9000070479B14002068
S31508008ED0014B1880704700BF6C140020B0F5207F46
S31508008EE010B50C4657D008D8B0F5007F48D003D83F
S31508008EF030B3B0F5C07F23D010BDB0F5607FFBD18D
S31508008F0029492A48D1F8FC2012F080721EBFD1F8F0
S31508008F10FC3023F08073C1F8FC30D0F88030611E35
S31508008F2023F0300444EA0114C0F88040002AE3D054
S31508008F301D4AD2F8FC3043F08073C2F8FC30DBE7F8
S31508008F4032F0B3FC32F0BFFC4FF48031184B174AAD
S31508008F501967136F611E23F4704444EA01341467D9
S31508008F60FDF714FF0446FFF735FAC0F10201204663
S31508008F7032F0A3FC00F02EF8BDE81040FFF7A6BDBE
S31508008F800A4A0139D2F8903023F0F85444EA0164C9
S31508008F90C2F89040B0E7054B013C196F21F4806197
S31508008FA041EA84241C67A7E700ED00E00080005032
S31508008FB00090005008B50121022000F003FB32F0B2
S31508008FC074FC32F080FC4FF48032014B1A6708BDFE
S31508008FD00090005008B54FF4C070FFF785FCBDE857
S31508008FE00840044988428CBF022101214FF42070B1
S31508008FF0FFF774BF80F0FA02B0F5807FF8B50C462B
S3150800900000F052816BD85D285DD84C2804D82D28ED
S3150800901044D8232828D8F8BD4D381028FBD801A3F2
S3150800902053F820F089920008179000081790000856
S31508009030179000087B910008179000081790000801
S315080090403D940008B39100080B9100081D94000890
S315080090501790000817900008179000081790000846
S31508009060179000085D94000824380928D3D801A36E
S3150800907053F820F08992000889920008899200081E
S3150800908089920008899200081790000869920008DA
S315080090901790000841910008579300083D2800F0F2
S315080090A04A813E28B7D1093C032C8CBF0021B24B1C
S315080090B0B24A98BF195DD2F8403223F003030B4336
S315080090C0C2F84032A7E78028A5D18B1E062B00F2EE
S315080090D0C880DFE803F0C3B1C67EC6C6C000B0F5D7
S315080090E0F06F00F028813BD8B0F5B06F00F0BC8077
S315080090F01BD8B0F5607F00F06B818CD3B0F5806F1C
S3150800910000F0C280B0F5A06F85D1073C0B2C8CBF50
S3150800911000219B4B994A98BF195DD2F8203223F05B
S3150800912007030B43C2F8203275E7B0F5D06F00F09D
S315080091301281B0F5E06FB6D0B0F5C06F7FF46BAFB3
S31508009140093C032C8CBF00218E4B8C4A98BF195DB5
S31508009150D2F8403123F003030B43C2F840315AE7F3
S31508009160B0F5206F00F06A8117D8B0F5086F00F0E7
S315080091701F81B0F5106F7FF44EAF093C062C8CBFEB
S315080091800021814B7D4A98BF195DD2F8083223F039
S3150800919007030B43C2F808323DE7B0F5406F00F00D
S315080091A03D81B0F5486F00F05981B0F5286F7FF41E
S315080091B032AF112C00F06281152C14BF0021022158
S315080091C06E4AD2F8703223F003030B43C2F87032AA
S315080091D021E7002502264FF480370121022000F0FE
S315080091E0F1F932F062FB32F06EFB684B634A1F6797
S315080091F0136F23F0070333431367FDF7C7FD0646CE
S31508009200FFF7E8F8C0F10201304632F056FB0121BB
S31508009210002000F017FAFFF7DDFEFFF757FC002DD8
S315080092207FF4F9AE032C7FF4F6AE594B594A9F6288
S31508009230936D5800FCD4EEE64FF48012534B0E465D
S315080092405A664FF48032534B9D6A03F58053C5F333
S3150800925000659A62BFE700250426BCE700250126BB
S31508009260B9E700252E46B6E7023C0E2C8CBF002136
S31508009270494B424A98BF195DD2F8803123F003035F
S315080092800B43C2F88031C6E6023C052C8CBF002190
S31508009290424B3A4A98BF195DD2F8203123F00703AA
S315080092A00B43C2F82031B6E6A1F10904082C3FF6B3
S315080092B0B2AE01A353F824F0DD920008DD9200084F
S315080092C017900008DD9200080B9300081790000815
S315080092D01790000817900008DD9200084FF48032B6
S315080092E0264B2F49586E03F580535A664B6A43F04E
S315080092F001034B62C1035CBF2A4B5A664FF0E0225A
S31508009300136923F00403136185E64FF480321B4B7F
S315080093102349586E03F580535A664B6A23F00103B6
S315080093204B62C3035CBF1F4B5A664FF0E0221369BA
S3150800933043F00403E7E7093C032C8CBF00211A4BD2
S315080093400E4A98BF195DD2F8603123F003030B4328
S31508009350C2F860315FE6093C062C8CBF0021134B2E
S31508009360064A98BF195DD2F8003223F007030B436B
S31508009370C2F800324FE600BF925905080080005037
S31508009380AD590508925905089659050800900050E8
S315080093900060005A0040005AC95905088C5905084A
S315080093A000C0075000A000509259050896590508B4
S315080093B0CC1E062C8CBF0021314B324A98BF195D52
S315080093C0D2F8003123F003030B43C2F8003122E63A
S315080093D02D49063CD1F8FC2012F080721EBFD1F848
S315080093E0FC3023F08073C1F8FC30082C8CBF0020B9
S315080093F0264B244998BF185DD1F8803023F0030323
S315080094000343C1F88030002A3FF405AE1E4AD2F85D
S31508009410FC3043F08073C2F8FC30FCE5023C052CB6
S315080094208CBF00211A4B174A98BF195DD2F828310C
S3150800943023F007030B43C2F82831ECE5023C0F2C56
S315080094408CBF0021134B0F4A98BF195DD2F86032C2
S3150800945023F007030B43C2F86032DCE5023C0F2C0D
S315080094608CBF00210C4B074A98BF195DD2F894327D
S3150800947023F007030B43C2F89432CCE501219FE69B
S315080094809D5905080080005000ED00E0A459050824
S315080094908C590508B9590508B95905080028ABBFFC
S315080094A000F16040054B00F5614000F00F00ACBFCD
S315080094B090F80003185C0009704700BF14ED00E03F
S315080094C0054B420953F8223000F01F0023FA00F03A
S315080094D0C04300F00100704700E100E0014608B50E
S315080094E0EFF31083DB0702D50122104608BDFFF70C
S315080094F0E7FF02460028F7D10846FFF7CFFF0146E7
S31508009500EFF3118313B1B0EB131FEDD2074B5B6872
S31508009510C3F30803002BE8D0103B58B2FFF7BEFF91
S3150800952088428CBF00220122DFE700BF00ED00E081
S31508009530024A536B0342FCD1704700BF00400950F2
S31508009540044A4178536F23F4407343EA012353676F
S31508009550704700BF004000500A4A10B51369044618
S3150800956043F00403136106F0ADF832F0D6F930BFC4
S3150800957032F0D4F906F0E0F81CB9BDE81040FDF762
S3150800958005BC10BD00ED00E0084A10B51369044695
S3150800959043F00403136106F095F830BF06F0CCF8E3
S315080095A01CB9BDE81040FDF7F1BB10BD00ED00E0A9
S315080095B0034A0179D36E23F030030B43D366704711
S315080095C000400050F8B504461C4BD3F88420D10659
S315080095D0FBD4D3F88430C3F381139C422CD0FDF717
S315080095E0BBFB012C064602D1214632F066F932F061
S315080095F084F94FF00072124B07465A66204632F03D
S3150800960090F94FF480630D4D621E93402B676B6E85
S315080096109A0103D4D5F884309B060AD5384632F029
S3150800962070F9022C08D13046BDE8F840002132F026
S3150800963044B9D5F88430EAE7F8BD00BF00400050C9
S315080096400060005007B518B90191FDF785FB01992F
S31508009650064B1B7843B1064B984205D8012003B048
S315080096605DF804EBFFF7AEBF0220F8E794930020FD
S31508009670005A62020278034B012100201A70FFF794
S31508009680E1BF00BF949300204FF0004238B5244B49
S31508009690244C5A664AF6CD33656C014605F0010539
S315080096A0236430BB0120FFF743FF6368DB0708D458
S315080096B0002415B11B4B1C4A1A644AF032FF204697
S315080096C038BD1A4B58600846194B226BD20705D489
S315080096D0984201D10724ECE70130F6E79842E7D132
S315080096E0F8E70132236B13F0080305D08A42F8D154
S315080096F0F0E700220E49F5E78A42EBD020210B4A13
S3150800970091620121A2F5805251600649084A886A89
S31508009710800603D49342DDD00133F8E79342DEE7AF
S3150800972000900050004009503254FFFF0060095075
S3150800973040420F004FF0004238B5164B01465A66B4
S315080097404AF6CD33144C154A656C236443780B20CE
S315080097505B0043F00103D363FFF7EAFE63688A7888
S3150800976023F4F87343EA02136360CA784B7943EA31
S315080097700223A3600A798B7943EA022323610878D6
S31508009780FFF782FFEB0744BF054B23644AF0C9FE87
S31508009790012038BD0090005000400950004000509C
S315080097A03254FFFF4FF00042124B70B55D6E03F561
S315080097B080535A664AF6CD3304460F4980204E6CCC
S315080097C00B64FFF7B5FE0B6A23F00F030F2C94BF4B
S315080097D0234343F00F030B62F30744BF074B0B64A5
S315080097E0002DA2BF4FF00042054B5A664AF099FE7B
S315080097F070BD00BF00800050004009503254FFFF82
S3150800980000A000504FF00042104B70B55D6E03F596
S3150800981080535A664AF6CD3304460D4980204E6C6D
S315080098200B64FFF785FE0B6A23F4F85343EA042317
S315080098300B62F30744BF074B0B64002DA2BF4FF022
S315080098400042054B5A664AF06CFE70BD0080005017
S31508009850004009503254FFFF00A000502C4B2DE960
S31508009860F0419842064612D02A4886420CBF572035
S315080098700020FFF739F8B16811F0010109D0316904
S31508009880090E0131B0FBF1F10846BDE8F08156201A
S31508009890EFE7326BB468204B04F0E004402C03EA8F
S315080098A0020310D007D854B3202C2CD0B36DDB0795
S315080098B048BF4908E8E7602C27D0802CF6D14FF43A
S315080098C080750C461CE080250C464FF0030803F50E
S315080098D0807308FB03F800234246194630F05AFB0A
S315080098E002FB04F100FB05F705FB0311A2FB0505C6
S315080098F000234246294430F04DFB3918D6E7102597
S315080099004FF00108E3E72546DBE74025D9E700BF26
S315080099100000015B00000A50F8FF7F00072AF7B530
S3150800992001F0030614461F464FF003012CD8950094
S31508009930A94000FA05F21C48019132F038F801995D
S315080099401A4806FA05F232F032F8194B19499DF809
S315080099502000002F08BF1946012303FA04F40C60FF
S31508009960154B1649002808BF0B461C60144B9DF87A
S315080099702400C3F820441031A3F6DC33002808BFBE
S315080099800B461C6003B0F0BDA2F10805AD00A94066
S3150800999000FA05F20B48019132F009F801990A48D4
S315080099A006FA05F2CFE700BF00C4035008C4035007
S315080099B010E4035010D4035014D4035014E4035095
S315080099C000E0035004C403500CC403502DE9F041D1
S315080099D005460F461E4690464AB101233022194CC9
S315080099E08B4002FB00443EB304F5825423600F21EA
S315080099F0072F05EB450388BFA7F108044FEA0313B1
S31508009A00114895BFBC00A40004330C3308FA04F2CD
S31508009A10A140184431F0CBFFB8F1000F0AD101215B
S31508009A203020084A01FA07F700FB05223EB102F585
S31508009A3082521760BDE8F08104F50154D6E702F5B5
S31508009A400152F6E700C0035030C003504369DA01FB
S31508009A50FCD4012300F50050024A436053689B0773
S31508009A60FCD4704700400059084608B569B92A2051
S31508009A70FEF73AFFB0B10C4B984206D90B4B9B68E0
S31508009A80C3F302730133B0FBF3F0094900F5742000
S31508009A9000F23F20B0FBF1F001387F2828BF7F2075
S31508009AA0C0B208BD0120F0E7005A62020040005922
S31508009AB040420F0010B50B4C8C4228BF0C461AB911
S31508009AC02A20FEF711FF0246601E0244B2FBF4F09C
S31508009AD0A24228BF00F1FF30032828BF0320C0B2E6
S31508009AE010BD00BF005A620210B51048104C002B7A
S31508009AF018BF2046884228BF084604461AB92A20B5
S31508009B00FEF7F2FE02469DF808000130B2FBF0F2BD
S31508009B10601E0244B2FBF4F340F2FF30A24228BFB3
S31508009B2003F1FF33984228BF184610BD8096980067
S31508009B30404B4C002DE9F04F2DED048BB44E0C46EE
S31508009B4087B01546314600220746FFF7B3FF63790B
S31508009B50984238BF18465FFA80F83846FFF776FF0E
S31508009B60207950B92A20FEF7BFFEB042014628BF29
S31508009B70B0FBF8F13846FFF777FFE3784FEA08724B
S31508009B801B0102F0E04203F030031343000422787D
S31508009B9000F4FE0003430AB143F0020362780AB1F7
S31508009BA043F00403A2780AB143F008034FF0000912
S31508009BB0BB60E38822893B616389DFF860A243EAD8
S31508009BC002433B62574502D1B9F1020F08D101237E
S31508009BD007F580577B6007B0BDEC048BBDE8F08FB6
S31508009BE000222C788B488C49AE68944218BF0146EF
S31508009BF023468A48CDF80080FFF776FFB6B286423C
S31508009C00334638BF034607EB091103938B6C04F000
S31508009C10030623F0435323F41D1323F4405323F080
S31508009C201F0333436E78EA78B60006F01C061E4317
S31508009C30AB784FEA09101B0303F4E04333431604D9
S31508009C4006F4E02633432E7C760506F46006334395
S31508009C502E79360706F0405633438B648B6C704971
S31508009C60C3F30233013B042B00F28580DFE803F0DF
S31508009C70838383030300D1F8843109F1050B002C93
S31508009C806FD10AEB00039C6CC4F30234631E012BEC
S31508009C90634B73D8DFED637AD3F88041A4B223040B
S31508009CA04FF001035044806C24F4C046C0F3820090
S31508009CB000F1010E03FA0EFE07EE10EA4FEA864699
S31508009CC0B8EEC79AF6EE008A554B48BF46F00046EE
S31508009CD0002871D1D3F88C311BB208EE103AB8EED1
S31508009CE0C88A37EE888A002A7BD105A800F0D4F9FD
S31508009CF0DFED4D7ADFED4D6A86EE897ADFED4C6A47
S31508009D0067EE887A27EE267AF1EE006AB6F1004FFA
S31508009D1007EEA67A0BD0DFED476A07EE904A37EED4
S31508009D20266AFAEEE87AB0EE667A17EE867AB5EE25
S31508009D30C07AF1EE10FACABFB1EE477A38EEC77AA2
S31508009D4037EE687AFDEEC77A17EE903AB3F5003F1C
S31508009D5054DB6FEA56466FEA46464FEA0B134AF853
S31508009D600360039B0AEB0B11C3F309024A6009F16E
S31508009D700109143526E7D1F880317EE7032C0AD18C
S31508009D80D3F88041D3F88C31240C1B1407EE903A93
S31508009D90F8EEE77A83E7042CD3F884410BBFD3F8AF
S31508009DA08C31D3F88C311B141B1407BFA4B25B008B
S31508009DB0240C03EB4303E9E7D3F89001D3F8883181
S31508009DC000B207EE100AB8EEC77A77EE677A29EE80
S31508009DD0287A1BB287EE878A07EE903AF8EEE77A7A
S31508009DE07FE7D5ED037ADFED146AF8EE677A87EE3A
S31508009DF0A67AF7EE046AC6EE877A7BE713F5003F84
S31508009E00AABFC3F3110346F400361E43A5E700BFF5
S31508009E10005A6202404B4C00809698000040005958
S31508009E200080E00F000000003D3B843F00008043B7
S31508009E30000020440000004900007A44044A054B0B
S31508009E40002918BF1346012202FA00F0186070476D
S31508009E50402004504010045010B50121044620202B
S31508009E60FEF726FD01212120FEF722FD0122114BD6
S31508009E705A60227812069A606178A27842EA01420C
S31508009E809A61FF229A6200229A631A644FF000428E
S31508009E905A654FF0FF324FF4001103F500531A6567
S31508009EA0054AC2F88011E3781B01DBB282F8153344
S31508009EB0116010BD0000045000E100E02DE9F041FA
S31508009EC00125C3B2D1F8008091F80AC00F7B91F83A
S31508009ED00DE09D400C46CB7A1C491D4E0D65810050
S31508009EE001F1A04101F58821C1F80480302101FB68
S31508009EF000601B0543EA0C4343EA475322F003027A
S31508009F00C0F860E0C365026731F0FEFC736D2B4351
S31508009F107365237A13B1336C2B433364637A13B1B5
S31508009F20B36B2B43B3632279A37943EA0243074A07
S31508009F3093616179E37943EA014306498B61044BEE
S31508009F4055639D64BDE8F04131F0E4BC002004503F
S31508009F50000004500010045010B50124C0B284401B
S31508009F6031F0D2FC044B5A6D22EA04025A659C620F
S31508009F70BDE8104031F0CEBC00000450F8B501250C
S31508009F80C3B204469D4031F0BFFC3022094B1E6D1A
S31508009F905F6B02FB04335C6E31F0BCFC3D4206D1BC
S31508009FA0C4F30A1008B9354200D10130F8BD0020C3
S31508009FB0FCE700BF000004504FF48032054B9A6658
S31508009FC041F6713203F51C33DA63012203F50053B7
S31508009FD0DA6070470090005041F671320121064B55
S31508009FE0DA6303F50052D1600022DA634FF4803257
S31508009FF0A3F518339A6670470000035001383128D4
S3150800A0009ABF024B185C0020704700BFD859050854
S3150800A010021E30B54FF000000CBF1025042547F688
S3150800A0200774084952B9831D51F82330234023B1D8
S3150800A03001308542F6D14FF0FF3030BD00F11603EE
S3150800A040F2E700BF0080035010B5C2F306230446AA
S3150800A05002F0070241B942EA03220B4B42F44022BE
S3150800A060063443F8242010BD1846114631F02EFD5B
S3150800A07001461846FFF7C2FF034B41EA0020163493
S3150800A08043F82400EFE700BF00800350014BD3F8E4
S3150800A09094007047004000504FF48032064B5A66D1
S3150800A0A003F5E6239B69C3F38512827003F03F022A
S3150800A0B01B0B4270037070470090005040F6B73291
S3150800A0C0064B5B689BB293429FBF4FF47A72B3FB11
S3150800A0D0F2F3034AD05C88BF002070470080E00F87
S3150800A0E00A5A0508014B986CD96C70470080E00F36
S3150800A0F00120034B9B680A3303F01F0398407047FF
S3150800A1000080E00F70B5054616461C4621B94FF487
S3150800A1102070FEF7E9FB0146402C1BD003D8DCB1C2
S3150800A120202C1BD070BD602CFCD1042303FB06F247
S3150800A130560806EB4113B3FBF2F3094A203B02EA41
S3150800A140C303AA6822F06002AA60AA681443AC6036
S3150800A150EB61E7E70623E9E71023E7E70823E5E7E6
S3150800A160F8FF7F002DE9B841154F15460F40FAB99B
S3150800A170202B20D0402B20D0002B14BF40241024A5
S3150800A180012307F580775F4300233A4619462FF0E7
S3150800A19001FF554300FB04F804FB0351A2FB04042A
S3150800A1A000233A4621442FF0F5FE4044BDE8B88125
S3150800A1B080240025E4E71C46E2E780240323E0E741
S3150800A1C0F8FF7F00012100F5805310B5596040F66D
S3150800A1D0AA6341F2050243610023094C8360C36503
S3150800A1E0C26000F500520361C361C3649464054C00
S3150800A1F08365A04204BF03654365516010BD00BF77
S3150800A200FFFF010000C0055070B50D46FFF7DAFFE5
S3150800A210012300F580567360AB7C04461BB1836846
S3150800A22043F080438360EB7C5BB1244B9C4202BFC6
S3150800A2302A7DA3F51033C3F8C821E36D43F08003E4
S3150800A240E3652A8A6B7B20461343EA891343E36056
S3150800A2502B7BD5E90112FFF755FF6B7D1BB1A36870
S3150800A26043F48033A360AB7D1BB1A36843F400437A
S3150800A270A360EB7D2A7E1B07120502F4E00203F0B9
S3150800A280E0431343A3656B7E9A1E012A4FF0020230
S3150800A29009D80B49032BC1F8202709D10423F365F4
S3150800A2A02B78636170BD0749012BC1F82027F4E7B5
S3150800A2B0042204F50053DA65F2E700BF00C0055032
S3150800A2C000D0035000E00350054B9A689107FCD470
S3150800A2D05A689207F9D4DA69002AF6D1704700BF9E
S3150800A2E000800A5008B5FFF7EFFF0122024B03F57D
S3150800A2F080514A601A6108BD00800A50074B5A68A7
S3150800A300012A0AD15A68D20702D5DA69002AF9D190
S3150800A31002221A610122024B5A60704700800A50D5
S3150800A32000A00A5010B5064CFFF7CEFF6368012B54
S3150800A33003D1FFF7E3FFFFF7C7FF0378E36010BD1C
S3150800A34000800A50E8B94A680B7812B1127843EAD5
S3150800A350C2034A78002A14BF0222002213438A68DD
S3150800A36012B1127843EA82138A78002A14BF0422AB
S3150800A37000221343CA6812B1127843EA4223014AFB
S3150800A3809364704700800A5008B9014B59647047B6
S3150800A39000900A5008B9014B5964704700A00A504A
S3150800A3A008B9014B1964704700A00A5010B9024B4E
S3150800A3B0186C70470020704700800A5048B911B1E0
S3150800A3C0012903D07047044BD86C7047024B186DAF
S3150800A3D070470020704700BF00800A5040B911B18D
S3150800A3E0012903D07047034BDA647047014B1A659D
S3150800A3F0704700BF00800A5010B9024B586D70476D
S3150800A4000020704700800A5038B50446054D4AF0CA
S3150800A4109DF80FCC0FC594E8030085E803000020DB
S3150800A42038BD00BF8071002047F6FF739A42F0B529
S3150800A43066D0012966D8344DCF0015F8313005EBC2
S3150800A440C100012B847813D10025C3781B1B9D42BC
S3150800A45002D3E018C0B2F0BD591B4668A3EB510100
S3150800A46036F911609642D4BF0D4601F1FF33EEE787
S3150800A47040680028EFD0B0F90030934204DBB0F909
S3150800A48002309342B8BF134682883D44FF2A19BF5B
S3150800A490C8214FF0280CB0F90610B0F908C0A1EB96
S3150800A4A003020CBF0126002692FBFCF26D783244AB
S3150800A4B012B2954201DD002A01DA6A1E12B24FF481
S3150800A4C07A7700EBC206F188B668013213FB0161A0
S3150800A4D012B221EAE1715C319542B1FBF7F104DD74
S3150800A4E000EBC206B6888E42EBD200EBC20232F807
S3150800A4F0040C884228BF0846A04238BF2046A9E770
S3150800A500FF20A8E70020A6E7807100200129F0B502
S3150800A51053D82B4800EBC10410F8311063680129A1
S3150800A5200FD1E078A478904294BFC4EB0001C4EB45
S3150800A5300201001BCAB28242C8BF002233F91200C8
S3150800A540F0BD002B39D0A178914202D3B3F90200AD
S3150800A550F6E7E178B3F900009142F1D99988647871
S3150800A560A1F1FF06013C714203F10405E4B2714111
S3150800A57003F10C071FFA82FCCEB2B44216D805EBDB
S3150800A580C1014FF47A756A43B1F902404968521A13
S3150800A59004EBD47102EB610292FBF4F29042CFDB3A
S3150800A5A0B3F902009042CBDC10B2C9E737F831E0C4
S3150800A5B04E1CE645E3D33146DEE70248C0E700BF56
S3150800A5C0807100200080FFFF0148FFF71DBF00BF14
S3150800A5D0ECA305087FB51422002101A84AF0CEFD98
S3150800A5E0044B01A94FF0FF3002934AF076F807B002
S3150800A5F05DF804FB006A18002DE9F84307F03AFDF8
S3150800A6000128074605D907F069FD061E02DA012466
S3150800A6101EE00026DFF8808098F8003003F0FF047B
S3150800A62093BB4FF05009194D05F110032846C5E9AB
S3150800A6300044AB60C5F80C9007F0C2FE286650B916
S3150800A6400124012F04D9304607F06AFD0028DEDB15
S3150800A6502046BDE8F8830E4D214605F110032A462B
S3150800A6600120C5E90044C5E9023907F069FF2866F3
S3150800A6700028E5D03022074B83F8412302229A604E
S3150800A680012388F80030DCE70024DAE7FC710020B3
S3150800A6909871002000E100E09593002008B507F0C6
S3150800A6A0E9FC02280FD1094B4FF0FF31186E07F06D
S3150800A6B0C9FE002814BF0120002003D14FF4806290
S3150800A6C0034B9A6608BD0020F8E700BFFC7100201E
S3150800A6D0009000504FF4806208B5084B9A6607F060
S3150800A6E0C9FC022807D1064B186E07F0DBFE0038B6
S3150800A6F018BF012008BD0020F9E700BF00A00050E0
S3150800A700FC71002008B54FF098435B6CD90208D558
S3150800A71007F0B0FC0238012803D8094B186E07F079
S3150800A7209BFF4FF098435A6CD202FCD55B6D054AE5
S3150800A73003F4702313600222034BC3F8882108BD73
S3150800A740987100206C13002000E100E038B505463A
S3150800A75000283AD0FFF7A2FF0446002836D128463B
S3150800A76031F0F5F995F8203043B94FF098435A6C13
S3150800A770D202FCD55D6D05F470251BE04FF09842BA
S3150800A780936D43F00203936507F074FC02281AD10F
S3150800A790104B4FF0FF31186E07F028FF4FF0984224
S3150800A7A0936D23F00203936590B94FF4A0220A4BE8
S3150800A7B01D681A60FFF78EFF04463DB12846BDE8BE
S3150800A7C0384031F013BA2046E8E72124204638BD40
S3150800A7D00124FBE7987100206C1300202DE9F04155
S3150800A7E08CB08846DDE912761D460446002847D017
S3150800A7F0002945D0002F43D0002E41D013F00F0377
S3150800A8003ED120482049A360002A18BF0146E361CB
S3150800A810C4E90013404609A931F058FB68BB204635
S3150800A820099931F08BF92946204631F087F96946AE
S3150800A830404600F079FF00BB6946204631F06AF9C8
S3150800A840404603A931F010FCB8B9204603A931F0F7
S3150800A85061F906970127204645F0005506A907978E
S3150800A860089531F057F9204609A909960A970B95D4
S3150800A87031F05AF92046FFF769FF0CB0BDE8F081C0
S3150800A8802120FAE700010104000100042DE9F04740
S3150800A89092B08846DDE91A571C460646DDF87090E0
S3150800A8A0002864D0002962D0002F60D0B9F1000FCB
S3150800A8B05DD0002D5BD013F00F0358D12D482E49DB
S3150800A8C0B360002A18BF0146F361C6E90013404683
S3150800A8D00FA931F0FBFA002846D130460F9931F01E
S3150800A8E02DF92146304631F029F96946404600F0EF
S3150800A8F01BFF002838D16946304631F00BF940462F
S3150800A90003A931F0B1FB78BB4FF001083046DFF8F8
S3150800A9106CA003A931F0FEF844F00054304606A9AD
S3150800A9200695CDF81C80CDF820A00997CDF828808B
S3150800A9300B9431F0EFF8304609A931F0EBF83046C0
S3150800A9400CA9CDF83090CDF834800E940F95CDF83B
S3150800A9504080CDF844A031F0E7F830460FA931F031
S3150800A960E3F83046FFF7F2FE12B0BDE8F087212083
S3150800A970FAE700BF030201040302000410000020E6
S3150800A9802DE9F04F97B0894690461F460546DDF8F3
S3150800A99080A0002800F0BD80002900F0BA803AB1F6
S3150800A9A0229B002B00F0B580239B002B00F0B18082
S3150800A9B0BAF1000F00F0AD80219B002B00F0A980B2
S3150800A9C077B13C680026229B43440293464509D347
S3150800A9D0002F00F0A08000203C6017B0BDE8F08F83
S3150800A9E03C46EFE75CB1229B219A9B5D125D0134E0
S3150800A9F05340239A04F00F0493550136E6E7A8EB73
S3150800AA00060BBBF10F0F58D9444B4846C5E900342D
S3150800AA10AC60EC6113A931F059FA0028DDD128465B
S3150800AA2013992BF00F0B31F089F85946284631F067
S3150800AA3085F8484604A900F077FE0028CDD12846B7
S3150800AA4004A931F067F8484607A931F00DFB00283C
S3150800AA50C3D1284607A931F05DF801232299304A67
S3150800AA60CDF828A00B930C928A190D9228464BF024
S3150800AA7000520AA90E9303920F9231F04BF828461A
S3150800AA800DA931F047F8239B039A991901231091D0
S3150800AA9011931292224A284610A9CDF84CA0149375
S3150800AAA0159231F041F8284613A931F03DF82846A9
S3150800AAB0FFF74CFE5E4400288FD1229B03EB060B62
S3150800AAC0239B1E44029B5B4501D146467EE7ACB9F3
S3150800AAD0219B2246CDE900A3494610232846FFF7C5
S3150800AAE07DFE00287FF479AF0AF1100212F8013DC5
S3150800AAF00133DBB213700BB99245F7D1219A1BF8D3
S3150800AB00013B125D0134534006F8013B04F00F0483
S3150800AB10D8E7212061E738465FE700BF0303000452
S3150800AB20100000202DE9F04F97B00F4614469946BD
S3150800AB308346209EDDF88880DDF890A0269D0028B3
S3150800AB4000F09F80002900F09C801DB1259B002BFA
S3150800AB5000F09780B9F1000F00F09380B8F1000F6C
S3150800AB6003D0219B002B00F08C803CB1239B002B4B
S3150800AB7000F08780BAF1000F00F08380C6F10F025B
S3150800AB80D2B2032A05D80121D20001FA02F2A24262
S3150800AB9077D9022D75D0102D73D815F0010270D112
S3150800ABA0F11F06296DD838490AEB0400884268D88F
S3150800ABB036493846CBE90012CBF80820CBF81C20DA
S3150800ABC013A931F083F9002858D15846139930F063
S3150800ABD0B5FF584645EA064130F0B0FF41465846AB
S3150800ABE030F0ACFF2146584630F0A8FF384601A998
S3150800ABF000F09AFD002841D1584601A930F08AFF95
S3150800AC00384604A931F030FA002837D101275846CA
S3150800AC1004A930F07FFF239B48F000520793219B3D
S3150800AC20584644F000540DA946F000560897099472
S3150800AC300A930B970C92CDF834900E970F9630F036
S3150800AC4069FF58460AA930F065FF584607A930F04B
S3150800AC5061FF259B584610A945F00055CDF840A040
S3150800AC601197129413931497159530F05DFF584673
S3150800AC7013A930F059FF5846FFF768FD17B0BDE82D
S3150800AC80F08F2120FAE700BFFFFF0320000005042C
S3150800AC902DE9F04F99B00F4614469B468046229EF2
S3150800ACA0DDF89890289D002800F0B280002900F071
S3150800ACB0AF80279B002B00F0AB80BBF1000F00F0A4
S3150800ACC0A780249B1BB1239B002B00F0A1803CB1DD
S3150800ACD0259B002B00F09C80B9F1000F00F09880AE
S3150800ACE0C6F10F03DBB2032B06D80121DB0001FAFC
S3150800ACF003F3A34240F28C80022D00F089806B1E7C
S3150800AD000F2B00F2858015F0010A40F08180F31FB1
S3150800AD10062B7DD83F4B09EB0401994278D83E4B68
S3150800AD203846C8E9003AC8F808A0C8F81CA015A90A
S3150800AD3031F0CCF80346002866D14046159930F024
S3150800AD40FDFE404645EA064130F0F8FE40462499A5
S3150800AD5030F0F4FE2146404630F0F0FE384603A9AE
S3150800AD6000F0E2FC034600284ED1404603A930F025
S3150800AD70D1FE384606A931F077F90346002843D1B3
S3150800AD800127404606A930F0C5FE259B4046099393
S3150800AD9044F000530A9701930B93239B46F0005601
S3150800ADA00C93249B0D9743F000510E910FA9CDF8F3
S3150800ADB03CB01097119630F0ADFE40460CA930F025
S3150800ADC0A9FE404609A930F0A5FE019B404612A9F6
S3150800ADD0CDF848901397149330F0A6FE279B40466B
S3150800ADE015A945F0005515931697179530F092FE5C
S3150800ADF04046FFF7ABFC034630B101902246514668
S3150800AE0048464AF0BBF9019B184619B0BDE8F08FD1
S3150800AE102123F9E7FFFF0320000006042DE9F0438C
S3150800AE208DB0884615461C460746DDF85090002822
S3150800AE3050D000294ED0002A4CD0B9F1000F49D085
S3150800AE400B68103B102B45D8012606FA03F303F0CE
S3150800AE50013323F08073002B3CD000231E4A836005
S3150800AE60C0E90023C36109A9404631F02FF870BB39
S3150800AE703846099930F062FE2146384630F05EFEC3
S3150800AE806946404600F050FC08BB6946384630F033
S3150800AE9041FE404603A931F0E7F8C0B9384603A990
S3150800AEA030F038FE44F00054384606A90695079651
S3150800AEB0089430F02FFE094B384609A9CDF824909E
S3150800AEC00A960B9330F030FE3846FFF73FFC0DB07C
S3150800AED0BDE8F0832120FAE70000040410000020F2
S3150800AEE0F0B50C4617461E46054695B0002874D0A0
S3150800AEF0002972D0002A70D0002B6ED0036B0F2B5E
S3150800AF005BD80023364A3846C4E90023A360E361C8
S3150800AF1011A930F0DBFF00285BD12046119930F0EB
S3150800AF200DFE296B20460F2984BF01F00F01103151
S3150800AF3030F004FE384602A900F0F6FB002848D196
S3150800AF40204602A930F0E6FD384605A931F08CF80E
S3150800AF5000283ED1204605A930F0DCFD0122214B10
S3150800AF60089509920A932B6B05F1100003F00F015F
S3150800AF7041F000510B900F2B0C920D910E900F92F1
S3150800AF8043F00052109226D90A9B08A923F00053D1
S3150800AF9020460A9330F0BEFD0BA9204630F0BAFDD4
S3150800AFA00123119612930F4B204611A9139330F0E3
S3150800AFB0BBFD2046FFF7CAFB0BE000F1200301901A
S3150800AFC000930122102339462046FFF707FC002884
S3150800AFD097D015B0F0BD0EA9DFE72120F9E700BF2D
S3150800AFE000000404100000202DE9F04F9BB00D4628
S3150800AFF0914698460646DDF890A0002800F0B380F2
S3150800B000002900F0B080002A00F0AD80002B00F087
S3150800B010AA80026B02EB0A031B09B3EB121F02F0AC
S3150800B0200F0700F098800023504A8B60C1E900237F
S3150800B030CB61484617A930F049FF0446002840F07E
S3150800B040868007EB0A0323F00F0B2846179900930F
S3150800B05030F074FD5946284630F070FD484602A97E
S3150800B06000F062FB0446002871D1284602A930F098
S3150800B07051FD484605A930F0F7FF0446002866D179
S3150800B0804FF00109284605A930F044FD384A2846FC
S3150800B09008A90896CDF824900A9230F03BFD47F0AF
S3150800B0A00051ABEB070706F1100347F000570B9367
S3150800B0B0CDF830900D91CDF83880CDF83C901097AA
S3150800B0C00D99284621F000510D910BA9019330F0F6
S3150800B0D021FD28460EA930F01DFDABF11001244ACA
S3150800B0E041F000511194CDF84890139106F12001D2
S3150800B0F01491CDF8549016921399284641F0804140
S3150800B1001391139921F00051139111A930F00CFDF8
S3150800B110284614A930F008FD154A17A92846179697
S3150800B120CDF86090199230F0FFFC2846FFF70EFB29
S3150800B130009B0446ABEB0301A3EB0B02019B5144B6
S3150800B1401846414449F0F3FF336B534433632046B2
S3150800B1501BB0BDE8F08F103052464146384449F0DE
S3150800B160E6FF0024F0E72124F1E700BF030200040C
S3150800B170100000202DE9F0438DB08846DDE914590A
S3150800B1801E460746002850D000294ED0002B4CD02A
S3150800B190B9F1000F49D0531EDBB2042B45D8244918
S3150800B1A0CC5C169B9C4240D8224B09A903EB022291
S3150800B1B000230260C0E90133C361404630F086FED1
S3150800B1C080BB3846099930F0B9FC2946384630F034
S3150800B1D0B5FC6946404600F0A7FA18BB69463846EA
S3150800B1E030F098FC404603A930F03EFFD0B9384607
S3150800B1F003A930F08FFC06960126384606A945F0C5
S3150800B2000055079644F00054089530F083FC3846FC
S3150800B21009A9CDF824900A960B9430F085FC384697
S3150800B220FFF794FA0DB0BDE8F0832120FAE700BFD6
S3150800B2300D5A0508000102032DE9FF4700230E46B3
S3150800B24017460446009300285BD00AB1002958D057
S3150800B25037F0030807F0030A25D04FF000094FF02E
S3150800B260E063C4E90039012301962046029301A947
S3150800B27048F00053C4F80890C4F81C90039330F0C3
S3150800B28053FC4146204630F059FC2046FFF75EFA4B
S3150800B290054640B142464946304649F06FFF2846C2
S3150800B2A004B0BDE8F0874FF00009BAF1000F2AD0C4
S3150800B2B04FF0E063C4E900390123CDF804D00293C6
S3150800B2C0124B204601A9C4F80890C4F81C900393B1
S3150800B2D030F02AFC0421204630F030FC2046FFF7E7
S3150800B2E035FA054608B13A46D5E703460099464475
S3150800B2F0DA00013321FA02F29A4506F8012BF7D152
S3150800B300CDE72125CBE75546C9E700BF0400002055
S3150800B310F0B5044608462178174601398DB0042948
S3150800B32045D8DFE801F00330353A3F0040251426BA
S3150800B33020490C3400225D43C0E90122C261016044
S3150800B3402946019030F0FAFB0123019846F0005691
S3150800B35006A945F0005503970493059506940793A7
S3150800B360089609940A930B9630F0D4FB019803A922
S3150800B37030F0D0FB019809A930F0D6FB0198FFF709
S3150800B380E5F90DB0F0BD402520260B490C34D1E770
S3150800B3904025202609490C34CCE780254026084953
S3150800B3A01434C7E78025402606491434C2E721200D
S3150800B3B0E7E700BF000201030003010300040103DD
S3150800B3C0000501030006010310B591B188B10023F9
S3150800B3D0C0E90133084B00F10C0203F1200153F8D0
S3150800B3E0044B8B4242F8044BF9D102230370002028
S3150800B3F010BD2120FCE700BF125A050810B591B10F
S3150800B40088B10023C0E90133084B00F10C0203F1AF
S3150800B410200153F8044B8B4242F8044BF9D103231D
S3150800B4200370002010BD2120FCE700BF335A050831
S3150800B4302DE9F0470446174608468CB0002C7FD005
S3150800B44000297DD0002A7BD02278013A042A77D8B1
S3150800B450DFE802F0030C5A626D0014263A4A04F13A
S3150800B4600C0A04F104092C34B04608E020264FF0F3
S3150800B4701C08364A04F10C0A04F104092C3440214C
S3150800B48098455DD809F1040309EBD10553F804CBB7
S3150800B490BCF1000F56D1AB42F8D1D9F800300139CA
S3150800B4A001EA0305C0E9002CC0F808C0C0F81CC0B2
S3150800B4B02946019030F042FBD9F80010019830F087
S3150800B4C03DFB012248F00053019803A946F00056B7
S3150800B4D045F00055CDF80CA00492059606940792FF
S3150800B4E0089509970A920B9330F014FB019806A960
S3150800B4F030F010FB019809A930F016FB0198FFF708
