:020000040800F2
:1060000000120020996C0008C3BC0308C3BC03083D
:106010003FE00308C3BC0308C3BC0308C3BC0308B8
:10602000C3BC0308C3BC0308C3BC03085162000817
:10603000C3BC0308A8610508E16100087FEA030802
:106040008D710008C3BC0308C3BC0308C3BC0308AC
:10605000C3BC0308C3BC0308C3BC0308C3BC030818
:10606000C3BC0308C3BC0308C3BC0308C3BC030808
:10607000C3BC0308C3BC0308C3BC0308C3BC0308F8
:10608000C3BC030845670008C3BC0308C3BC0308BE
:10609000C3BC0308D5760008C3BC0308C3BC03080F
:1060A000C3BC0308717800084D780008C3BC03081E
:1060B000C3BC03081D9B03084DA50308EB58050846
:1060C000E7580508199D0308F7580508EF58050813
:1060D00025A50308F35805088DA50308F1A50308B5
:1060E000C3BC0308C3BC0308C3BC0308C3BC030888
:1060F0003BE00308C3BC0308C3BC0308C3BC0308DC
:10610000C3BC03080D670008C3BC0308C3BC030875
:10611000C3BC0308C3BC0308C3BC0308C3BC030857
:10612000C3BC0308C3BC0308C3BC0308C3BC030847
:10613000C3BC0308C3BC0308C3BC0308C3BC030837
:10614000C3BC0308D9AE0008C3BC030845E103087B
:106150000D820308C3BC0308AF550508B5550508F3
:10616000C3BC0308C3BC0308C3BC0308C3BC030807
:106170000B4A1168086806C881F30B88022181F375
:106180001488203080F30988BFF36F8F4FF0000030
:1061900080F31188104700BFAFF30080AFF3008099
:1061A000E884002000000000000000000000000063
:1061B00007480068006880F3088862B661B6BFF3DC
:1061C0004F8FBFF36F8F02DF00BF00BFAFF30080C0
:1061D00008ED00E0000000000000000000000000EA
:1061E000EFF309801EF0100F08BF20ED108AEFF3C7
:1061F0000B82734620E9FC0F114A116808604FF0CA
:10620000300080F31188BFF34F8FBFF36F8F0DF015
:106210005DF94FF0000080F31188094A11680868A1
:10622000B0E8FC0F13F0100F08BFB0EC108A82F337
:106230000B8880F309881847AFF30080AFF3008024
:10624000E8840020000000000000000000000000C2
:106250001EF0040F0CBFEFF30880EFF30980044930
:10626000084700BFAFF30080AFF30080AFF30080BA
:10627000A5F3030800000000794BF7B51C6814F083
:10628000010440F0E78041F60B22764E764B7F21E9
:10629000C6E90034754B76489A8010221C60B460C1
:1062A0004FF0D3FB7F22734B1A70734B1B6ADB07D3
:1062B00006D440F21B41714B714A724834F0E4FB42
:1062C000214630462CF01CFF054620B940F21F4104
:1062D0006D4B6B4AF1E72DF04DFE20B140F22341AA
:1062E0006A4B674AE9E74FF0011128464EF03FFE3E
:1062F00020B140F22741654B614ADEE70221284682
:106300004EF017FD20B140F22A41604B5C4AD4E7C1
:1063100028465F492DF08AFC20B140F22D415B4BAD
:10632000574ACAE7012128464EF019FF20B140F232
:106330003241564B524AC0E7012128464EF01FFF1A
:1063400020B140F23541514B4D4AB6E73822214643
:1063500050484FF07AFB80232246284606F1100170
:106360004EF00EFE802804D040F23C414A4B444A95
:10637000A3E74A4E01202CF017FF37A3D3E90023EF
:1063800035602846CDE900234FF0FF324FF0FF3350
:106390004EF00AFD014620B140F27E313B4B404AAF
:1063A0008BE732480AF05EFE012108460AF0CEFE75
:1063B000012130684EF05FFC054620B140F2CC412F
:1063C000324B384A79E701464FF4086236484FF0BD
:1063D0003CFB364B36490A198834B4F5086F9D806A
:1063E0004FF0000743F8282BF5D1324B324A9D80FD
:1063F0001A60324B324A6FF063001A60314A9D8056
:106400001770314A5A6119F081FD0B200AF0E6FD40
:106410002E4B186020B940F2E4412D4B214A4CE745
:1064200004F0BCFC00200AF083FF0822306811460B
:106430004EF0BCFC20B140F2E941264B194A3CE742
:106440000CF05CF8244B25481F7003B0BDE8F04009
:1064500040F091B903B0F0BD0BE020FF2202000034
:10646000207500202C750020CD1401082475002013
:1064700066940020579400200080E00F4E6A0508C3
:10648000E86B050849650508676A0508A7640508FB
:10649000046D0508C8750020766A05081C75002083
:1064A000DB6B0508816C050800760020281C0020A5
:1064B00008760020001C002077940020A81E0020F1
:1064C000F9940020F6940020D01E0020C47500200E
:1064D000AE6A0508C96A05085A9400204D6B050884
:1064E00010B5054C237833B9044B13B1044800E0D0
:1064F00000BF0123237010BD506500200000000084
:10650000E0F2050808B5034B1BB10349034800E05E
:1065100000BF08BD0000000054650020E0F205083F
:10652000A3F5803A704700BF174B002B08BF134BF1
:106530009D46FFF7F5FF00218B460F461348144A8E
:10654000121A4FF082FA0E4B002B00D098470D4BD9
:10655000002B00D098470020002104000D000D48BA
:10656000002802D00C4800E000BF34F0D9FA200027
:10657000290000F0AFFA34F0ADFA00BF00000800C7
:10658000000000000000000000120020A81B0020F6
:1065900044BD002000000000000000002DE9F34190
:1065A000164602F1100407460D46A446384A06F185
:1065B000200E234603CB7345106051601C4602F148
:1065C0000802F6D13446334A234603CB63451060B4
:1065D00051601C4602F10802F6D128463FF0F8FD52
:1065E0000021804638463FF0B9FD044690B344236D
:1065F000022229463FF0C1FD28463FF0FAFD0190F6
:1066000028463FF0EFFD0199024620463FF0CCFDC1
:1066100020463FF0D4FD284640F0B7F81F2301463E
:106620001D4A284640F0B5F8B8F1010F18D11B4BB0
:106630001968084601914FF001FB019982B220468A
:1066400040F0A5F80346F0B93246214638461FF01F
:1066500029F8C0B90122124B1A7002B0BDE8F081CE
:10666000104B1968084601914FF0E8FA019982B27F
:10667000204640F08CF80546852120463FF0ADFDD0
:106680000DB92B46E0E7204640F07BF8E2E700BF7B
:10669000DD9300200D940020ED93002000120020D7
:1066A000DC9300200412002038B50E4C0E4D00F093
:1066B00027F841F233613FF0B3FD256000F020F888
:1066C0000A4A0B4BA060636013682B6053686B60D1
:1066D0009368AB6000F014F82146BDE838403FF005
:1066E000AABD00BF6C650020F85F0508A05F050823
:1066F0009D6500080122014B1A7070471E9400200E
:10670000014B1868704700BF7C65002013B50B4C27
:106710006846214635F029FE4FF49662009B04F549
:10672000005453434FF47A72B3FBF2F3044A5B0014
:1067300093614FF40073636202B010BD00400059D2
:10674000A0650020022208B5074B5A6102F070F8DC
:10675000064B5A6812B19A6A002AFAD10222DA600C
:10676000014B9A6108BD00BF006006500040065012
:10677000F0B53C4C41F288308DB035F00FFA00F0A6
:10678000AFF8012120683FF065FE28B15421364B57
:10679000364A374834F078F90121206840F058FA39
:1067A00018B15521334B314AF3E7FFF77DFF04F071
:1067B0002DF8314B314F1A78C7E90001002A42D138
:1067C00001220DF10E0120681A7040F0C5F805464F
:1067D0002B4E2068314640F095F8336820682B60D6
:1067E00033792B7140F092F8206840F0C1F848F2FC
:1067F0009A230546234A038220213B7804A834F0DB
:10680000F1FC0DF10E01284640F0D3F8BDF80E2042
:1068100004A94FF0F3F80DF10E01284640F0C5F839
:10682000BDF80E2018494FF0E9F82946206840F0DD
:1068300075F8024618B1F321144B154AA9E7014631
:10684000206840F029F80422124B4EF660211A67A6
:106850000023114ACDE90033104809F023FE0DB0A2
:10686000F0BD00BF7C6500200460050836600508A7
:1068700046600508566005081D940020A81B0020EE
:106880008B6005089C600508A5600508AE600508DA
:10689000C560050800E00350F5660008806500202B
:1068A00008B53FF0C5FD054B186030B940F21D1129
:1068B000034B044A044834F0E7F808BD7C65002027
:1068C000D9600508E360050846600508042302490D
:1068D0001A46024835F0FEB801670008C06500207E
:1068E00070B5A4B07822002106A84FF0AEF8224B74
:1068F000224A1C936B461068516802AC03C36B4676
:10690000224603CB1E4BCDF85900CDF85D1003F1A4
:106910001006254618685968083303C5B3422C464B
:10692000F7D10FCA0EAC84E80F00BDF88C301548C3
:1069300043F4CA7343F00103ADF88C304FF07EF995
:106940001049024612A84FF059F89DF88C3043F0D8
:1069500008038DF88C30FFF7D3FE06A93FF0C7FC83
:10696000044630B13FF062FD2146024606483FF042
:1069700054F824B070BD00BFADDE0F0029610508DA
:1069800032610508B8140020006105081FB50C210C
:106990004FF4F06002F06EFD01213D2002F0C6F9D7
:1069A00001213C2002F0C2F90C4A01AB07CA83E87E
:1069B000070040F201121846ADF80C2001F0E2FE8B
:1069C0000222074B9A614FF40032064B1A600120F5
:1069D00001F00CFF05B05DF804FB00BF4461050841
:1069E0000050065000E100E0F0B5354E93B008AD20
:1069F0000FCE0FC50FCE0FC596E803000126002469
:106A0000032785E8030031463B20CDE90344CDE967
:106A1000054407948DF80E708DF808608DF80940D4
:106A20008DF80A408DF80B4002F080F920464FF4B3
:106A30002C524FF4285135F0ADFC902221462046CF
:106A400035F0ADFC31462A2002F070F94FF4966320
:106A50001C4D0B939DF8193022460093284623467F
:106A600019498DF823408DF8214003F0D1FBB22362
:106A70000A9008AA284605A98DF809308DF81070EB
:106A80008DF80E708DF813608DF8086003F0E6FB4A
:106A900002AA03A9284635F027FC0C4A05F5005345
:106AA0005A6270214FF40032AB6A43F40073AB6258
:106AB000074BC3F8842183F819135A6013B0F0BD53
:106AC000506105080040005940420F008F330F808D
:106AD00000E100E038B537F067FB082535F072F8C3
:106AE000FFF754FFFFF780FF0422094C04F58053A1
:106AF0001D671A67C3F8A05004F540531A6704F5E0
:106B00000054FFF735FE256737F05BFB002038BDEA
:106B100000C0035010B5274C02F040FB02F088FC87
:106B2000236F23F0070343F00303236735F027FBAC
:106B3000214B00209B6ADB015EBF4FF480321F4B6C
:106B40009A62D4F8203123F0070343F00203C4F81B
:106B50002031D4F8283123F0070343F00203C4F8AE
:106B60002831D4F8403123F0030343F00103C4F883
:106B70004031D4F8603123F0030343F00103C4F83B
:106B80006031D4F8403223F0030343F00103C4F82A
:106B90004032D4F8003223F0070343F00103C4F875
:106BA0000032D4F8083223F0070343F00103C4F89D
:106BB000083210BD008000500040005A0060005AAA
:106BC00007B501A803F0FCFD9DF80530012B14D199
:106BD0009DF804308BB94FF48012134B1349586E53
:106BE00003F580535A664B6B23F0E05343F0406348
:106BF0004B63C3025CBF0E4B5A6608F07FFB08F084
:106C000011FB37F018FA08F035FBFFF783FF08F0A7
:106C10001FFB00F07FFA00F03DFE0BF0FBFD03B020
:106C20005DF804EB08F012BE008000500040005AEE
:106C300000A0005008B5044835F0B4F8BDE808409D
:106C4000024835F0AFB800BF7861050890610508CB
:106C5000024B0349186800F0D3BE00BF08120020A1
:106C60000C12002018B1034B18600020704725203B
:106C7000704700BF5067002010B5054C05492068DB
:106C800001F04CFC2068BDE81040FFF7EBBF00BFEF
:106C9000501200202C12002008B500F02DF8124BE5
:106CA00012498B4212D30020114B12498B4218D348
:106CB000FFF73AFC186850F82240586840F8224024
:106CC000013298688242F5D30C33EAE70022F8E7F4
:106CD0001C6844F8220001325C68A242F8D30833F1
:106CE000E4E70022F8E700BFE8F20508F4F205083F
:106CF000F4F20508F4F205084FF480414FF0FF303C
:106D0000114B124A10B59A60D3F8882042F47002F1
:106D1000C3F888200E4A91660E4901F500521066AC
:106D20000D4850660220C3F8D000BFF34F8FBFF369
:106D30006F8F01244FF440330848C0F88041D3607E
:106D400004600B6110BD00BF00ED00E000600008B2
:106D50000090005000800044F7FF370000E100E0A1
:106D6000014B1868704700BF58130020084B1B6F79
:106D700003F00703022B04D0032B05D0012B05D011
:106D8000FEE7044B18687047034BFBE70348704766
:106D900000800050581300205C130020002D3101AA
:106DA00008B5FFF7E3FF054B1B6FC3F30333013354
:106DB000B0FBF3F0024B186008BD00BF008000502C
:106DC000541300200048704700B4C404014B1868F5
:106DD000704700BF5C130020054B1860054B1B6F0C
:106DE00003F00703032B01D1FFF7DABF704700BFA1
:106DF0005C1300200080005000487047002D3101D6
:106E00004FF0B4439868C0F304400C2822D8DFE860
:106E100000F0092121212121071719211B1D1F0025
:106E20000F4870479B6803F04073B3F1807F13D025
:106E3000B3F1007F12D00B4A002B08BF10467047F9
:106E40000948704709487047094870470948704722
:106E50000948704700207047084870470848704745
:106E6000405DC60000093D000024F400C0EA210195
:106E700080BA8C010048E801005A620280841E003A
:106E800040420F00014B1868704700BF601300209C
:106E9000BFF34F8F0549064BCA6802F4E062134303
:106EA000CB60BFF34F8F00BFFDE700BF00ED00E0F8
:106EB0000400FA054FF000639B6A03F17842B2F5D3
:106EC000C04F03D21968064A914203D000230370D1
:106ED00083607047012202709A689B694260F7E7FD
:106EE00007B0CD5E73B54F4B04461A781AB1022233
:106EF0001A7002B070BDCDE900220028F9D0012639
:106F00001E7035F058F9484D484B186030F062F863
:106F10002B785BB900F0BEFC40B945480823454AD0
:106F2000454900682BF01AFE00B92E70434B5A6E8B
:106F300062619B6E424AA3614FF480439366414B6A
:106F40005968E16140499960196E2160596E61602C
:106F5000D3F87011A160196CE160596C21613B4953
:106F6000086C1864496C5964012151661B6E9C04BD
:106F700041D5374AD368D807FCD4364B1A68531C1E
:106F80003ED04FF480139340334A13664FF400739E
:106F90000426314C2666236634F0BBFE01300DD04A
:106FA00034F0B7FE40F20113984207D04FF400537B
:106FB00023664FF480432366C4F870610823264C8F
:106FC000684623664FF4805323664FF000632366C0
:106FD0004FF4002301A9636634F07CFE009B236616
:106FE000019B63662B78002B83D0124B1A682266B4
:106FF0005B6863667DE7194AD368D907FCD4BCE7B0
:10700000174B1B78002BC1D14FF400720C4B5A6602
:1070100003F5A6235B68002BB8D14FF480120E4B0A
:107020001A66B3E7219400201F9400207C6700209B
:107030006C1300207467002000710800008000506D
:10704000009000500080004455CEAC0000C00054B9
:10705000000004406413002000900044000004502D
:107060002094002070B5224D04462E78012E02D0C7
:1070700001232B7070BD0028FCD034F04AFE013093
:107080000BD034F046FE40F20113984205D0194B64
:10709000194A5E66D368DE07FCD42268174B1A666D
:1070A00062685A66A268C3F87021E2681A642269AD
:1070B0005A64E269D00744BF00229A60104B1A68F4
:1070C000013207D10F4A127822B90F494968C9071E
:1070D00048BF1A6062690D4B5A66A2699A662FF022
:1070E00081FF0B4B186835F06CF80023C1E700BF37
:1070F00021940020009000400000044000800044E3
:10710000641300202094002000C00550008000502F
:107110007C67002070B54FF00064A36A03F17842E9
:10712000B2F5C04F21D21A68124B9A421DD1124EAD
:10713000337813F0FD0F1BD11048FFF7D3FE012564
:107140004FF480330E4A0F49C2F88051CB6015606E
:107150000D4A1361A36ADB69984704460748FFF7A5
:1071600081FF04B93570204670BD4FF48174FAE791
:107170000024F8E707B0CD5E20940020546700207B
:1071800000E100E000A000440090004413B51F4B54
:107190001B7803B9FEE700231D4CCDE900336A4696
:1071A00008231C4920682BF0D9FCF0B91A4AD2F800
:1071B0004031D2F840211F2B4FF0010310D9203A63
:1071C0009340019A1343019308236A4611492068AA
:1071D0002BF07AFC4FF00053104A1A60FFF758FE6C
:1071E0009340009A13430093EEE70D4B9842F1D180
:1071F000094AD2F84031D2F840211F2B4FF0010349
:1072000002D9203A9340DEE79340ECE72194002036
:107210006C13002000710800008000440B020FF086
:107220000BE000F005490A681318054883428CBF3B
:107230004FF0FF320B601046704700BF681300200C
:107240000000042010B40A681378022B11D0142017
:107250003023147913FB040307481B585079C340AB
:10726000DB4303F00103137008465DF8044B34F070
:107270009EBD5DF8044B704730C0035037B50468BD
:10728000012105463A2001F051FD002301226179D8
:10729000207902F02FFF14223023217913FB0123E0
:1072A0000E4A9B586279D340DB4303F001032370FD
:1072B000A379022B0ED100F073FA2A4608496079AF
:1072C00000F098FA0123024661792079CDE9003374
:1072D00002F0B8FE002003B030BD00BF30C0035044
:1072E0004572000802681378022B24D01421302341
:1072F000107913FB001310495B585179CB409179F9
:1073000003F00103012912D1508843EA40034FF6EC
:10731000E07063F03F039BB2834202D1117053804F
:1073200070474FF6DF718B42F9D10021F6E711B9B2
:1073300083F001031370704730C003502DE9F04F04
:107340009A46564B85B01B7806460F461546DDF823
:107350003C909DF844B0DDF85080002B00F08D800B
:10736000072A00F28C800E9B002B00F08880B9F178
:10737000000F00F08480129BB3F5006F7FDC0128C2
:1073800002D1109B002B7AD0454B03EB05131B7BDE
:10739000002B76D0434C1022002168464EF055FB5E
:1073A00004EB45141022002F59D1394620464EF0E7
:1073B0004CFB43F210036380BBF1000F03D1E37871
:1073C00043F00303E370374A0E9B02EB451CCCE904
:1073D0000193129B6901013BC3F30A009DF84C30F5
:1073E000012E03F003034FEA836343EA001E535860
:1073F0002D48CDF800A000EA03004EEA00035350E8
:1074000041D113230CF1100ECCF80C309CE80F0086
:107410008EE80F006FF00301DCF81C20109B61F375
:107420009F02012FCCF81C20CCF8143003D1CCF8EB
:107430001890CCF804300027194A290102EB0513F3
:1074400042F80180159A28465A60694622469F6094
:107450005E7303F0C7F8384605B0BDE8F08F002131
:1074600020464EF0F2FA4FF444736380BBF1000FF4
:10747000A9D1E37843F03003A4E70C48ECE70C48CB
:10748000EAE70C48E8E7B8F1000FD4D19CF80230E5
:1074900068F304138CF80230CDE700BF229400207B
:1074A00080670020006800200F80FFF3028000F05A
:1074B000018000F0078000F038B5124B05461B78BC
:1074C000DBB1E0B134F077FE0F4A00231146147BA4
:1074D00054B92B6001251A0101EB03131D738C5065
:1074E00034F06FFE204638BD0133082B02F1100244
:1074F000EDD134F066FE0548F5E70548F3E70548A9
:10750000F1E700BF2294002080670020048000F093
:10751000028000F0018000F0154B13B518680023BD
:1075200001908DF8043034F046FE124B1C7824B1E3
:1075300034F047FE104802B010BD01221A7034F03A
:1075400040FE0E4B01A81C731C7783F82C4083F877
:107550003C4083F84C4083F85C4083F86C4083F8EF
:107560007C4008238DF8073003F00AF82046E2E754
:10757000F861050822940020038000F08067002055
:107580000A4A08B512785AB107280BD8084A02EB04
:1075900000131B7B43B1002102F0E4FF002008BD73
:1075A0000448FCE70448FAE70448F8E7229400207E
:1075B00080670020028000F0018000F0078000F06A
:1075C0000A4A08B512785AB107280BD8084A02EBC4
:1075D00000131B7B43B1012102F0C4FF002008BD52
:1075E0000448FCE70448FAE70448F8E7229400203E
:1075F00080670020028000F0018000F0078000F02A
:107600000A4A08B5127852B107280AD8084A02EB8C
:1076100000131B7B3BB103F033F8002008BD054885
:10762000FCE70548FAE70548F8E700BF2294002088
:1076300080670020028000F0018000F0078000F0E9
:107640000D4B1B7893B1072812D889B10B4B03EB74
:1076500000131B7B73B10A4BDA6A012303FA00F0B3
:1076600010401ABF00200B70087070470548704723
:107670000548704705487047229400208067002025
:1076800000000450028000F0018000F0078000F04C
:107690000B4A10B512780C4662B107280CD859B1C4
:1076A000084A02EB00131B7B43B102F0FBFF206092
:1076B000002010BD0448FCE70448FAE70448F8E756
:1076C0002294002080670020028000F0018000F0FA
:1076D000078000F0204B2DE9F0471F6D5A6D1F4CBD
:1076E000174010D54FF000411D4A1165D868C0F30E
:1076F00004200301E35804EB00125BB3BDE8F0473C
:1077000000215268184701260025DFF85480DFF871
:107710005490374217D02368C8F850609BB1A168D5
:10772000284601316268A1609847637B012B0AD12A
:1077300048B909EB45131A7B60F341021A731A7FAB
:1077400060F341021A770135082D4FEA460604F12D
:107750001004DED1BDE8F0870000045080670020EF
:10776000002004500068002070B5044601250B4E2F
:1077700004B970BD94FAA4F0B0FA80F005FA00F3F1
:1077800006EB001224EA03045368002BF0D0117BAF
:1077900011B191689847EBE79847E9E70069002045
:1077A00008B5192002F0CAF828B14FF00072074B53
:1077B000C3F880211A601A2002F0C0F828B14FF0F7
:1077C0008062024BC3F880211A6008BD00E100E02E
:1077D00038B505460C4634F0EEFC0022044B03EBB2
:1077E00005135C601A73BDE8384034F0EABC00BF92
:1077F00000690020F8B505460F46164634F0DBFC5C
:10780000104B05F0FC02D3F824140023EC1804F00C
:107810000304144321FA04FC1CF0010F07D00133C8
:10782000042BF3D1FF2434F0CCFC2046F8BDFF2C10
:10783000F9D00122044B03EB0413C3E901761A7358
:10784000F1E700BF00C0035000690020074BD3F8E8
:107850002404D3F8202403F50053104000F05530E1
:1078600020F05020C3F82004FFF77EBF00C0035073
:10787000074BD3F82404D3F8202403F50053104019
:1078800000F0AA3020F0A020C3F82004FFF76CBF5E
:1078900000C00350024B1968024B18682BF020B847
:1078A000701300206C13002037B5920004460D467B
:1078B00001924EF065FB431C0BD060B9294620466F
:1078C000019A4EF08BF80028044808BF002003B04E
:1078D00030BD0348FBE70348F9E700BF10E000F0C4
:1078E00021E000F024E000F010B504464EF050FB1B
:1078F000431C10D088B902F08FFF234620F003000C
:107900002044984201D1002010BD53F8042B0132CD
:10791000F7D00348F8E70348F6E70348F4E700BF69
:107920000EE000F021E000F024E000F008B534F0B3
:107930003BFC014B186008BD40710020014B1868EA
:1079400034F036BC4071002001292DE9F84327D8D6
:10795000254B264E1C68264FDFF8A080803C14F192
:10796000800F01D1BDE8F883D4F800900521484686
:1079700034F06AFC1F4B994510D01F4B99450CBF42
:107980003D46454634F010FC2B6843F018032B604D
:1079900034F00EFCD4F88040803CE0E73546F1E757
:1079A00002390129DED8104B104E1C68104FDFF849
:1079B0004C80803C14F1800FD4D023680D4A934250
:1079C00010D00D4A93420CBF3D46454634F0ECFBC7
:1079D0002B6823F018032B6034F0EAFBD4F88040C6
:1079E000803CE7E73546F1E7F471002094C403508A
:1079F000B4C403500000015B00000A5074C403507B
:107A00002DE9F0410B68814A8EB0934205460C4641
:107A10000DF1180803D07E4A934240F0E0804746BB
:107A20007C4ECDF814800FCE0FC796E80F001036AD
:107A300087E80F000FCE01AF0FC7002D00F0CD80FB
:107A40008422002128464EF000F823686F4A9342B2
:107A500040F0908056222A654FF470220027DFF80C
:107A6000E8E1C5E90BE22B600123A44685F85C3010
:107A70002E1DBCE80F000FC69CE80F0086E80F0023
:107A8000637E012B08BF8DF81D30A37E2BB1012B27
:107A900040F08D8004238DF81230227EE368012AA5
:107AA00040F08C805C4A93429CBF05238DF83530B2
:107AB00000238DF81130594B01213A20039301F036
:107AC00035F90121286D01F031F92369DA1F092AFE
:107AD00053D8063B8DF81030237E2BB9E37EB3FAE2
:107AE00083F35B098DF81C300121284634F0D3F96B
:107AF0000646002842D1227A237943EA02437A01DA
:107B000002F1A04202F57032C2F8AC34637A6179B6
:107B100041EA0341C2F8A414A07AA17941EA0041E4
:107B2000C2F8A814E37E002B40F03581E17AE379B6
:107B300043EA0143C2F898341D23C2F89434206804
:107B400001A902F067F934F036FB354B1A78002AA8
:107B500038D101221A7034F034FB08F08DFBFFF7A6
:107B6000DBFC002105F12400FFF7A6FC014660B311
:107B70002C4E03E0264A934210D02B4E2B4B1B6811
:107B80001BB92B492B4807F029FF284805F1800134
:107B900034F0F2F830460EB0BDE8F08157222A6585
:107BA0004FF48012244FC5E90B7201275BE7022BCB
:107BB0003FF471AF032BE0D106236CE700228DF870
:107BC000342079E734F0FDFAC9E705F12800FFF722
:107BD00073FC06460028D1D0CAE7184ECEE74646C9
:107BE000174F0FCF0FC697E8070086E80700002D54
:107BF00000F0CF808422002128464DF026FF236824
:107C0000104A934222D0084EC4E700BF0000015B37
:107C100000000A50206205083F4B4C0040420F0014
:107C200023940020092000F0022000F0F4710020CD
:107C300090130020F871002001001000012000F0D6
:107C40005462050800C0055001000F0029222E468D
:107C50002A654FF4802227465048C5E90B0246F8B2
:107C6000043B0FCF0FC697E80F0086E80F00637E36
:107C7000012B08BF8DF82630A37E2BB1012B67D1D5
:107C80004FF40073ADF82830237E0121012B03BF90
:107C900000238DF825304FF4E133E3683A20089350
:107CA00001F044F80121286D01F040F823691A1F02
:107CB0000C2AA8D8033B414620688DF8243002F0F6
:107CC00097FEA36923F47F0323F47F4323B92A6833
:107CD000936843F480339360237A2079617940EA92
:107CE0000340637AA27941EA0341E67EA37A42EA3D
:107CF00003422B4BBEBB1D26C3F82067C3F83807D1
:107D0000C3F83017C3F83427E17AE27942EA014236
:107D1000C3F824270121284634F0BDF80646002880
:107D20007FF438AF34F047FA1E4B1A782ABB012291
:107D30001A7034F046FA08F09FFAFFF7EDFB0021C5
:107D400005F12400FFF7B8FB0146C8B1164E21E744
:107D5000022B02D14FF4807394E7032B7FF453AFCF
:107D60004FF440738EE71C24C3F82047C3F838074C
:107D7000C3F83017C3F83427CCE734F022FADCE735
:107D800005F12800FFF798FB064600283FF402AFF4
:107D9000DCE7064EFEE61C23CFE600BF020004002F
:107DA00000C0035023940020092000F0012000F0BF
:107DB00038B141B1013AB2F5006F044838BF002034
:107DC0007047034870470148704700BF037000F0D8
:107DD000027000F038B504460D4634F0ECF9A38883
:107DE0009BB223B92B6034F0ECF9064838BD14225D
:107DF00063889BB202FB034408342C6034F0E1F941
:107E00000020F3E70B7000F0F8B5044616460F4665
:107E100034F0D1F9A388E2889BB29A42054605D88E
:107E20000023336034F0CDF91748F8BD14222388BD
:107E300007F1100C9BB202FB03433A460833174686
:107E400003CF6745186059603A4603F10803F6D13D
:107E5000142238681860238828469BB202FB03432B
:107E6000083333602388E2889BB20133B3FBF2F11D
:107E700002FB11339BB22380A38801339BB2A38002
:107E800034F09FF90020D0E70A7000F090F8353008
:107E9000022B0DD114223023417F90F8210013FBD7
:107EA0000123044A9B5823FA00F000F001007047B8
:107EB0000020704730C00350002313B51D4A52F80C
:107EC000044B94F8211081420ED00133042BF6D1DB
:107ED00002B010BD0028FBD19DF80730002BF7D071
:107EE000A068FFF74DFBF3E794F83530022BEFD194
:107EF0002046FFF7CBFF637E2076022BE8D194F873
:107F0000323003F0FF02002BE2D1A0680DF107012F
:107F10008DF80720FFF794FB237E1BB194F83330D4
:107F2000002BD7D00023A06884F83330FFF748FB3C
:107F3000CEE700BF00720020104930B50B78104A20
:107F40002BB9C2E90033C2E9023301230B700C4C98
:107F50000023214651F8045B854208D00133042BED
:107F6000F8D1002154F8043B1BB942F8210000204D
:107F700003E001310429F5D1024830BD24940020EA
:107F800000720020027000F010B50446FFF7C4FA3A
:107F9000002104F10800FFF78FFA014620B904F12F
:107FA0000C00FFF789FA00B1004810BD0E7000F018
:107FB00090F8363053B9042103790A4A03F2391391
:107FC0005B01D150022203685A617047022B07D12E
:107FD0000068816C11F0020118BF062134F034B939
:107FE000704700BF00C0035010B590F8363004460B
:107FF00063B9042203685A619A699207FCD5237910
:108000000C4AB9335B011021995010BD022BFCD1F1
:108010000068836CDB074CBF0521062134F014F99E
:10802000237941F294425B0103F1A04303F57033DD
:10803000E9E700BF00C0035037B50446836B34F056
:10804000BAF8A36B0546013BA363A16B79B9019113
:1080500034F0AAF804460199012007F02DFC012014
:10806000064A019907F020FE204634F0A1F8284680
:1080700003B0BDE8304034F0A4B800BF706205081A
:108080001FB50B460A6891F83610184602290CBF36
:10809000926C9269920604D505B05DF804EBFFF787
:1080A000CBBF039333F0D2FF0022039B0146CDE9FF
:1080B000002203F13C00034A35F0F2FF05B05DF801
:1080C00004FB00BF8180000870B5044634F073F8EB
:1080D000A36B054673B934F067F8012106460846DC
:1080E00007F0EAFB0121074A084607F0DDFD3046AC
:1080F00034F05EF8A36B28460133A363BDE87040FB
:1081000034F05FB87062050801232DE9F04180F872
:10811000313090F8363004460E4688B05BBB0568B7
:108120003C3534F048F804F13C0807460DF11F01D6
:10813000404608F005F940B99DF81F302BB1404684
:1081400008F0D4F82046FFF777FF384634F039F8C6
:108150002046FFF7B9FF0D4B2A46039300230293F5
:108160007368216901930123A06800930494336824
:1081700033F042FE07E0022B02D105684435D0E718
:10818000002380F8313008B0BDE8F081918100080B
:10819000F0B585B0D06A03A91446FFF71BFE06466A
:1081A000204633F053FF002501462346CDE9005514
:1081B000164A04F13C0035F073FF154B9E421FD068
:1081C000039B1D619D6033F0F6FF039A0646D76856
:1081D00027B1D2E9002329462046B847E06A03A91F
:1081E00033F04BFFE06A83889BB263B103A9FFF7CA
:1081F000F1FD20460399FFF787FF304633F0E1FF9A
:10820000012005B0F0BD84F83130F6E78180000828
:108210000B7000F02DE9F3410D46044600287FD095
:1082200033F0C9FF012D064641D1E36A9B889BB21A
:10823000002B43D0A068FFF7E3F90023E06A84F83D
:10824000313083889BB273B101A9FFF7C3FD019957
:10825000A0680831FFF71CFA374F019B1F61E06AE5
:1082600083889BB283BB204633F02AFF8304FAD570
:10827000023D012D10D8E068FFF7C2F90023A06A83
:1082800084F8303083889BB26BBB94F83530032B75
:1082900002D02046FFF78CFEA36B002B02DD2046A8
:1082A000FFF7CAFE304633F08CFF002009E0022DB4
:1082B00038D1A36A9B889BB2002BDCD133F081FFBD
:1082C0001E4802B0BDE8F08101A933F0D6FE019B43
:1082D000D3F80C80B8F1000FC1D0002239462046F7
:1082E0009B68C047BBE76946FFF774FD0099E068EB
:1082F0000831FFF7CDF9104D009B1D61A06A8388FE
:108300009BB2002BC1D0694633F0B7FE009BDF68FB
:10831000002FF3D00022294620469B68B847EDE79E
:108320000748CEE7032DA3D1E36A9B889BB2002BBD
:1083300080D1A36A7AE700BF097000F0087000F0EE
:10834000027000F0F8B507460D461646FFF730FDFF
:1083500000286BD1152001F0FFFA0446FA6A9388D1
:108360009BB213B197F83230E3B197F83630F3B9D6
:108370003B689C6904F002041CB93846FFF734FEE0
:108380000024012387F8343097F83630CBB92E44D7
:10839000B542386810D183699A06FCD51CB3002415
:1083A0002046F8BD002CDAD0FFF794F9D6E7022B6F
:1083B000E3D13B689C6CDDE715F8011B34F06CF8E9
:1083C000E6E7022BEAD12E44B542386806D142F2E4
:1083D0002003826C33EA0202FBD1DFE715F8011BB0
:1083E00033F037FFF0E797F8363053B910213B7977
:1083F0000F4A03F239135B01D15008223B685A61DE
:10840000CEE7022BCCD13868836CDB074CBF092147
:10841000214633F019FF42F2944210213B795B016F
:1084200003F1A04303F570339950B9E70446B7E769
:1084300000C0035010B5044680B190F832302BB91B
:10844000FFF724FD10B9A068FFF79AF8002094F810
:1084500032300133DBB284F8323010BD0048FCE723
:10846000027000F010B50446A0B190F832309BB114
:1084700090F83230012B05D1FFF708FD10B9A06844
:10848000FFF79EF8002094F83230013BDBB284F80D
:10849000323010BD0148FCE70148FAE7027000F0F5
:1084A000057000F037B590F835500446022D1DD107
:1084B000012290F82230457E817F9A403020164B71
:1084C00025B900FB013303F5015305E0012D07D168
:1084D00000FB013303F582531A60002003B030BD66
:1084E000247E00FB0133002CF4D1ECE7012DF4D104
:1084F000037E73B911238DF80730FFF79BFF2A46DF
:1085000020460DF10701FFF71DFF2046FFF7AAFFE8
:10851000E3E71323EFE700BF00C003502DE9F0436A
:1085200005466D4F89B001AE0C460FCF0FC697E8D8
:10853000070086E80700002D00F0CB8024B9674EC5
:10854000304609B0BDE8F0836022002128464DF096
:108550007CFA2846FFF7F0FC06460028F0D1237D80
:1085600085F83530236885F836002B60227B2A7128
:108570005B4A9342E3D129236B624FF4802359492C
:108580008046C5E90413D4E90723AA62108050800D
:10859000908085F83000EB6218805880988063687E
:1085A00085F831000393E38985F83300ADF8143082
:1085B000238A0121ADF81230A37C3A208DF81030C7
:1085C000E37C494F8DF8163005238DF8113000F00B
:1085D000ADFB0121686A00F0A9FB206801A98DF8B4
:1085E000046002F0A5F91421237B03F13902520142
:1085F000B950267AA07A07EB431346EA0042C3F843
:108600003827617AE27A41EA024CC3F830C7EE7645
:10861000E877297785F82020637D01216B77A37D9A
:10862000284685F82130E37DAB77237E85F822301C
:1086300033F09CFC0646002882D133F0BCFD237D3C
:108640008146032B33D10221227B02F1B9035B0166
:10865000F950042107EB421741F22C72236803F50D
:108660008053D965217EE37D43EA0143BB50A27D5F
:10867000637D43EA024341F22872BB504FF0FF3260
:10868000206800F500539A64237D032B0CBF05215D
:10869000042133F0F2FE4FF44062236828465A6109
:1086A000FFF772FC0646484633F08BFD48E7022B85
:1086B000E4D195F821000D49FFF78AF8FFF770F82B
:1086C0004FF4007328462B8385F81A80FFF7EAFEE3
:1086D000D4E7074E34E700BF78620508037000F066
:1086E00000C005500200040000C00350B97E00081D
:1086F000027000F0F0B587B004461646FFF758FB4D
:10870000054658BB0493194BCDE90116059394F81F
:10871000363003962BBB23689B6903F0020313B921
:108720002046FFF761FC6A46E06A01A9FFF76CFB8F
:10873000054698B994F8313083B933F03CFDE36ACB
:1087400006469B889BB233B120460099FFF7DCFCBC
:10875000012384F83430304633F033FD284607B027
:10876000F0BD022BDCD123689B6CD6E7017000F0D2
:10877000034B5A6812B19A6A002AFAD1704700BFB7
:1087800000400650426810B5B2FA82F2144CC2F1B1
:108790001F0163680BB1FFF7EBFF0122114B5A6019
:1087A000636813F00203FBD1027A002A14BF02248B
:1087B0000024427842EA0112094922438A60427A3F
:1087C0000124002A18BF0223827A13434B62064B0E
:1087D0005C60037813B1FFF7CBFFCC6010BD00BF26
:1087E00000400650006006500050065008B50D4B82
:1087F0005A6802B938B15B680BB1FFF7B9FF18B11D
:108800000122094B5A6008BDFFF7B2FF0223054958
:10881000CB60FFF7ADFF0122044B5A604B689B070A
:10882000FCD4F0E7004006500050065000600650AF
:1088300008B5FFF79DFF02230449CB6000230B62BC
:10884000FFF796FF0123CB6008BD00BF0040065034
:10885000044BD3F88420D206FBD4D3F88400C0F3B1
:10886000811070470040005038B5104B0546D3F8D2
:1088700080300C4603F00303022B0BD0032B0DD0EA
:10888000012B0FD1FEF772FA0E2305B1286004B157
:10889000236038BDFEF7B4FA0723F6E7FEF760FA67
:1088A0000623F2E700231846EFE700BF00800050E0
:1088B00038B5184B0546D3F820010C4600F00700E8
:1088C000062805D8DFE800F0230B0F17131B1F0045
:1088D0000023184605B1286004B1236038BDFEF7B7
:1088E0003FFA0523F6E7FEF771FA0323F2E7FEF7F6
:1088F00087FA0723EEE7FEF77FFA0223EAE7FEF79F
:108900002FFA0623E6E7FEF761FA0423E2E70123E4
:10891000E0E700BF0080005038B5174B0546D3F89C
:1089200028310C4603F00703013B052B20D8DFE874
:1089300003F003131B0F0B17FEF712FA052305B103
:10894000286004B1236038BDFEF70AFA0623F6E773
:10895000FEF756FA0723F2E7FEF738FA0323EEE7AD
:10896000FEF734FA0423EAE7FEF746FA0223E6E7C5
:1089700000231846E3E700BF0080005073B50D46A2
:108980000021114B0191D3F88041064604F0030405
:10899000022C13D0032C0CD0012C13D101A8FFF70B
:1089A00087FF10240EB1019B336005B12C6002B02B
:1089B00070BDFEF725FA07240190F3E7FEF71CFAD5
:1089C0000190EFE70C46EDE700800050002337B53B
:1089D0000193164B0546D3F820320C4603F00703EB
:1089E000042B04D8DFE803F0200B11161B00002332
:1089F0000DB1019A2A6004B1236003B030BD00219B
:108A000001A8FFF789FF1223F2E7FEF7F9F9072320
:108A10000190EDE733F058F90A230190E8E7FEF7FB
:108A200031FA09230190E3E70123E1E700800050D8
:108A300038B5104B0546D3F840310C4603F003031C
:108A4000022B0BD0032B0DD0012B0FD133F03CF9AF
:108A50000A2305B1286004B1236038BDFEF712FA7D
:108A60000923F6E733F033F90C23F2E70123002062
:108A7000EFE700BF00800050002337B50193164B8D
:108A80000546D3F860320C4603F00703013B032B85
:108A90001FD8DFE803F0020E1914002101A8FFF728
:108AA00007FF10230DB1019A2A6004B1236003B0BF
:108AB00030BD002101A8FFF7BBFF1123F2E7FEF74D
:108AC0009FF907230190EDE7FEF796F90223019045
:108AD000E8E70023E6E700BF00800050002337B539
:108AE0000193164B0546D3F894320C4603F0070366
:108AF000013B032B1FD8DFE803F0020E19140021FD
:108B000001A8FFF7D5FE10230DB1019A2A6004B128
:108B1000236003B030BD002101A8FFF789FF1123B6
:108B2000F2E7FEF76DF907230190EDE7FEF764F930
:108B300002230190E8E70023E6E700BF0080005031
:108B400038B5144B0546D3F800020C4600F0070078
:108B5000042804D8DFE800F01B0A0E1216000023D8
:108B6000184605B1286004B1236038BD33F0ACF875
:108B70000A23F6E7FEF786F90923F2E733F0A7F8B0
:108B80000C23EEE7FEF70CF90F23800AE9E7012337
:108B9000E7E700BF0080005038B5144B0546D3F816
:108BA00008020C4600F00700042804D8DFE800F0B3
:108BB0001B0A0E1216000023184605B1286004B1E6
:108BC000236038BD33F080F80A23F6E7FEF75AF940
:108BD0000923F2E733F07BF80C23EEE7FEF7E0F829
:108BE0000F23800AE9E70123E7E700BF0080005078
:108BF00038B5104B0546D3F840320C4603F003035A
:108C0000022B0BD0032B0DD0012B0FD133F05CF8CE
:108C10000A2305B1286004B1236038BDFEF732F99C
:108C20000923F6E733F053F80C23F2E70123002081
:108C3000EFE700BF0080005038B5104B0546D3F871
:108C400060310C4603F00303022B0BD0032B0DD035
:108C5000012B0FD133F038F80A2305B1286004B195
:108C6000236038BDFEF70EF90923F6E733F02FF83D
:108C70000C23F2E701230020EFE700BF0080005043
:108C8000B0F5207F1FD009D8B0F5007F15D003D8EC
:108C900068B1B0F5C07F0AD000200CE0B0F5607F6D
:108CA000FAD10B4BD3F88000C0F3011003E0084B5E
:108CB000186FC0F3033001307047054BD3F89000B4
:108CC000C0F30460F7E7024B186FC0F38020F2E7AF
:108CD0000080005002464FF48030104B10B598666B
:108CE0000020FFF7CDFF504341F671320C4BDC6999
:108CF000DA635A6804F4803422F4401259B90949FD
:108D000088428CBF4FF480100020104358600CB193
:108D10000022DA6310BD0449F2E700BF0090005062
:108D200000000350005A6202002D3101430905D0B2
:108D3000012B0DD0022B094B18BF002300F01F00A0
:108D400041B103F58053012202FA00F01860704728
:108D5000034BF3E703F50053F5E700BF68800050CD
:108D6000648000501FB5002180280446CDE9001121
:108D700000F0998029D8002800F09980A0F1200403
:108D80003D2C35D83D2C33D8DFE804F091999199EA
:108D9000A8A8A8A8A899B23CC8603C999999323271
:108DA00032323232323299999968D2993232323231
:108DB000323232323232323232A8919191CD3C3C51
:108DC000D7774DAD323232323288B0F5B06F00F025
:108DD0008F802DD8B0F5207F71D00CD8B0F5C07F32
:108DE00065D0B0F5007F65D0B0F5807F00F085805C
:108DF000009804B010BDB0F5607F6AD00DD8B0F512
:108E0000407FF5D1FDF7CCFF02464FF42070FFF70D
:108E100037FFB2FBF0F0400847E0B0F5806F5DD05F
:108E2000B0F5A06FE4D100216846FFF7CFFDDFE782
:108E3000B0F5106F77D016D8B0F5E06F78D00AD8BB
:108E4000B0F5C06F6AD0B0F5D06FD1D100216846BF
:108E5000FFF776FECCE7B0F5F06FC9D10021684688
:108E6000FFF7EAFEC4E7B0F5406F3CD013D8B0F589
:108E7000206F62D0B0F5286FBAD10021314B039139
:108E8000D3F8703203F00303012B02D103A8FFF7DC
:108E9000CFFD039B3BE0B0F5486FA9D100216846A8
:108EA000FFF71CFEA4E7FDF761FF0090A0E7FDF7C8
:108EB00077FFFAE7FDF75AFF0246204604E0FDF788
:108EC0006FFF02464FF42070FFF7DAFEB2FBF0F0BE
:108ED000EBE701A8FFF7C8FC019AEEE7002168461E
:108EE000FFF7E6FC84E700216846FFF715FD7FE702
:108EF00000216846FFF742FD7AE74FF0E023029138
:108F00001B695B0705D5FDF74BFF0290029B0093A1
:108F10006EE703A902A8FFF78BFDF7E7002168467B
:108F2000FFF786FD64E700216846FFF735FE5FE73F
:108F300000216846FFF75CFE5AE700216846FFF70C
:108F40009BFD55E70080005008B58020FFF70AFF21
:108F5000034B98429EBF4FF48032024B1A6708BD04
:108F6000005A620200A000501FB50023B0F5807FB8
:108F7000019300F0C38064D85D2855D84C2807D8E9
:108F80002D2847D823282BD8019805B05DF804FB7D
:108F90004D381028F8D801A353F820F0F3900008BA
:108FA000898F0008898F0008898F0008A590000824
:108FB000898F0008898F000879910008C390000804
:108FC000699000086F910008898F0008898F000858
:108FD000898F0008898F0008898F00088391000815
:108FE00024380928D0D801A353F820F0F3900008C2
:108FF000F3900008F3900008F3900008F390000845
:10900000898F0008E9900008898F00088590000882
:10901000299100083D2800F082803E28B4D100202C
:1090200001A9FFF7E5FDAFE78028ADD15A4B1B6FD3
:1090300003F00703013B032BA6D8DFE803F05350EE
:10904000878FB0F5F06F6AD021D8B0F5B06F4BD0F4
:109050000FD8B0F5607F00F0858095D3B0F5806FB4
:1090600047D0B0F5A06F8FD1002001A9FFF7AEFC6B
:109070008AE7B0F5D06F57D0B0F5E06FCFD0B0F53C
:10908000C06F81D1002001A9FFF7D2FC7CE7B0F5C9
:10909000206F71D00BD8B0F5086F4AD0B0F5106FC3
:1090A0007FF472AF002001A9FFF776FD6CE7B0F501
:1090B000406F5CD0B0F5486F63D0B0F5286F7FF497
:1090C00063AF0021344B0391D3F8703203F00303F4
:1090D000012B5BD0022B14BF0B46152300E00523A8
:1090E000019351E70223FBE7002001A9FFF746FCAB
:1090F0004AE7002001A9FFF7DBFB45E702934FF0A9
:10910000E0231B695B0705D5FDF74AFE0D2303939A
:10911000039BE5E703A902A8FFF78AFCF8E7002014
:1091200001A9FFF789FD2FE7002001A9FFF708FD3E
:109130002AE7194BD3F8003103F00303022B07D0C1
:10914000032B09D0012B0BD1FDF740FE0323C7E70A
:10915000FDF798FE0923C3E732F0B4FD0823BFE70B
:109160000123BDE7184601A9FFF77EFB0CE70020AD
:1091700001A9FFF7D1FB07E7002001A9FFF77CFC5D
:1091800002E7002001A9FFF7A9FCFDE603A8FFF70D
:109190004FFC1123A4E700BF008000504FF4801261
:1091A000034B5A664FF48032024B9A62704700BFFD
:1091B000009000500050005A38B504468020FFF758
:1091C000D3FE032800F08A804FF48012544B4FF0F6
:1091D000A0615A6645F60E03524AC2F88030524BDF
:1091E00099624FF4803103F580539962936DD903EE
:1091F000FCD4916D11F08041FBD1D4E900031B0533
:1092000043EA0063E07B0343207B43EA0043607B47
:1092100043EA0033A07B43EA801313619069D4E9E9
:1092200004531B0643EA856300F000400343A07E1D
:10923000E57E0343207E43EA0043607E43EA002349
:109240009361E069136A00280CBF0022082223F012
:109250000F0343EA000343EA850343EA0203314A6A
:10926000324D13623BD194F82430916A94F8200077
:10927000DB000D4043EA401394F821102B4343EAEE
:10928000011343F480339362294B916D33EA01015A
:10929000FBD14FF08071244881621369A56823F4E3
:1092A000700343EA055313614FF00043836194F860
:1092B00022300BB91F4B996294F823303BB94FF41D
:1092C00080321C4B9A62174A936D5B00FCD494F871
:1092D00025301BB1134B184AC3F8802038BD022833
:1092E00008D11161154891614FF408524FF47F4144
:1092F00032F021FF0B4994F822308A6A94F820005A
:109300001B06154043EA401394F824202B4343EAFC
:10931000C20394F8232043EA02438B62D7E700BFDD
:10932000009000500040005A0050005AC7FFFEFE57
:10933000030001000060005AF1A7FFFF3440005A0B
:10934000014B93F900007047C7140020014B1880AF
:10935000704700BF98140020B0F5207F10B50C4670
:1093600057D008D8B0F5007F48D003D830B3B0F557
:10937000C07F23D010BDB0F5607FFBD129492A48BA
:10938000D1F8FC2012F080721EBFD1F8FC3023F01F
:109390008073C1F8FC30D0F88030611E23F03004B7
:1093A00044EA0114C0F88040002AE3D01D4AD2F8F4
:1093B000FC3043F08073C2F8FC30DBE732F0CCFEC7
:1093C00032F0D8FE4FF48031184B174A1967136FEB
:1093D000611E23F4704444EA01341467FDF7E0FC95
:1093E0000446FFF735FAC0F10201204632F0BCFE18
:1093F00000F02EF8BDE81040FFF7A6BD0A4A01397B
:10940000D2F8903023F0F85444EA0164C2F8904056
:10941000B0E7054B013C196F21F4806141EA8424D7
:109420001C67A7E700ED00E00080005000900050AE
:1094300008B50121022000F003FB32F08DFE32F06E
:1094400099FE4FF48032014B1A6708BD009000501E
:1094500008B54FF4C070FFF785FCBDE8084004492B
:1094600088428CBF022101214FF42070FFF774BFA6
:1094700080F0FA02B0F5807FF8B50C4600F052811A
:109480006BD85D285DD84C2804D82D2844D82328D3
:1094900028D8F8BD4D381028FBD801A353F820F088
:1094A000059700089394000893940008939400088B
:1094B000F79500089394000893940008B998000861
:1094C0002F96000887950008999800089394000843
:1094D00093940008939400089394000893940008D0
:1094E000D998000824380928D3D801A353F820F0CC
:1094F00005970008059700080597000805970008DC
:109500000597000893940008E596000893940008D6
:10951000BD950008D39700083D2800F04A813E28F9
:10952000B7D1093C032C8CBF0021B24BB24A98BF83
:10953000195DD2F8403223F003030B43C2F84032E6
:10954000A7E78028A5D18B1E062B00F2C880DFE894
:1095500003F0C3B1C67EC6C6C000B0F5F06F00F020
:1095600028813BD8B0F5B06F00F0BC801BD8B0F5B7
:10957000607F00F06B818CD3B0F5806F00F0C2800B
:10958000B0F5A06F85D1073C0B2C8CBF00219B4B05
:10959000994A98BF195DD2F8203223F007030B4394
:1095A000C2F8203275E7B0F5D06F00F01281B0F547
:1095B000E06FB6D0B0F5C06F7FF46BAF093C032C01
:1095C0008CBF00218E4B8C4A98BF195DD2F8403178
:1095D00023F003030B43C2F840315AE7B0F5206F84
:1095E00000F06A8117D8B0F5086F00F01F81B0F560
:1095F000106F7FF44EAF093C062C8CBF0021814BCD
:109600007D4A98BF195DD2F8083223F007030B4357
:10961000C2F808323DE7B0F5406F00F03D81B0F58B
:10962000486F00F05981B0F5286F7FF432AF112CEC
:1096300000F06281152C14BF002102216E4AD2F87D
:10964000703223F003030B43C2F8703221E7002588
:1096500002264FF480370121022000F0F1F932F0A8
:109660007BFD32F087FD684B634A1F67136F23F061
:10967000070333431367FDF793FB0646FFF7E8F84C
:10968000C0F10201304632F06FFD0121002000F0F0
:1096900017FAFFF7DDFEFFF757FC002D7FF4F9AE58
:1096A000032C7FF4F6AE594B594A9F62936D5800D4
:1096B000FCD4EEE64FF48012534B0E465A664FF43C
:1096C0008032534B9D6A03F58053C5F300659A625F
:1096D000BFE700250426BCE700250126B9E70025E1
:1096E0002E46B6E7023C0E2C8CBF0021494B424A65
:1096F00098BF195DD2F8803123F003030B43C2F801
:109700008031C6E6023C052C8CBF0021424B3A4A10
:1097100098BF195DD2F8203123F007030B43C2F83C
:109720002031B6E6A1F10904082C3FF6B2AE01A340
:1097300053F824F0599700085997000893940008AB
:10974000599700088797000893940008939400089D
:1097500093940008599700084FF48032264B2F4904
:10976000586E03F580535A664B6A43F001034B620F
:10977000C1035CBF2A4B5A664FF0E022136923F005
:109780000403136185E64FF480321B4B2349586E66
:1097900003F580535A664B6A23F001034B62C303FF
:1097A0005CBF1F4B5A664FF0E022136943F004037D
:1097B000E7E7093C032C8CBF00211A4B0E4A98BFE7
:1097C000195DD2F8603123F003030B43C2F8603116
:1097D0005FE6093C062C8CBF0021134B064A98BF5C
:1097E000195DD2F8003223F007030B43C2F80032B0
:1097F0004FE600BFBA62050800800050D562050838
:10980000BA620508BE620508009000500060005A68
:109810000040005AF1620508B462050800C0075014
:1098200000A00050BA620508BE620508CC1E062CD6
:109830008CBF0021314B324A98BF195DD2F80031FC
:1098400023F003030B43C2F8003122E62D49063C06
:10985000D1F8FC2012F080721EBFD1F8FC3023F04A
:109860008073C1F8FC30082C8CBF0020264B2449A3
:1098700098BF185DD1F8803023F003030343C1F88B
:109880008030002A3FF405AE1E4AD2F8FC3043F087
:109890008073C2F8FC30FCE5023C052C8CBF002133
:1098A0001A4B174A98BF195DD2F8283123F00703E5
:1098B0000B43C2F82831ECE5023C0F2C8CBF002191
:1098C000134B0F4A98BF195DD2F8603223F007039B
:1098D0000B43C2F86032DCE5023C0F2C8CBF002148
:1098E0000C4B074A98BF195DD2F8943223F0070356
:1098F0000B43C2F89432CCE501219FE6C56205080E
:109900000080005000ED00E0CC620508B46205085C
:10991000E1620508E16205080028ABBF00F1604084
:10992000054B00F5614000F00F00ACBF90F800035C
:10993000185C0009704700BF14ED00E0054B4209B8
:1099400053F8223000F01F0023FA00F0C04300F06B
:109950000100704700E100E0014608B5EFF3108315
:10996000DB0702D50122104608BDFFF7E7FF0246DC
:109970000028F7D10846FFF7CFFF0146EFF3118328
:1099800013B1B0EB131FEDD2074B5B68C3F30803B1
:10999000002BE8D0103B58B2FFF7BEFF88428CBFC7
:1099A00000220122DFE700BF00ED00E0024A536B16
:1099B0000342FCD1704700BF00400950044A41787F
:1099C000536F23F4407343EA01235367704700BF8A
:1099D000004000500A4A10B51369044643F00403DE
:1099E000136106F059FA32F0EFFB30BF32F0EDFBB5
:1099F00006F08CFA1CB9BDE81040FDF7D1B910BDD6
:109A000000ED00E0084A10B51369044643F0040372
:109A1000136106F041FA30BF06F078FA1CB9BDE8D0
:109A20001040FDF7BDB910BD00ED00E0034A01791B
:109A3000D36E23F030030B43D366704700400050D1
:109A4000F8B504461C4BD3F88420D106FBD4D3F8D8
:109A50008430C3F381139C422CD0FDF787F9012C8D
:109A6000064602D1214632F07FFB32F09DFB4FF0DB
:109A70000072124B07465A66204632F0A9FB4FF49B
:109A800080630D4D621E93402B676B6E9A0103D469
:109A9000D5F884309B060AD5384632F089FB022C73
:109AA00008D13046BDE8F840002132F05DBBD5F862
:109AB0008430EAE7F8BD00BF00400050006000506D
:109AC00007B518B90191FDF751F90199064B1B78BB
:109AD00043B1064B984205D8012003B05DF804EB72
:109AE000FFF7AEBF0220F8E725940020005A62027B
:109AF0000278034B012100201A70FFF7E1BF00BF7D
:109B0000259400204FF0004238B5244B244C5A666F
:109B10004AF6CD33656C014605F00105236430BB80
:109B20000120FFF743FF6368DB0708D4002415B169
:109B30001B4B1C4A1A644BF05BF9204638BD1A4B8C
:109B400058600846194B226BD20705D4984201D1C0
:109B50000724ECE70130F6E79842E7D1F8E7013255
:109B6000236B13F0080305D08A42F8D1F0E70022F6
:109B70000E49F5E78A42EBD020210B4A9162012180
:109B8000A2F5805251600649084A886A800603D4CB
:109B90009342DDD00133F8E79342DEE700900050B6
:109BA000004009503254FFFF0060095040420F004E
:109BB0004FF0004238B5164B01465A664AF6CD338F
:109BC000144C154A656C236443780B205B0043F00A
:109BD0000103D363FFF7EAFE63688A7823F4F8731E
:109BE00043EA02136360CA784B7943EA0223A36015
:109BF0000A798B7943EA022323610878FFF782FF11
:109C0000EB0744BF054B23644BF0F2F8012038BD4D
:109C10000090005000400950004000503254FFFFB7
:109C20004FF00042124B70B55D6E03F580535A66DB
:109C30004AF6CD3304460F4980204E6C0B64FFF783
:109C4000B5FE0B6A23F00F030F2C94BF234343F0A0
:109C50000F030B62F30744BF074B0B64002DA2BF39
:109C60004FF00042054B5A664BF0C2F870BD00BF82
:109C700000800050004009503254FFFF00A0005007
:109C80004FF00042104B70B55D6E03F580535A667D
:109C90004AF6CD3304460D4980204E6C0B64FFF725
:109CA00085FE0B6A23F4F85343EA04230B62F3079F
:109CB00044BF074B0B64002DA2BF4FF00042054B81
:109CC0005A664BF095F870BD008000500040095076
:109CD0003254FFFF00A0005010B532F07EFA04238A
:109CE00000F5805100F500520B6113610B611361A7
:109CF0000B6113610B611361202341F202010361C7
:109D00000023C360836041614FF4A02183618365B8
:109D100041620549C36103628362C36243630365B1
:109D2000D164036310BD00BFFF3F0D03F8B50546C6
:109D30001446084641B9344B9D422FD0334B9D42C7
:109D400008BF5720FFF70EF8AB68DE072ED5B0FB33
:109D5000F4F46E68013C16F0010625D0282128464F
:109D600032F037FAAB6C99071AD1AB6CDA0719D419
:109D7000AB6C13F0020F0CBF00270627284632F009
:109D80002CFA286920F07F4040EA04642C61DEB19F
:109D900039462846BDE8F84032F056BA5620D1E799
:109DA0000527EBE70927E9E73746EAE76B68AB6D7C
:109DB000AF68DB0707F0E00748BF6400402F1BD007
:109DC00003D8DFB1202F1BD0F8BD602F1AD0802F11
:109DD000FAD1012604FB06F34101B1FBF3F30C4A6F
:109DE000203B02EAC3022846012132F0F2F92A633D
:109DF000BDE8F84032F0EDB90626EBE71026E9E7BA
:109E00000826E7E70426E5E70000015B00000A50AA
:109E1000F8FF7F00436870B504460D460E691BB11C
:109E200040F6FF7132F0D5F92046FFF755FF226961
:109E30006B7BA97B22F087020B43134343F0800323
:109E4000236116B32A692369117823F0F8030B43C1
:109E5000117F43EAC113117943EA4113517A43EA6E
:109E60000113D17B43EA81132361E168D2E9053014
:109E700021F0F04121F4702103430B43117B527B0D
:109E800043EA812343EAC233E360A368EA7B23F019
:109E90000303134343F00103A3602EB32A69A168AF
:109EA000538803F4C0430B43A3605179A36843EA8A
:109EB0008123A3609379D079616A1B01000203F0CA
:109EC000700300F4E06021F4772121F4EE61034394
:109ED0000B43117A527F090301F4E04112040B4352
:109EE00002F470221343636263692A7B23F00F0339
:109EF00013436361B6B12B695A89A2615A7B3AB1A7
:109F00001D4A944224D19A7B1C4902F00F024A67F1
:109F1000DA7B3AB1184A944224D11B7C174A03F0E9
:109F20000F031367D5E901122046FFF7FFFE052155
:109F3000204632F06CF9282132F04BF92B78A363DC
:109F400032F047F9A36CDB4313F4405FFAD170BDE4
:109F50000B4A944201BF9A7B084902F00F02C1F8F4
:109F60008020D5E7064A944201BF1B7CA2F5CE2291
:109F700003F00F03D367D5E70000015B00900350A7
:109F800000000A502C4B2DE9F0419842064612D0B1
:109F90002A4886420CBF57200020FEF7E3FEB16836
:109FA00011F0010109D03169090E0131B0FBF1F165
:109FB0000846BDE8F0815620EFE7326BB468204BCD
:109FC00004F0E004402C03EA020310D007D854B395
:109FD000202C2CD0B36DDB0748BF4908E8E7602C84
:109FE00027D0802CF6D14FF480750C461CE08025DC
:109FF0000C464FF0030803F5807308FB03F80023B9
:10A000004246194630F0B0FB02FB04F100FB05F7B5
:10A0100005FB0311A2FB050500234246294430F04D
:10A02000A3FB3918D6E710254FF00108E3E72546D2
:10A03000DBE74025D9E700BF0000015B00000A50C4
:10A04000F8FF7F00072AF7B501F0030614461F4604
:10A050004FF003012CD89500A94000FA05F21C48E6
:10A06000019132F0FBF801991A4806FA05F232F034
:10A07000F5F8194B19499DF82000002F08BF194623
:10A08000012303FA04F40C60154B1649002808BF9D
:10A090000B461C60144B9DF82400C3F8204410317B
:10A0A000A3F6DC33002808BF0B461C6003B0F0BDEC
:10A0B000A2F10805AD00A94000FA05F20B48019194
:10A0C00032F0CCF801990A4806FA05F2CFE700BF52
:10A0D00000C4035008C4035010E4035010D40350CC
:10A0E00014D4035014E4035000E0035004C403509C
:10A0F0000CC403502DE9F04105460F461E4690461C
:10A100004AB101233022194C8B4002FB00443EB37C
:10A1100004F5825423600F21072F05EB450388BF08
:10A12000A7F108044FEA0313114895BFBC00A4002F
:10A1300004330C3308FA04F2A140184432F08EF8CC
:10A14000B8F1000F0AD101213020084A01FA07F7BF
:10A1500000FB05223EB102F582521760BDE8F08196
:10A1600004F50154D6E702F50152F6E700C00350AA
:10A1700030C003504369DA01FCD4012300F50050DC
:10A18000024A436053689B07FCD470470040005963
:10A19000084608B569B92A20FEF7E4FDB0B10C4BBA
:10A1A000984206D90B4B9B68C3F302730133B0FB93
:10A1B000F3F0094900F5742000F23F20B0FBF1F004
:10A1C00001387F2828BF7F20C0B208BD0120F0E7FA
:10A1D000005A62020040005940420F0010B50B4C7B
:10A1E0008C4228BF0C461AB92A20FEF7BBFD024656
:10A1F000601E0244B2FBF4F0A24228BF00F1FF301F
:10A20000032828BF0320C0B210BD00BF005A62025D
:10A2100010B51048104C002B18BF2046884228BFAC
:10A22000084604461AB92A20FEF79CFD02469DF80E
:10A2300008000130B2FBF0F2601E0244B2FBF4F3FE
:10A2400040F2FF30A24228BF03F1FF33984228BFFB
:10A25000184610BD80969800404B4C002DE9F04FF9
:10A260002DED048BB44E0C4687B0154631460022C6
:10A270000746FFF7B3FF6379984238BF18465FFA85
:10A2800080F83846FFF776FF207950B92A20FEF78C
:10A2900069FDB042014628BFB0FBF8F13846FFF730
:10A2A00077FFE3784FEA08721B0102F0E04203F007
:10A2B000300313430004227800F4FE0003430AB184
:10A2C00043F0020362780AB143F00403A2780AB1B2
:10A2D00043F008034FF00009BB60E38822893B612B
:10A2E0006389DFF860A243EA02433B62574502D12B
:10A2F000B9F1020F08D1012307F580577B6007B041
:10A30000BDEC048BBDE8F08F00222C788B488C4983
:10A31000AE68944218BF014623468A48CDF80080B3
:10A32000FFF776FFB6B28642334638BF034607EBE7
:10A33000091103938B6C04F0030623F0435323F4B9
:10A340001D1323F4405323F01F0333436E78EA7840
:10A35000B60006F01C061E43AB784FEA09101B033B
:10A3600003F4E0433343160406F4E02633432E7C23
:10A37000760506F4600633432E79360706F040561C
:10A3800033438B648B6C7049C3F30233013B042B62
:10A3900000F28580DFE803F0838383030300D1F8B4
:10A3A000843109F1050B002C6FD10AEB00039C6C82
:10A3B000C4F30234631E012B634B73D8DFED637A61
:10A3C000D3F88041A4B223044FF001035044806CC1
:10A3D00024F4C046C0F3820000F1010E03FA0EFE21
:10A3E00007EE10EA4FEA8646B8EEC79AF6EE008A04
:10A3F000554B48BF46F00046002871D1D3F88C3148
:10A400001BB208EE103AB8EEC88A37EE888A002AE6
:10A410007BD105A800F0D4F9DFED4D7ADFED4D6A70
:10A4200086EE897ADFED4C6A67EE887A27EE267A27
:10A43000F1EE006AB6F1004F07EEA67A0BD0DFED21
:10A44000476A07EE904A37EE266AFAEEE87AB0EEEF
:10A45000667A17EE867AB5EEC07AF1EE10FACABFC8
:10A46000B1EE477A38EEC77A37EE687AFDEEC77AF2
:10A4700017EE903AB3F5003F54DB6FEA56466FEAA9
:10A4800046464FEA0B134AF80360039B0AEB0B1195
:10A49000C3F309024A6009F10109143526E7D1F82E
:10A4A00080317EE7032C0AD1D3F88041D3F88C3178
:10A4B000240C1B1407EE903AF8EEE77A83E7042C9D
:10A4C000D3F884410BBFD3F88C31D3F88C311B14F3
:10A4D0001B1407BFA4B25B00240C03EB4303E9E7A2
:10A4E000D3F89001D3F8883100B207EE100AB8EE25
:10A4F000C77A77EE677A29EE287A1BB287EE878AC9
:10A5000007EE903AF8EEE77A7FE7D5ED037ADFEDD4
:10A51000146AF8EE677A87EEA67AF7EE046AC6EE5A
:10A52000877A7BE713F5003FAABFC3F3110346F414
:10A5300000361E43A5E700BF005A6202404B4C00A4
:10A5400080969800004000590080E00F0000000055
:10A550003D3B843F00008043000020440000004950
:10A5600000007A44044A054B002918BF1346012213
:10A5700002FA00F018607047402004504010045068
:10A5800010B5012104462020FEF7D0FB0121212037
:10A59000FEF7CCFB0122114B5A60227812069A601A
:10A5A0006178A27842EA01429A61FF229A6200220F
:10A5B0009A631A644FF000425A654FF0FF324FF42D
:10A5C000001103F500531A65054AC2F88011E378BB
:10A5D0001B01DBB282F81533116010BD000004507E
:10A5E00000E100E02DE9F0410125C3B2D1F800807F
:10A5F00091F80AC00F7B91F80DE09D400C46CB7A94
:10A600001C491D4E0D65810001F1A04101F5882115
:10A61000C1F80480302101FB00601B0543EA0C43B4
:10A6200043EA475322F00302C0F860E0C3650267C3
:10A6300031F0C1FD736D2B437365237A13B1336C15
:10A640002B433364637A13B1B36B2B43B363227927
:10A65000A37943EA0243074A93616179E37943EAC4
:10A66000014306498B61044B55639D64BDE8F0418D
:10A6700031F0A7BD00200450000004500010045029
:10A6800010B50124C0B2844031F095FD044B5A6DE1
:10A6900022EA04025A659C62BDE8104031F091BD87
:10A6A00000000450F8B50125C3B204469D4031F0C6
:10A6B00082FD3022094B1E6D5F6B02FB04335C6E22
:10A6C00031F07FFD3D4206D1C4F30A1008B935428E
:10A6D00000D10130F8BD0020FCE700BF00000450AD
:10A6E0004FF48032054B9A6641F6713203F51C3304
:10A6F000DA63012203F50053DA60704700900050DE
:10A7000041F671320121064BDA6303F50052D16044
:10A710000022DA634FF48032A3F518339A6670474B
:10A7200000000350013831289ABF024B185C00200A
:10A73000704700BF00630508021E30B54FF00000EF
:10A740000CBF1025042547F60774084952B9831D2C
:10A7500051F82330234023B101308542F6D14FF028
:10A76000FF3030BD00F11603F2E700BF0080035058
:10A7700010B5C2F30623044602F0070241B942EACB
:10A7800003220B4B42F44022063443F8242010BD30
:10A790001846114631F0F1FD01461846FFF7C2FF99
:10A7A000034B41EA0020163443F82400EFE700BFD2
:10A7B00000800350014BD3F89400704700400050D4
:10A7C0004FF48032064B5A6603F5E6239B69C3F3C8
:10A7D0008512827003F03F021B0B427003707047BA
:10A7E0000090005040F6B732064B5B689BB2934234
:10A7F0009FBF4FF47A72B3FBF2F3034AD05C88BF79
:10A80000002070470080E00F32630508014B986C10
:10A81000D96C70470080E00F0120034B9B680A331E
:10A8200003F01F03984070470080E00F70B50546A5
:10A8300016461C4621B94FF42070FEF793FA0146E4
:10A84000402C1BD003D8DCB1202C1BD070BD602C59
:10A85000FCD1042303FB06F2560806EB4113B3FBBD
:10A86000F2F3094A203B02EAC303AA6822F060021D
:10A87000AA60AA681443AC60EB61E7E70623E9E746
:10A880001023E7E70823E5E7F8FF7F002DE9B8414B
:10A89000154F15460F40FAB9202B20D0402B20D061
:10A8A000002B14BF40241024012307F580775F4359
:10A8B00000233A4619462FF057FF554300FB04F892
:10A8C00004FB0351A2FB040400233A4621442FF069
:10A8D0004BFF4044BDE8B88180240025E4E71C46D6
:10A8E000E2E780240323E0E7F8FF7F00012100F581
:10A8F000805310B5596040F6AA6341F205024361E6
:10A900000023094C8360C365C26000F500520361F7
:10A91000C361C3649464054C8365A04204BF0365AE
:10A920004365516010BD00BFFFFF010000C005502E
:10A9300070B50D46FFF7DAFF012300F5805673600E
:10A94000AB7C04461BB1836843F080438360EB7C9F
:10A950005BB1244B9C4202BF2A7DA3F51033C3F8A0
:10A96000C821E36D43F08003E3652A8A6B7B2046B0
:10A970001343EA891343E3602B7BD5E90112FFF708
:10A9800055FF6B7D1BB1A36843F48033A360AB7D9F
:10A990001BB1A36843F40043A360EB7D2A7E1B0731
:10A9A000120502F4E00203F0E0431343A3656B7E5B
:10A9B0009A1E012A4FF0020209D80B49032BC1F855
:10A9C000202709D10423F3652B78636170BD074903
:10A9D000012BC1F82027F4E7042204F50053DA65BF
:10A9E000F2E700BF00C0055000D0035000E0035064
:10A9F00038B50D46FFF77AFF0122A97B00F5805399
:10AA00005A602A8A8368002914BF4FF480610021AC
:10AA100042F0010213432A7D0B43002A14BF4FF07A
:10AA20000052002283608368044613438360AB7C3A
:10AA30005BB1194B984202BFEA7CA3F51033C3F80F
:10AA4000C821C36D43F08003C3652B7B2046D5E945
:10AA5000011243F48053E36031F0FFFC6B7B0BB1D8
:10AA6000102363616B7D1BB1A36843F48033A36043
:10AA7000AB7D1BB1A36843F40043A360EB7D2A7E4A
:10AA80001B07120503F0E04302F4E0021343A36541
:10AA90002B78636138BD00BF00C00550054B9A6834
:10AAA0009107FCD45A689207F9D4DA69002AF6D1E2
:10AAB000704700BF00800A5008B5FFF7EFFF012282
:10AAC000024B03F580514A601A6108BD00800A50AC
:10AAD000074B5A68012A0AD15A68D20702D5DA69A7
:10AAE000002AF9D102221A610122024B5A607047F2
:10AAF00000800A5000A00A5010B5064CFFF7CEFFA8
:10AB00006368012B03D1FFF7E3FFFFF7C7FF03786B
:10AB1000E36010BD00800A50E8B94A680B7812B1B2
:10AB2000127843EAC2034A78002A14BF02220022A4
:10AB300013438A6812B1127843EA82138A78002A92
:10AB400014BF042200221343CA6812B1127843EAE8
:10AB50004223014A9364704700800A5008B9014BB0
:10AB60005964704700900A5008B9014B5964704706
:10AB700000A00A5008B9014B1964704700A00A50A0
:10AB800010B9024B186C70470020704700800A50C3
:10AB900048B911B1012903D07047044BD86C7047F4
:10ABA000024B186D70470020704700BF00800A50AC
:10ABB00040B911B1012903D07047034BDA647047E3
:10ABC000014B1A65704700BF00800A5010B9024B54
:10ABD000586D70470020704700800A5038B5044611
:10ABE000054D4AF01AF90FCC0FC594E8030085E82B
:10ABF0000300002038BD00BF1072002047F6FF732D
:10AC00009A42F0B566D0012966D8344DCF0015F8C8
:10AC1000313005EBC100012B847813D10025C378B6
:10AC20001B1B9D4202D3E018C0B2F0BD591B466801
:10AC3000A3EB510136F911609642D4BF0D4601F1E4
:10AC4000FF33EEE740680028EFD0B0F900309342C0
:10AC500004DBB0F902309342B8BF134682883D440A
:10AC6000FF2A19BFC8214FF0280CB0F90610B0F91F
:10AC700008C0A1EB03020CBF0126002692FBFCF2E8
:10AC80006D78324412B2954201DD002A01DA6A1E63
:10AC900012B24FF47A7700EBC206F188B66801323F
:10ACA00013FB016112B221EAE1715C319542B1FB03
:10ACB000F7F104DD00EBC206B6888E42EBD200EB62
:10ACC000C20232F8040C884228BF0846A04238BFAE
:10ACD0002046A9E7FF20A8E70020A6E71072002081
:10ACE0000129F0B553D82B4800EBC10410F83110FE
:10ACF000636801290FD1E078A478904294BFC4EB37
:10AD00000001C4EB0201001BCAB28242C8BF00228C
:10AD100033F91200F0BD002B39D0A178914202D353
:10AD2000B3F90200F6E7E178B3F900009142F1D9F6
:10AD300099886478A1F1FF06013C714203F1040592
:10AD4000E4B2714103F10C071FFA82FCCEB2B442A7
:10AD500016D805EBC1014FF47A756A43B1F9024088
:10AD60004968521A04EBD47102EB610292FBF4F2CF
:10AD70009042CFDBB3F902009042CBDC10B2C9E7BE
:10AD800037F831E04E1CE645E3D33146DEE70248B2
:10AD9000C0E700BF107200200080FFFF0148FFF7EE
:10ADA0001DBF00BF14AD05087FB51422002101A806
:10ADB0004AF04BFE044B01A94FF0FF3002934AF0DA
:10ADC000F3F807B05DF804FB006A18002DE9F843BA
:10ADD00007F03AFD0128074605D907F069FD061E70
:10ADE00002DA01241EE00026DFF8808098F80030A7
:10ADF00003F0FF0493BB4FF05009194D05F1100308
:10AE00002846C5E90044AB60C5F80C9007F0C2FEC7
:10AE1000286650B90124012F04D9304607F06AFD95
:10AE20000028DEDB2046BDE8F8830E4D214605F103
:10AE300010032A460120C5E90044C5E9023907F09C
:10AE400069FF28660028E5D03022074B83F84123AC
:10AE500002229A60012388F80030DCE70024DAE758
:10AE60008C7200202872002000E100E0269400206F
:10AE700008B507F0E9FC02280FD1094B4FF0FF316C
:10AE8000186E07F0C9FE002814BF0120002003D16E
:10AE90004FF48062034B9A6608BD0020F8E700BFBC
:10AEA0008C720020009000504FF4806208B5084B6F
:10AEB0009A6607F0C9FC022807D1064B186E07F006
:10AEC000DBFE003818BF012008BD0020F9E700BFF5
:10AED00000A000508C72002008B54FF098435B6CC6
:10AEE000D90208D507F0B0FC0238012803D8094B75
:10AEF000186E07F09BFF4FF098435A6CD202FCD5B6
:10AF00005B6D054A03F4702313600222034BC3F800
:10AF1000882108BD287200209813002000E100E07D
:10AF200038B5054600283AD0FFF7A2FF04460028AE
:10AF300036D1284631F062FA95F8203043B94FF007
:10AF400098435A6CD202FCD55D6D05F470251BE068
:10AF50004FF09842936D43F00203936507F074FC41
:10AF600002281AD1104B4FF0FF31186E07F028FF5E
:10AF70004FF09842936D23F00203936590B94FF41C
:10AF8000A0220A4B1D681A60FFF78EFF04463DB1F0
:10AF90002846BDE8384031F090BA2046E8E7212441
:10AFA000204638BD0124FBE72872002098130020BA
:10AFB0002DE9F0418CB08846DDE912761D46044645
:10AFC000002847D0002945D0002F43D0002E41D083
:10AFD00013F00F033ED120482049A360002A18BF78
:10AFE0000146E361C4E90013404609A931F0D5FBED
:10AFF00068BB2046099931F0F8F92946204631F01E
:10B00000F4F96946404600F079FF00BB69462046E6
:10B0100031F0D7F9404603A931F08DFCB8B920468C
:10B0200003A931F0CEF906970127204645F00055D7
:10B0300006A90797089531F0C4F9204609A9099691
:10B040000A970B9531F0C7F92046FFF769FF0CB05E
:10B05000BDE8F0812120FAE70001010400010004AD
:10B060002DE9F04792B08846DDE91A571C4606469E
:10B07000DDF87090002864D0002962D0002F60D0E5
:10B08000B9F1000F5DD0002D5BD013F00F0358D144
:10B090002D482E49B360002A18BF0146F361C6E966
:10B0A000001340460FA931F078FB002846D1304606
:10B0B0000F9931F09AF92146304631F096F96946F8
:10B0C000404600F01BFF002838D16946304631F079
:10B0D00078F9404603A931F02EFC78BB4FF0010807
:10B0E0003046DFF86CA003A931F06BF944F000544E
:10B0F000304606A90695CDF81C80CDF820A009970A
:10B10000CDF828800B9431F05CF9304609A931F074
:10B1100058F930460CA9CDF83090CDF834800E9413
:10B120000F95CDF84080CDF844A031F054F9304669
:10B130000FA931F050F93046FFF7F2FE12B0BDE82A
:10B14000F0872120FAE700BF030201040302000494
:10B15000100000202DE9F04F97B0894690461F4619
:10B160000546DDF880A0002800F0BD80002900F031
:10B17000BA803AB1229B002B00F0B580239B002BB4
:10B1800000F0B180BAF1000F00F0AD80219B002BE0
:10B1900000F0A98077B13C680026229B43440293CB
:10B1A000464509D3002F00F0A08000203C6017B076
:10B1B000BDE8F08F3C46EFE75CB1229B219A9B5D96
:10B1C000125D01345340239A04F00F049355013665
:10B1D000E6E7A8EB060BBBF10F0F58D9444B4846E6
:10B1E000C5E90034AC60EC6113A931F0D6FA00284F
:10B1F000DDD1284613992BF00F0B31F0F6F85946A4
:10B20000284631F0F2F8484604A900F077FE0028FD
:10B21000CDD1284604A931F0D4F8484607A931F029
:10B220008AFB0028C3D1284607A931F0CAF80123B8
:10B230002299304ACDF828A00B930C928A190D92CE
:10B2400028464BF000520AA90E9303920F9231F058
:10B25000B8F828460DA931F0B4F8239B039A991940
:10B260000123109111931292224A284610A9CDF879
:10B270004CA01493159231F0AEF8284613A931F082
:10B28000AAF82846FFF74CFE5E4400288FD1229B87
:10B2900003EB060B239B1E44029B5B4501D14646F4
:10B2A0007EE7ACB9219B2246CDE900A34946102395
:10B2B0002846FFF77DFE00287FF479AF0AF11002DF
:10B2C00012F8013D0133DBB213700BB99245F7D18F
:10B2D000219A1BF8013B125D0134534006F8013BF3
:10B2E00004F00F04D8E7212061E738465FE700BF8C
:10B2F00003030004100000202DE9F04F97B00F4623
:10B30000144699468346209EDDF88880DDF890A09B
:10B31000269D002800F09F80002900F09C801DB130
:10B32000259B002B00F09780B9F1000F00F093806F
:10B33000B8F1000F03D0219B002B00F08C803CB1B2
:10B34000239B002B00F08780BAF1000F00F0838070
:10B35000C6F10F02D2B2032A05D80121D20001FAA8
:10B3600002F2A24277D9022D75D0102D73D815F0B4
:10B37000010270D1F11F06296DD838490AEB04008B
:10B38000884268D836493846CBE90012CBF8082005
:10B39000CBF81C2013A931F000FA002858D15846E8
:10B3A000139931F022F8584645EA064131F01DF86C
:10B3B0004146584631F019F82146584631F015F803
:10B3C000384601A900F09AFD002841D1584601A94C
:10B3D00030F0F7FF384604A931F0ADFA002837D134
:10B3E0000127584604A930F0ECFF239B48F0005297
:10B3F0000793219B584644F000540DA946F000568F
:10B40000089709940A930B970C92CDF834900E97F5
:10B410000F9630F0D6FF58460AA930F0D2FF5846B2
:10B4200007A930F0CEFF259B584610A945F00055DE
:10B43000CDF840A01197129413931497159530F0FE
:10B44000CAFF584613A930F0C6FF5846FFF768FDFB
:10B4500017B0BDE8F08F2120FAE700BFFFFF0320FF
:10B46000000005042DE9F04F99B00F4614469B46A5
:10B470008046229EDDF89890289D002800F0B2803A
:10B48000002900F0AF80279B002B00F0AB80BBF1C0
:10B49000000F00F0A780249B1BB1239B002B00F022
:10B4A000A1803CB1259B002B00F09C80B9F1000FDE
:10B4B00000F09880C6F10F03DBB2032B06D8012100
:10B4C000DB0001FA03F3A34240F28C80022D00F06E
:10B4D00089806B1E0F2B00F2858015F0010A40F069
:10B4E0008180F31F062B7DD83F4B09EB0401994265
:10B4F00078D83E4B3846C8E9003AC8F808A0C8F8E2
:10B500001CA015A931F049F90346002866D1404630
:10B51000159930F06AFF404645EA064130F065FF74
:10B520004046249930F061FF2146404630F05DFFEF
:10B53000384603A900F0E2FC034600284ED14046FD
:10B5400003A930F03EFF384606A931F0F4F903466E
:10B55000002843D10127404606A930F032FF259B41
:10B560004046099344F000530A9701930B93239BA1
:10B5700046F000560C93249B0D9743F000510E911A
:10B580000FA9CDF83CB01097119630F01AFF404645
:10B590000CA930F016FF404609A930F012FF019BBC
:10B5A000404612A9CDF848901397149330F013FF3A
:10B5B000279B404615A945F00055159316971795FA
:10B5C00030F0FFFE4046FFF7ABFC034630B1019080
:10B5D0002246514648464AF038FA019B184619B0AF
:10B5E000BDE8F08F2123F9E7FFFF032000000604E8
:10B5F0002DE9F0438DB0884615461C460746DDF818
:10B600005090002850D000294ED0002A4CD0B9F1DB
:10B61000000F49D00B68103B102B45D8012606FAC5
:10B6200003F303F0013323F08073002B3CD000239D
:10B630001E4A8360C0E90023C36109A9404631F076
:10B64000ACF870BB3846099930F0CFFE2146384639
:10B6500030F0CBFE6946404600F050FC08BB69461E
:10B66000384630F0AEFE404603A931F064F9C0B967
:10B67000384603A930F0A5FE44F00054384606A928
:10B6800006950796089430F09CFE094B384609A9A8
:10B69000CDF824900A960B9330F09DFE3846FFF7C4
:10B6A0003FFC0DB0BDE8F0832120FAE70000040460
:10B6B00010000020F0B50C4617461E46054695B012
:10B6C000002874D0002972D0002A70D0002B6ED0D0
:10B6D000036B0F2B5BD80023364A3846C4E900239E
:10B6E000A360E36111A931F058F800285BD120462E
:10B6F000119930F07AFE296B20460F2984BF01F0A2
:10B700000F01103130F071FE384602A900F0F6FB4F
:10B71000002848D1204602A930F053FE384605A93A
:10B7200031F009F900283ED1204605A930F049FE44
:10B730000122214B089509920A932B6B05F1100009
:10B7400003F00F0141F000510B900F2B0C920D9163
:10B750000E900F9243F00052109226D90A9B08A92E
:10B7600023F0005320460A9330F02BFE0BA920460D
:10B7700030F027FE0123119612930F4B204611A99A
:10B78000139330F028FE2046FFF7CAFB0BE000F1D0
:10B790002003019000930122102339462046FFF731
:10B7A00007FC002897D015B0F0BD0EA9DFE72120D7
:10B7B000F9E700BF00000404100000202DE9F04F5D
:10B7C0009BB00D46914698460646DDF890A00028AD
:10B7D00000F0B380002900F0B080002A00F0AD80B6
:10B7E000002B00F0AA80026B02EB0A031B09B3EBEB
:10B7F000121F02F00F0700F098800023504A8B6060
:10B80000C1E90023CB61484617A930F0C6FF0446C2
:10B81000002840F0868007EB0A0323F00F0B284630
:10B820001799009330F0E1FD5946284630F0DDFDD0
:10B83000484602A900F062FB0446002871D1284660
:10B8400002A930F0BEFD484605A931F074F804465F
:10B85000002866D14FF00109284605A930F0B1FD56
:10B86000384A284608A90896CDF824900A9230F064
:10B87000A8FD47F00051ABEB070706F1100347F0B6
:10B8800000570B93CDF830900D91CDF83880CDF85E
:10B890003C9010970D99284621F000510D910BA96D
:10B8A000019330F08EFD28460EA930F08AFDABF1F1
:10B8B0001001244A41F000511194CDF848901391A1
:10B8C00006F120011491CDF8549016921399284650
:10B8D00041F080411391139921F00051139111A966
:10B8E00030F079FD284614A930F075FD154A17A9E6
:10B8F00028461796CDF86090199230F06CFD2846D6
:10B90000FFF70EFB009B0446ABEB0301A3EB0B021E
:10B91000019B5144184641444AF070F8336B53443C
:10B92000336320461BB0BDE8F08F103052464146CD
:10B9300038444AF063F80024F0E72124F1E700BF1F
:10B9400003020004100000202DE9F0438DB088466A
:10B95000DDE914591E460746002850D000294ED074
:10B96000002B4CD0B9F1000F49D0531EDBB2042B91
:10B9700045D82449CC5C169B9C4240D8224B09A94F
:10B9800003EB022200230260C0E90133C361404699
:10B9900030F003FF80BB3846099930F026FD294678
:10B9A000384630F022FD6946404600F0A7FA18BB41
:10B9B0006946384630F005FD404603A930F0BBFF2C
:10B9C000D0B9384603A930F0FCFC0696012638466B
:10B9D00006A945F00055079644F00054089530F04C
:10B9E000F0FC384609A9CDF824900A960B9430F063
:10B9F000F2FC3846FFF794FA0DB0BDE8F083212041
:10BA0000FAE700BF35630508000102032DE9FF478F
:10BA100000230E4617460446009300285BD00AB167
:10BA2000002958D037F0030807F0030A25D04FF05B
:10BA300000094FF0E063C4E9003901230196204674
:10BA4000029301A948F00053C4F80890C4F81C9070
:10BA5000039330F0C0FC4146204630F0C6FC20463F
:10BA6000FFF75EFA054640B142464946304649F086
:10BA7000ECFF284604B0BDE8F0874FF00009BAF1AA
:10BA8000000F2AD04FF0E063C4E900390123CDF85C
:10BA900004D00293124B204601A9C4F80890C4F8C0
:10BAA0001C90039330F097FC0421204630F09DFC5D
:10BAB0002046FFF735FA054608B13A46D5E7034672
:10BAC00000994644DA00013321FA02F29A4506F859
:10BAD000012BF7D1CDE72125CBE75546C9E700BFBC
